Archive member included to satisfy reference by file (symbol)

d:/rt-threadstudio/repo/extract/toolchain_support_packages/arm/gnu_tools_for_arm_embedded_processors/5.4.1/bin/../lib/gcc/arm-none-eabi/5.4.1/../../../../arm-none-eabi/lib/armv7e-m/fpu\libc.a(lib_a-assert.o)
                              ./packages/LVGL-latest/src/libs/qrcode/qrcodegen.o (__assert_func)
d:/rt-threadstudio/repo/extract/toolchain_support_packages/arm/gnu_tools_for_arm_embedded_processors/5.4.1/bin/../lib/gcc/arm-none-eabi/5.4.1/../../../../arm-none-eabi/lib/armv7e-m/fpu\libc.a(lib_a-atoi.o)
                              ./rt-thread/components/drivers/misc/pin.o (atoi)
d:/rt-threadstudio/repo/extract/toolchain_support_packages/arm/gnu_tools_for_arm_embedded_processors/5.4.1/bin/../lib/gcc/arm-none-eabi/5.4.1/../../../../arm-none-eabi/lib/armv7e-m/fpu\libc.a(lib_a-exit.o)
                              d:/rt-threadstudio/repo/extract/toolchain_support_packages/arm/gnu_tools_for_arm_embedded_processors/5.4.1/bin/../lib/gcc/arm-none-eabi/5.4.1/../../../../arm-none-eabi/lib/armv7e-m/fpu/crt0.o (exit)
d:/rt-threadstudio/repo/extract/toolchain_support_packages/arm/gnu_tools_for_arm_embedded_processors/5.4.1/bin/../lib/gcc/arm-none-eabi/5.4.1/../../../../arm-none-eabi/lib/armv7e-m/fpu\libc.a(lib_a-fiprintf.o)
                              d:/rt-threadstudio/repo/extract/toolchain_support_packages/arm/gnu_tools_for_arm_embedded_processors/5.4.1/bin/../lib/gcc/arm-none-eabi/5.4.1/../../../../arm-none-eabi/lib/armv7e-m/fpu\libc.a(lib_a-assert.o) (fiprintf)
d:/rt-threadstudio/repo/extract/toolchain_support_packages/arm/gnu_tools_for_arm_embedded_processors/5.4.1/bin/../lib/gcc/arm-none-eabi/5.4.1/../../../../arm-none-eabi/lib/armv7e-m/fpu\libc.a(lib_a-impure.o)
                              d:/rt-threadstudio/repo/extract/toolchain_support_packages/arm/gnu_tools_for_arm_embedded_processors/5.4.1/bin/../lib/gcc/arm-none-eabi/5.4.1/../../../../arm-none-eabi/lib/armv7e-m/fpu\libc.a(lib_a-exit.o) (_global_impure_ptr)
d:/rt-threadstudio/repo/extract/toolchain_support_packages/arm/gnu_tools_for_arm_embedded_processors/5.4.1/bin/../lib/gcc/arm-none-eabi/5.4.1/../../../../arm-none-eabi/lib/armv7e-m/fpu\libc.a(lib_a-locale.o)
                              ./rt-thread/components/libc/compilers/common/cstring.o (__locale_ctype_ptr)
d:/rt-threadstudio/repo/extract/toolchain_support_packages/arm/gnu_tools_for_arm_embedded_processors/5.4.1/bin/../lib/gcc/arm-none-eabi/5.4.1/../../../../arm-none-eabi/lib/armv7e-m/fpu\libc.a(lib_a-malloc.o)
                              ./rt-thread/components/libc/compilers/common/cstring.o (malloc)
d:/rt-threadstudio/repo/extract/toolchain_support_packages/arm/gnu_tools_for_arm_embedded_processors/5.4.1/bin/../lib/gcc/arm-none-eabi/5.4.1/../../../../arm-none-eabi/lib/armv7e-m/fpu\libc.a(lib_a-mbtowc_r.o)
                              d:/rt-threadstudio/repo/extract/toolchain_support_packages/arm/gnu_tools_for_arm_embedded_processors/5.4.1/bin/../lib/gcc/arm-none-eabi/5.4.1/../../../../arm-none-eabi/lib/armv7e-m/fpu\libc.a(lib_a-locale.o) (__ascii_mbtowc)
d:/rt-threadstudio/repo/extract/toolchain_support_packages/arm/gnu_tools_for_arm_embedded_processors/5.4.1/bin/../lib/gcc/arm-none-eabi/5.4.1/../../../../arm-none-eabi/lib/armv7e-m/fpu\libc.a(lib_a-memcmp.o)
                              ./rt-thread/components/finsh/shell.o (memcmp)
d:/rt-threadstudio/repo/extract/toolchain_support_packages/arm/gnu_tools_for_arm_embedded_processors/5.4.1/bin/../lib/gcc/arm-none-eabi/5.4.1/../../../../arm-none-eabi/lib/armv7e-m/fpu\libc.a(lib_a-memcpy.o)
                              ./packages/LVGL-latest/src/widgets/span/lv_span.o (memcpy)
d:/rt-threadstudio/repo/extract/toolchain_support_packages/arm/gnu_tools_for_arm_embedded_processors/5.4.1/bin/../lib/gcc/arm-none-eabi/5.4.1/../../../../arm-none-eabi/lib/armv7e-m/fpu\libc.a(lib_a-memmove.o)
                              ./packages/LVGL-latest/src/libs/qrcode/qrcodegen.o (memmove)
d:/rt-threadstudio/repo/extract/toolchain_support_packages/arm/gnu_tools_for_arm_embedded_processors/5.4.1/bin/../lib/gcc/arm-none-eabi/5.4.1/../../../../arm-none-eabi/lib/armv7e-m/fpu\libc.a(lib_a-memset.o)
                              d:/rt-threadstudio/repo/extract/toolchain_support_packages/arm/gnu_tools_for_arm_embedded_processors/5.4.1/bin/../lib/gcc/arm-none-eabi/5.4.1/../../../../arm-none-eabi/lib/armv7e-m/fpu/crt0.o (memset)
d:/rt-threadstudio/repo/extract/toolchain_support_packages/arm/gnu_tools_for_arm_embedded_processors/5.4.1/bin/../lib/gcc/arm-none-eabi/5.4.1/../../../../arm-none-eabi/lib/armv7e-m/fpu\libc.a(lib_a-sprintf.o)
                              ./applications/app_gui.o (sprintf)
d:/rt-threadstudio/repo/extract/toolchain_support_packages/arm/gnu_tools_for_arm_embedded_processors/5.4.1/bin/../lib/gcc/arm-none-eabi/5.4.1/../../../../arm-none-eabi/lib/armv7e-m/fpu\libc.a(lib_a-strchr.o)
                              ./rt-thread/components/libc/compilers/common/cstring.o (strchr)
d:/rt-threadstudio/repo/extract/toolchain_support_packages/arm/gnu_tools_for_arm_embedded_processors/5.4.1/bin/../lib/gcc/arm-none-eabi/5.4.1/../../../../arm-none-eabi/lib/armv7e-m/fpu\libc.a(lib_a-strcmp.o)
                              ./rt-thread/components/finsh/cmd.o (strcmp)
d:/rt-threadstudio/repo/extract/toolchain_support_packages/arm/gnu_tools_for_arm_embedded_processors/5.4.1/bin/../lib/gcc/arm-none-eabi/5.4.1/../../../../arm-none-eabi/lib/armv7e-m/fpu\libc.a(lib_a-strcpy.o)
                              ./rt-thread/components/libc/compilers/common/cstring.o (strcpy)
d:/rt-threadstudio/repo/extract/toolchain_support_packages/arm/gnu_tools_for_arm_embedded_processors/5.4.1/bin/../lib/gcc/arm-none-eabi/5.4.1/../../../../arm-none-eabi/lib/armv7e-m/fpu\libc.a(lib_a-strlen.o)
                              ./rt-thread/components/libc/compilers/common/cstring.o (strlen)
d:/rt-threadstudio/repo/extract/toolchain_support_packages/arm/gnu_tools_for_arm_embedded_processors/5.4.1/bin/../lib/gcc/arm-none-eabi/5.4.1/../../../../arm-none-eabi/lib/armv7e-m/fpu\libc.a(lib_a-strncat.o)
                              ./rt-thread/components/drivers/misc/pin.o (strncat)
d:/rt-threadstudio/repo/extract/toolchain_support_packages/arm/gnu_tools_for_arm_embedded_processors/5.4.1/bin/../lib/gcc/arm-none-eabi/5.4.1/../../../../arm-none-eabi/lib/armv7e-m/fpu\libc.a(lib_a-strncmp.o)
                              ./rt-thread/components/finsh/msh.o (strncmp)
d:/rt-threadstudio/repo/extract/toolchain_support_packages/arm/gnu_tools_for_arm_embedded_processors/5.4.1/bin/../lib/gcc/arm-none-eabi/5.4.1/../../../../arm-none-eabi/lib/armv7e-m/fpu\libc.a(lib_a-strncpy.o)
                              ./rt-thread/components/finsh/shell.o (strncpy)
d:/rt-threadstudio/repo/extract/toolchain_support_packages/arm/gnu_tools_for_arm_embedded_processors/5.4.1/bin/../lib/gcc/arm-none-eabi/5.4.1/../../../../arm-none-eabi/lib/armv7e-m/fpu\libc.a(lib_a-strrchr.o)
                              ./rt-thread/components/libc/compilers/common/cstring.o (strrchr)
d:/rt-threadstudio/repo/extract/toolchain_support_packages/arm/gnu_tools_for_arm_embedded_processors/5.4.1/bin/../lib/gcc/arm-none-eabi/5.4.1/../../../../arm-none-eabi/lib/armv7e-m/fpu\libc.a(lib_a-strtol.o)
                              d:/rt-threadstudio/repo/extract/toolchain_support_packages/arm/gnu_tools_for_arm_embedded_processors/5.4.1/bin/../lib/gcc/arm-none-eabi/5.4.1/../../../../arm-none-eabi/lib/armv7e-m/fpu\libc.a(lib_a-atoi.o) (_strtol_r)
d:/rt-threadstudio/repo/extract/toolchain_support_packages/arm/gnu_tools_for_arm_embedded_processors/5.4.1/bin/../lib/gcc/arm-none-eabi/5.4.1/../../../../arm-none-eabi/lib/armv7e-m/fpu\libc.a(lib_a-svfprintf.o)
                              d:/rt-threadstudio/repo/extract/toolchain_support_packages/arm/gnu_tools_for_arm_embedded_processors/5.4.1/bin/../lib/gcc/arm-none-eabi/5.4.1/../../../../arm-none-eabi/lib/armv7e-m/fpu\libc.a(lib_a-sprintf.o) (_svfprintf_r)
d:/rt-threadstudio/repo/extract/toolchain_support_packages/arm/gnu_tools_for_arm_embedded_processors/5.4.1/bin/../lib/gcc/arm-none-eabi/5.4.1/../../../../arm-none-eabi/lib/armv7e-m/fpu\libc.a(lib_a-vfiprintf.o)
                              d:/rt-threadstudio/repo/extract/toolchain_support_packages/arm/gnu_tools_for_arm_embedded_processors/5.4.1/bin/../lib/gcc/arm-none-eabi/5.4.1/../../../../arm-none-eabi/lib/armv7e-m/fpu\libc.a(lib_a-fiprintf.o) (_vfiprintf_r)
d:/rt-threadstudio/repo/extract/toolchain_support_packages/arm/gnu_tools_for_arm_embedded_processors/5.4.1/bin/../lib/gcc/arm-none-eabi/5.4.1/../../../../arm-none-eabi/lib/armv7e-m/fpu\libc.a(lib_a-wctomb_r.o)
                              d:/rt-threadstudio/repo/extract/toolchain_support_packages/arm/gnu_tools_for_arm_embedded_processors/5.4.1/bin/../lib/gcc/arm-none-eabi/5.4.1/../../../../arm-none-eabi/lib/armv7e-m/fpu\libc.a(lib_a-locale.o) (__ascii_wctomb)
d:/rt-threadstudio/repo/extract/toolchain_support_packages/arm/gnu_tools_for_arm_embedded_processors/5.4.1/bin/../lib/gcc/arm-none-eabi/5.4.1/../../../../arm-none-eabi/lib/armv7e-m/fpu\libc.a(lib_a-wsetup.o)
                              d:/rt-threadstudio/repo/extract/toolchain_support_packages/arm/gnu_tools_for_arm_embedded_processors/5.4.1/bin/../lib/gcc/arm-none-eabi/5.4.1/../../../../arm-none-eabi/lib/armv7e-m/fpu\libc.a(lib_a-vfiprintf.o) (__swsetup_r)
d:/rt-threadstudio/repo/extract/toolchain_support_packages/arm/gnu_tools_for_arm_embedded_processors/5.4.1/bin/../lib/gcc/arm-none-eabi/5.4.1/../../../../arm-none-eabi/lib/armv7e-m/fpu\libc.a(lib_a-__call_atexit.o)
                              d:/rt-threadstudio/repo/extract/toolchain_support_packages/arm/gnu_tools_for_arm_embedded_processors/5.4.1/bin/../lib/gcc/arm-none-eabi/5.4.1/../../../../arm-none-eabi/lib/armv7e-m/fpu\libc.a(lib_a-exit.o) (__call_exitprocs)
d:/rt-threadstudio/repo/extract/toolchain_support_packages/arm/gnu_tools_for_arm_embedded_processors/5.4.1/bin/../lib/gcc/arm-none-eabi/5.4.1/../../../../arm-none-eabi/lib/armv7e-m/fpu\libc.a(lib_a-abort.o)
                              d:/rt-threadstudio/repo/extract/toolchain_support_packages/arm/gnu_tools_for_arm_embedded_processors/5.4.1/bin/../lib/gcc/arm-none-eabi/5.4.1/../../../../arm-none-eabi/lib/armv7e-m/fpu\libc.a(lib_a-assert.o) (abort)
d:/rt-threadstudio/repo/extract/toolchain_support_packages/arm/gnu_tools_for_arm_embedded_processors/5.4.1/bin/../lib/gcc/arm-none-eabi/5.4.1/../../../../arm-none-eabi/lib/armv7e-m/fpu\libc.a(lib_a-atexit.o)
                              d:/rt-threadstudio/repo/extract/toolchain_support_packages/arm/gnu_tools_for_arm_embedded_processors/5.4.1/bin/../lib/gcc/arm-none-eabi/5.4.1/../../../../arm-none-eabi/lib/armv7e-m/fpu\libc.a(lib_a-__call_atexit.o) (atexit)
d:/rt-threadstudio/repo/extract/toolchain_support_packages/arm/gnu_tools_for_arm_embedded_processors/5.4.1/bin/../lib/gcc/arm-none-eabi/5.4.1/../../../../arm-none-eabi/lib/armv7e-m/fpu\libc.a(lib_a-ctype_.o)
                              d:/rt-threadstudio/repo/extract/toolchain_support_packages/arm/gnu_tools_for_arm_embedded_processors/5.4.1/bin/../lib/gcc/arm-none-eabi/5.4.1/../../../../arm-none-eabi/lib/armv7e-m/fpu\libc.a(lib_a-locale.o) (_ctype_)
d:/rt-threadstudio/repo/extract/toolchain_support_packages/arm/gnu_tools_for_arm_embedded_processors/5.4.1/bin/../lib/gcc/arm-none-eabi/5.4.1/../../../../arm-none-eabi/lib/armv7e-m/fpu\libc.a(lib_a-dtoa.o)
                              d:/rt-threadstudio/repo/extract/toolchain_support_packages/arm/gnu_tools_for_arm_embedded_processors/5.4.1/bin/../lib/gcc/arm-none-eabi/5.4.1/../../../../arm-none-eabi/lib/armv7e-m/fpu\libc.a(lib_a-svfprintf.o) (_dtoa_r)
d:/rt-threadstudio/repo/extract/toolchain_support_packages/arm/gnu_tools_for_arm_embedded_processors/5.4.1/bin/../lib/gcc/arm-none-eabi/5.4.1/../../../../arm-none-eabi/lib/armv7e-m/fpu\libc.a(lib_a-fflush.o)
                              d:/rt-threadstudio/repo/extract/toolchain_support_packages/arm/gnu_tools_for_arm_embedded_processors/5.4.1/bin/../lib/gcc/arm-none-eabi/5.4.1/../../../../arm-none-eabi/lib/armv7e-m/fpu\libc.a(lib_a-vfiprintf.o) (_fflush_r)
d:/rt-threadstudio/repo/extract/toolchain_support_packages/arm/gnu_tools_for_arm_embedded_processors/5.4.1/bin/../lib/gcc/arm-none-eabi/5.4.1/../../../../arm-none-eabi/lib/armv7e-m/fpu\libc.a(lib_a-findfp.o)
                              d:/rt-threadstudio/repo/extract/toolchain_support_packages/arm/gnu_tools_for_arm_embedded_processors/5.4.1/bin/../lib/gcc/arm-none-eabi/5.4.1/../../../../arm-none-eabi/lib/armv7e-m/fpu\libc.a(lib_a-vfiprintf.o) (__sinit)
d:/rt-threadstudio/repo/extract/toolchain_support_packages/arm/gnu_tools_for_arm_embedded_processors/5.4.1/bin/../lib/gcc/arm-none-eabi/5.4.1/../../../../arm-none-eabi/lib/armv7e-m/fpu\libc.a(lib_a-fini.o)
                              d:/rt-threadstudio/repo/extract/toolchain_support_packages/arm/gnu_tools_for_arm_embedded_processors/5.4.1/bin/../lib/gcc/arm-none-eabi/5.4.1/../../../../arm-none-eabi/lib/armv7e-m/fpu\libc.a(lib_a-__call_atexit.o) (__libc_fini_array)
d:/rt-threadstudio/repo/extract/toolchain_support_packages/arm/gnu_tools_for_arm_embedded_processors/5.4.1/bin/../lib/gcc/arm-none-eabi/5.4.1/../../../../arm-none-eabi/lib/armv7e-m/fpu\libc.a(lib_a-fputwc.o)
                              d:/rt-threadstudio/repo/extract/toolchain_support_packages/arm/gnu_tools_for_arm_embedded_processors/5.4.1/bin/../lib/gcc/arm-none-eabi/5.4.1/../../../../arm-none-eabi/lib/armv7e-m/fpu\libc.a(lib_a-vfiprintf.o) (_fputwc_r)
d:/rt-threadstudio/repo/extract/toolchain_support_packages/arm/gnu_tools_for_arm_embedded_processors/5.4.1/bin/../lib/gcc/arm-none-eabi/5.4.1/../../../../arm-none-eabi/lib/armv7e-m/fpu\libc.a(lib_a-fvwrite.o)
                              d:/rt-threadstudio/repo/extract/toolchain_support_packages/arm/gnu_tools_for_arm_embedded_processors/5.4.1/bin/../lib/gcc/arm-none-eabi/5.4.1/../../../../arm-none-eabi/lib/armv7e-m/fpu\libc.a(lib_a-vfiprintf.o) (__sfvwrite_r)
d:/rt-threadstudio/repo/extract/toolchain_support_packages/arm/gnu_tools_for_arm_embedded_processors/5.4.1/bin/../lib/gcc/arm-none-eabi/5.4.1/../../../../arm-none-eabi/lib/armv7e-m/fpu\libc.a(lib_a-fwalk.o)
                              d:/rt-threadstudio/repo/extract/toolchain_support_packages/arm/gnu_tools_for_arm_embedded_processors/5.4.1/bin/../lib/gcc/arm-none-eabi/5.4.1/../../../../arm-none-eabi/lib/armv7e-m/fpu\libc.a(lib_a-findfp.o) (_fwalk)
d:/rt-threadstudio/repo/extract/toolchain_support_packages/arm/gnu_tools_for_arm_embedded_processors/5.4.1/bin/../lib/gcc/arm-none-eabi/5.4.1/../../../../arm-none-eabi/lib/armv7e-m/fpu\libc.a(lib_a-localeconv.o)
                              d:/rt-threadstudio/repo/extract/toolchain_support_packages/arm/gnu_tools_for_arm_embedded_processors/5.4.1/bin/../lib/gcc/arm-none-eabi/5.4.1/../../../../arm-none-eabi/lib/armv7e-m/fpu\libc.a(lib_a-svfprintf.o) (_localeconv_r)
d:/rt-threadstudio/repo/extract/toolchain_support_packages/arm/gnu_tools_for_arm_embedded_processors/5.4.1/bin/../lib/gcc/arm-none-eabi/5.4.1/../../../../arm-none-eabi/lib/armv7e-m/fpu\libc.a(lib_a-makebuf.o)
                              d:/rt-threadstudio/repo/extract/toolchain_support_packages/arm/gnu_tools_for_arm_embedded_processors/5.4.1/bin/../lib/gcc/arm-none-eabi/5.4.1/../../../../arm-none-eabi/lib/armv7e-m/fpu\libc.a(lib_a-wsetup.o) (__smakebuf_r)
d:/rt-threadstudio/repo/extract/toolchain_support_packages/arm/gnu_tools_for_arm_embedded_processors/5.4.1/bin/../lib/gcc/arm-none-eabi/5.4.1/../../../../arm-none-eabi/lib/armv7e-m/fpu\libc.a(lib_a-memchr.o)
                              d:/rt-threadstudio/repo/extract/toolchain_support_packages/arm/gnu_tools_for_arm_embedded_processors/5.4.1/bin/../lib/gcc/arm-none-eabi/5.4.1/../../../../arm-none-eabi/lib/armv7e-m/fpu\libc.a(lib_a-svfprintf.o) (memchr)
d:/rt-threadstudio/repo/extract/toolchain_support_packages/arm/gnu_tools_for_arm_embedded_processors/5.4.1/bin/../lib/gcc/arm-none-eabi/5.4.1/../../../../arm-none-eabi/lib/armv7e-m/fpu\libc.a(lib_a-mprec.o)
                              d:/rt-threadstudio/repo/extract/toolchain_support_packages/arm/gnu_tools_for_arm_embedded_processors/5.4.1/bin/../lib/gcc/arm-none-eabi/5.4.1/../../../../arm-none-eabi/lib/armv7e-m/fpu\libc.a(lib_a-dtoa.o) (_Balloc)
d:/rt-threadstudio/repo/extract/toolchain_support_packages/arm/gnu_tools_for_arm_embedded_processors/5.4.1/bin/../lib/gcc/arm-none-eabi/5.4.1/../../../../arm-none-eabi/lib/armv7e-m/fpu\libc.a(lib_a-signal.o)
                              d:/rt-threadstudio/repo/extract/toolchain_support_packages/arm/gnu_tools_for_arm_embedded_processors/5.4.1/bin/../lib/gcc/arm-none-eabi/5.4.1/../../../../arm-none-eabi/lib/armv7e-m/fpu\libc.a(lib_a-abort.o) (raise)
d:/rt-threadstudio/repo/extract/toolchain_support_packages/arm/gnu_tools_for_arm_embedded_processors/5.4.1/bin/../lib/gcc/arm-none-eabi/5.4.1/../../../../arm-none-eabi/lib/armv7e-m/fpu\libc.a(lib_a-stdio.o)
                              d:/rt-threadstudio/repo/extract/toolchain_support_packages/arm/gnu_tools_for_arm_embedded_processors/5.4.1/bin/../lib/gcc/arm-none-eabi/5.4.1/../../../../arm-none-eabi/lib/armv7e-m/fpu\libc.a(lib_a-findfp.o) (__sread)
d:/rt-threadstudio/repo/extract/toolchain_support_packages/arm/gnu_tools_for_arm_embedded_processors/5.4.1/bin/../lib/gcc/arm-none-eabi/5.4.1/../../../../arm-none-eabi/lib/armv7e-m/fpu\libc.a(lib_a-svfiprintf.o)
                              d:/rt-threadstudio/repo/extract/toolchain_support_packages/arm/gnu_tools_for_arm_embedded_processors/5.4.1/bin/../lib/gcc/arm-none-eabi/5.4.1/../../../../arm-none-eabi/lib/armv7e-m/fpu\libc.a(lib_a-svfprintf.o) (__ssprint_r)
d:/rt-threadstudio/repo/extract/toolchain_support_packages/arm/gnu_tools_for_arm_embedded_processors/5.4.1/bin/../lib/gcc/arm-none-eabi/5.4.1/../../../../arm-none-eabi/lib/armv7e-m/fpu\libc.a(lib_a-wbuf.o)
                              d:/rt-threadstudio/repo/extract/toolchain_support_packages/arm/gnu_tools_for_arm_embedded_processors/5.4.1/bin/../lib/gcc/arm-none-eabi/5.4.1/../../../../arm-none-eabi/lib/armv7e-m/fpu\libc.a(lib_a-fputwc.o) (__swbuf_r)
d:/rt-threadstudio/repo/extract/toolchain_support_packages/arm/gnu_tools_for_arm_embedded_processors/5.4.1/bin/../lib/gcc/arm-none-eabi/5.4.1/../../../../arm-none-eabi/lib/armv7e-m/fpu\libc.a(lib_a-wcrtomb.o)
                              d:/rt-threadstudio/repo/extract/toolchain_support_packages/arm/gnu_tools_for_arm_embedded_processors/5.4.1/bin/../lib/gcc/arm-none-eabi/5.4.1/../../../../arm-none-eabi/lib/armv7e-m/fpu\libc.a(lib_a-fputwc.o) (_wcrtomb_r)
d:/rt-threadstudio/repo/extract/toolchain_support_packages/arm/gnu_tools_for_arm_embedded_processors/5.4.1/bin/../lib/gcc/arm-none-eabi/5.4.1/../../../../arm-none-eabi/lib/armv7e-m/fpu\libc.a(lib_a-__atexit.o)
                              d:/rt-threadstudio/repo/extract/toolchain_support_packages/arm/gnu_tools_for_arm_embedded_processors/5.4.1/bin/../lib/gcc/arm-none-eabi/5.4.1/../../../../arm-none-eabi/lib/armv7e-m/fpu\libc.a(lib_a-atexit.o) (__register_exitproc)
d:/rt-threadstudio/repo/extract/toolchain_support_packages/arm/gnu_tools_for_arm_embedded_processors/5.4.1/bin/../lib/gcc/arm-none-eabi/5.4.1/../../../../arm-none-eabi/lib/armv7e-m/fpu\libc.a(lib_a-fclose.o)
                              d:/rt-threadstudio/repo/extract/toolchain_support_packages/arm/gnu_tools_for_arm_embedded_processors/5.4.1/bin/../lib/gcc/arm-none-eabi/5.4.1/../../../../arm-none-eabi/lib/armv7e-m/fpu\libc.a(lib_a-findfp.o) (_fclose_r)
d:/rt-threadstudio/repo/extract/toolchain_support_packages/arm/gnu_tools_for_arm_embedded_processors/5.4.1/bin/../lib/gcc/arm-none-eabi/5.4.1/armv7e-m/fpu\libgcc.a(_arm_addsubdf3.o)
                              d:/rt-threadstudio/repo/extract/toolchain_support_packages/arm/gnu_tools_for_arm_embedded_processors/5.4.1/bin/../lib/gcc/arm-none-eabi/5.4.1/../../../../arm-none-eabi/lib/armv7e-m/fpu\libc.a(lib_a-dtoa.o) (__aeabi_dsub)
d:/rt-threadstudio/repo/extract/toolchain_support_packages/arm/gnu_tools_for_arm_embedded_processors/5.4.1/bin/../lib/gcc/arm-none-eabi/5.4.1/armv7e-m/fpu\libgcc.a(_arm_muldivdf3.o)
                              d:/rt-threadstudio/repo/extract/toolchain_support_packages/arm/gnu_tools_for_arm_embedded_processors/5.4.1/bin/../lib/gcc/arm-none-eabi/5.4.1/../../../../arm-none-eabi/lib/armv7e-m/fpu\libc.a(lib_a-dtoa.o) (__aeabi_dmul)
d:/rt-threadstudio/repo/extract/toolchain_support_packages/arm/gnu_tools_for_arm_embedded_processors/5.4.1/bin/../lib/gcc/arm-none-eabi/5.4.1/armv7e-m/fpu\libgcc.a(_arm_cmpdf2.o)
                              d:/rt-threadstudio/repo/extract/toolchain_support_packages/arm/gnu_tools_for_arm_embedded_processors/5.4.1/bin/../lib/gcc/arm-none-eabi/5.4.1/../../../../arm-none-eabi/lib/armv7e-m/fpu\libc.a(lib_a-svfprintf.o) (__aeabi_dcmpeq)
d:/rt-threadstudio/repo/extract/toolchain_support_packages/arm/gnu_tools_for_arm_embedded_processors/5.4.1/bin/../lib/gcc/arm-none-eabi/5.4.1/armv7e-m/fpu\libgcc.a(_arm_unorddf2.o)
                              d:/rt-threadstudio/repo/extract/toolchain_support_packages/arm/gnu_tools_for_arm_embedded_processors/5.4.1/bin/../lib/gcc/arm-none-eabi/5.4.1/../../../../arm-none-eabi/lib/armv7e-m/fpu\libc.a(lib_a-svfprintf.o) (__aeabi_dcmpun)
d:/rt-threadstudio/repo/extract/toolchain_support_packages/arm/gnu_tools_for_arm_embedded_processors/5.4.1/bin/../lib/gcc/arm-none-eabi/5.4.1/armv7e-m/fpu\libgcc.a(_arm_fixdfsi.o)
                              d:/rt-threadstudio/repo/extract/toolchain_support_packages/arm/gnu_tools_for_arm_embedded_processors/5.4.1/bin/../lib/gcc/arm-none-eabi/5.4.1/../../../../arm-none-eabi/lib/armv7e-m/fpu\libc.a(lib_a-dtoa.o) (__aeabi_d2iz)
d:/rt-threadstudio/repo/extract/toolchain_support_packages/arm/gnu_tools_for_arm_embedded_processors/5.4.1/bin/../lib/gcc/arm-none-eabi/5.4.1/armv7e-m/fpu\libgcc.a(_aeabi_uldivmod.o)
                              ./packages/LVGL-latest/src/misc/lv_printf.o (__aeabi_uldivmod)
d:/rt-threadstudio/repo/extract/toolchain_support_packages/arm/gnu_tools_for_arm_embedded_processors/5.4.1/bin/../lib/gcc/arm-none-eabi/5.4.1/armv7e-m/fpu\libgcc.a(_udivmoddi4.o)
                              d:/rt-threadstudio/repo/extract/toolchain_support_packages/arm/gnu_tools_for_arm_embedded_processors/5.4.1/bin/../lib/gcc/arm-none-eabi/5.4.1/armv7e-m/fpu\libgcc.a(_aeabi_uldivmod.o) (__udivmoddi4)
d:/rt-threadstudio/repo/extract/toolchain_support_packages/arm/gnu_tools_for_arm_embedded_processors/5.4.1/bin/../lib/gcc/arm-none-eabi/5.4.1/armv7e-m/fpu\libgcc.a(_dvmd_tls.o)
                              d:/rt-threadstudio/repo/extract/toolchain_support_packages/arm/gnu_tools_for_arm_embedded_processors/5.4.1/bin/../lib/gcc/arm-none-eabi/5.4.1/armv7e-m/fpu\libgcc.a(_aeabi_uldivmod.o) (__aeabi_ldiv0)

Allocating common symbols
Common symbol       size              file

_lv_img_cache_single
                    0x2c              ./packages/LVGL-latest/src/misc/lv_gc.o
Num                 0x4               ./applications/app_pulse_sensor.o
LV_STYLE_FLEX_TRACK_PLACE
                    0x2               ./packages/LVGL-latest/src/layouts/flex/lv_flex.o
rx_buff             0x1dc4            ./libraries/GD32F4xx_Firmware_Library/GD32F4xx_standard_peripheral/Source/gd32f4xx_enet.o
rate                0x28              ./applications/app_pulse_sensor.o
rt_thread_ready_priority_group
                    0x4               ./rt-thread/src/scheduler.o
_lv_fsdrv_ll        0xc               ./packages/LVGL-latest/src/misc/lv_gc.o
_lv_obj_style_trans_ll
                    0xc               ./packages/LVGL-latest/src/misc/lv_gc.o
LV_LAYOUT_GRID      0x2               ./packages/LVGL-latest/src/layouts/grid/lv_grid.o
_lv_disp_ll         0xc               ./packages/LVGL-latest/src/misc/lv_gc.o
shell               0x4               ./rt-thread/components/finsh/shell.o
LV_STYLE_FLEX_FLOW  0x2               ./packages/LVGL-latest/src/layouts/flex/lv_flex.o
LV_STYLE_GRID_CELL_ROW_POS
                    0x2               ./packages/LVGL-latest/src/layouts/grid/lv_grid.o
_lv_style_custom_prop_flag_lookup_table
                    0x4               ./packages/LVGL-latest/src/misc/lv_gc.o
_lv_theme_default_styles
                    0x4               ./packages/LVGL-latest/src/misc/lv_gc.o
OLED_GRAM           0x400             ./applications/app_oled.o
LV_STYLE_GRID_CELL_COLUMN_SPAN
                    0x2               ./packages/LVGL-latest/src/layouts/grid/lv_grid.o
_lv_timer_ll        0xc               ./packages/LVGL-latest/src/misc/lv_gc.o
LV_STYLE_FLEX_CROSS_PLACE
                    0x2               ./packages/LVGL-latest/src/layouts/flex/lv_flex.o
rxdesc_tab          0x50              ./libraries/GD32F4xx_Firmware_Library/GD32F4xx_standard_peripheral/Source/gd32f4xx_enet.o
LV_STYLE_GRID_CELL_Y_ALIGN
                    0x2               ./packages/LVGL-latest/src/layouts/grid/lv_grid.o
_lv_circle_cache    0x70              ./packages/LVGL-latest/src/misc/lv_gc.o
rt_interrupt_from_thread
                    0x4               ./rt-thread/libcpu/arm/cortex-m4/cpuport.o
rt_assert_hook      0x4               ./rt-thread/src/kservice.o
LV_STYLE_GRID_ROW_ALIGN
                    0x2               ./packages/LVGL-latest/src/layouts/grid/lv_grid.o
serial0             0x54              ./libraries/gd32_drivers/drv_usart.o
rt_current_priority
                    0x1               ./rt-thread/src/scheduler.o
_lv_draw_mask_list  0x80              ./packages/LVGL-latest/src/misc/lv_gc.o
LV_STYLE_GRID_CELL_ROW_SPAN
                    0x2               ./packages/LVGL-latest/src/layouts/grid/lv_grid.o
BPM                 0x4               ./applications/app_pulse_sensor.o
_lv_timer_act       0x4               ./packages/LVGL-latest/src/misc/lv_gc.o
LV_STYLE_GRID_COLUMN_ALIGN
                    0x2               ./packages/LVGL-latest/src/layouts/grid/lv_grid.o
LV_LAYOUT_FLEX      0x2               ./packages/LVGL-latest/src/layouts/flex/lv_flex.o
_lv_img_decoder_ll  0xc               ./packages/LVGL-latest/src/misc/lv_gc.o
LV_STYLE_FLEX_GROW  0x2               ./packages/LVGL-latest/src/layouts/flex/lv_flex.o
_subs_ll            0xc               ./packages/LVGL-latest/src/misc/lv_gc.o
rt_thread_priority_table
                    0x100             ./rt-thread/src/scheduler.o
tx_buff             0x1dc4            ./libraries/GD32F4xx_Firmware_Library/GD32F4xx_standard_peripheral/Source/gd32f4xx_enet.o
rt_object_put_hook  0x4               ./rt-thread/src/object.o
_lv_layout_list     0x4               ./packages/LVGL-latest/src/misc/lv_gc.o
_lv_anim_ll         0xc               ./packages/LVGL-latest/src/misc/lv_gc.o
_lv_grad_cache_mem  0x4               ./packages/LVGL-latest/src/misc/lv_gc.o
Signal              0x4               ./applications/app_pulse_sensor.o
rt_thread_switch_interrupt_flag
                    0x4               ./rt-thread/libcpu/arm/cortex-m4/cpuport.o
dma_current_rxdesc  0x4               ./libraries/GD32F4xx_Firmware_Library/GD32F4xx_standard_peripheral/Source/gd32f4xx_enet.o
LV_STYLE_GRID_CELL_COLUMN_POS
                    0x2               ./packages/LVGL-latest/src/layouts/grid/lv_grid.o
_lv_theme_basic_styles
                    0x4               ./packages/LVGL-latest/src/misc/lv_gc.o
LV_STYLE_FLEX_MAIN_PLACE
                    0x2               ./packages/LVGL-latest/src/layouts/flex/lv_flex.o
LV_STYLE_GRID_ROW_DSC_ARRAY
                    0x2               ./packages/LVGL-latest/src/layouts/grid/lv_grid.o
txdesc_tab          0x50              ./libraries/GD32F4xx_Firmware_Library/GD32F4xx_standard_peripheral/Source/gd32f4xx_enet.o
dma_current_txdesc  0x4               ./libraries/GD32F4xx_Firmware_Library/GD32F4xx_standard_peripheral/Source/gd32f4xx_enet.o
LV_STYLE_GRID_CELL_X_ALIGN
                    0x2               ./packages/LVGL-latest/src/layouts/grid/lv_grid.o
_lv_group_ll        0xc               ./packages/LVGL-latest/src/misc/lv_gc.o
LV_STYLE_GRID_COLUMN_DSC_ARRAY
                    0x2               ./packages/LVGL-latest/src/layouts/grid/lv_grid.o
rt_object_trytake_hook
                    0x4               ./rt-thread/src/object.o
rt_object_take_hook
                    0x4               ./rt-thread/src/object.o
rt_interrupt_to_thread
                    0x4               ./rt-thread/libcpu/arm/cortex-m4/cpuport.o
_lv_indev_ll        0xc               ./packages/LVGL-latest/src/misc/lv_gc.o

Discarded input sections

 .text          0x00000000        0x0 d:/rt-threadstudio/repo/extract/toolchain_support_packages/arm/gnu_tools_for_arm_embedded_processors/5.4.1/bin/../lib/gcc/arm-none-eabi/5.4.1/armv7e-m/fpu/crti.o
 .data          0x00000000        0x0 d:/rt-threadstudio/repo/extract/toolchain_support_packages/arm/gnu_tools_for_arm_embedded_processors/5.4.1/bin/../lib/gcc/arm-none-eabi/5.4.1/armv7e-m/fpu/crti.o
 .bss           0x00000000        0x0 d:/rt-threadstudio/repo/extract/toolchain_support_packages/arm/gnu_tools_for_arm_embedded_processors/5.4.1/bin/../lib/gcc/arm-none-eabi/5.4.1/armv7e-m/fpu/crti.o
 .text          0x00000000       0x5c d:/rt-threadstudio/repo/extract/toolchain_support_packages/arm/gnu_tools_for_arm_embedded_processors/5.4.1/bin/../lib/gcc/arm-none-eabi/5.4.1/armv7e-m/fpu/crtbegin.o
 .data          0x00000000        0x4 d:/rt-threadstudio/repo/extract/toolchain_support_packages/arm/gnu_tools_for_arm_embedded_processors/5.4.1/bin/../lib/gcc/arm-none-eabi/5.4.1/armv7e-m/fpu/crtbegin.o
 .bss           0x00000000       0x1c d:/rt-threadstudio/repo/extract/toolchain_support_packages/arm/gnu_tools_for_arm_embedded_processors/5.4.1/bin/../lib/gcc/arm-none-eabi/5.4.1/armv7e-m/fpu/crtbegin.o
 .init_array    0x00000000        0x4 d:/rt-threadstudio/repo/extract/toolchain_support_packages/arm/gnu_tools_for_arm_embedded_processors/5.4.1/bin/../lib/gcc/arm-none-eabi/5.4.1/armv7e-m/fpu/crtbegin.o
 .fini_array    0x00000000        0x4 d:/rt-threadstudio/repo/extract/toolchain_support_packages/arm/gnu_tools_for_arm_embedded_processors/5.4.1/bin/../lib/gcc/arm-none-eabi/5.4.1/armv7e-m/fpu/crtbegin.o
 .eh_frame      0x00000000        0x0 d:/rt-threadstudio/repo/extract/toolchain_support_packages/arm/gnu_tools_for_arm_embedded_processors/5.4.1/bin/../lib/gcc/arm-none-eabi/5.4.1/armv7e-m/fpu/crtbegin.o
 .jcr           0x00000000        0x0 d:/rt-threadstudio/repo/extract/toolchain_support_packages/arm/gnu_tools_for_arm_embedded_processors/5.4.1/bin/../lib/gcc/arm-none-eabi/5.4.1/armv7e-m/fpu/crtbegin.o
 .ARM.attributes
                0x00000000       0x34 d:/rt-threadstudio/repo/extract/toolchain_support_packages/arm/gnu_tools_for_arm_embedded_processors/5.4.1/bin/../lib/gcc/arm-none-eabi/5.4.1/armv7e-m/fpu/crtbegin.o
 .text          0x00000000       0x74 d:/rt-threadstudio/repo/extract/toolchain_support_packages/arm/gnu_tools_for_arm_embedded_processors/5.4.1/bin/../lib/gcc/arm-none-eabi/5.4.1/../../../../arm-none-eabi/lib/armv7e-m/fpu/crt0.o
 .data          0x00000000        0x0 d:/rt-threadstudio/repo/extract/toolchain_support_packages/arm/gnu_tools_for_arm_embedded_processors/5.4.1/bin/../lib/gcc/arm-none-eabi/5.4.1/../../../../arm-none-eabi/lib/armv7e-m/fpu/crt0.o
 .bss           0x00000000        0x0 d:/rt-threadstudio/repo/extract/toolchain_support_packages/arm/gnu_tools_for_arm_embedded_processors/5.4.1/bin/../lib/gcc/arm-none-eabi/5.4.1/../../../../arm-none-eabi/lib/armv7e-m/fpu/crt0.o
 .ARM.extab     0x00000000        0x0 d:/rt-threadstudio/repo/extract/toolchain_support_packages/arm/gnu_tools_for_arm_embedded_processors/5.4.1/bin/../lib/gcc/arm-none-eabi/5.4.1/../../../../arm-none-eabi/lib/armv7e-m/fpu/crt0.o
 .ARM.exidx     0x00000000        0x8 d:/rt-threadstudio/repo/extract/toolchain_support_packages/arm/gnu_tools_for_arm_embedded_processors/5.4.1/bin/../lib/gcc/arm-none-eabi/5.4.1/../../../../arm-none-eabi/lib/armv7e-m/fpu/crt0.o
 .ARM.attributes
Memory Configuration

Name             Origin             Length             Attributes
CODE             0x08000000         0x00300000         xr
DATA             0x20000000         0x00030000         rw
*default*        0x00000000         0xffffffff

Linker script and memory map

LOAD d:/rt-threadstudio/repo/extract/toolchain_support_packages/arm/gnu_tools_for_arm_embedded_processors/5.4.1/bin/../lib/gcc/arm-none-eabi/5.4.1/armv7e-m/fpu/crti.o
LOAD d:/rt-threadstudio/repo/extract/toolchain_support_packages/arm/gnu_tools_for_arm_embedded_processors/5.4.1/bin/../lib/gcc/arm-none-eabi/5.4.1/armv7e-m/fpu/crtbegin.o
LOAD d:/rt-threadstudio/repo/extract/toolchain_support_packages/arm/gnu_tools_for_arm_embedded_processors/5.4.1/bin/../lib/gcc/arm-none-eabi/5.4.1/../../../../arm-none-eabi/lib/armv7e-m/fpu/crt0.o
LOAD ./rt-thread/src/clock.o
LOAD ./rt-thread/src/components.o
LOAD ./rt-thread/src/device.o
LOAD ./rt-thread/src/idle.o
LOAD ./rt-thread/src/ipc.o
LOAD ./rt-thread/src/irq.o
LOAD ./rt-thread/src/kservice.o
LOAD ./rt-thread/src/mem.o
LOAD ./rt-thread/src/mempool.o
LOAD ./rt-thread/src/object.o
LOAD ./rt-thread/src/scheduler.o
LOAD ./rt-thread/src/thread.o
LOAD ./rt-thread/src/timer.o
LOAD ./rt-thread/libcpu/arm/cortex-m4/context_gcc.o
LOAD ./rt-thread/libcpu/arm/cortex-m4/cpuport.o
LOAD ./rt-thread/libcpu/arm/common/backtrace.o
LOAD ./rt-thread/libcpu/arm/common/div0.o
LOAD ./rt-thread/libcpu/arm/common/showmem.o
LOAD ./rt-thread/components/libc/compilers/newlib/syscalls.o
LOAD ./rt-thread/components/libc/compilers/common/cctype.o
LOAD ./rt-thread/components/libc/compilers/common/cstdio.o
LOAD ./rt-thread/components/libc/compilers/common/cstdlib.o
LOAD ./rt-thread/components/libc/compilers/common/cstring.o
LOAD ./rt-thread/components/libc/compilers/common/ctime.o
LOAD ./rt-thread/components/libc/compilers/common/cwchar.o
LOAD ./rt-thread/components/finsh/cmd.o
LOAD ./rt-thread/components/finsh/msh.o
LOAD ./rt-thread/components/finsh/msh_parse.o
LOAD ./rt-thread/components/finsh/shell.o
LOAD ./rt-thread/components/drivers/serial/serial.o
LOAD ./rt-thread/components/drivers/misc/pin.o
LOAD ./rt-thread/components/drivers/ipc/completion.o
LOAD ./rt-thread/components/drivers/ipc/dataqueue.o
LOAD ./rt-thread/components/drivers/ipc/pipe.o
LOAD ./rt-thread/components/drivers/ipc/ringblk_buf.o
LOAD ./rt-thread/components/drivers/ipc/ringbuffer.o
LOAD ./rt-thread/components/drivers/ipc/waitqueue.o
LOAD ./rt-thread/components/drivers/ipc/workqueue.o
LOAD ./rt-thread/components/drivers/i2c/i2c-bit-ops.o
LOAD ./rt-thread/components/drivers/i2c/i2c_core.o
LOAD ./rt-thread/components/drivers/i2c/i2c_dev.o
LOAD ./packages/LVGL-latest/src/widgets/win/lv_win.o
LOAD ./packages/LVGL-latest/src/widgets/tileview/lv_tileview.o
LOAD ./packages/LVGL-latest/src/widgets/textarea/lv_textarea.o
LOAD ./packages/LVGL-latest/src/widgets/tabview/lv_tabview.o
LOAD ./packages/LVGL-latest/src/widgets/table/lv_table.o
LOAD ./packages/LVGL-latest/src/widgets/switch/lv_switch.o
LOAD ./packages/LVGL-latest/src/widgets/spinner/lv_spinner.o
LOAD ./packages/LVGL-latest/src/widgets/spinbox/lv_spinbox.o
LOAD ./packages/LVGL-latest/src/widgets/span/lv_span.o
LOAD ./packages/LVGL-latest/src/widgets/slider/lv_slider.o
LOAD ./packages/LVGL-latest/src/widgets/roller/lv_roller.o
LOAD ./packages/LVGL-latest/src/widgets/objx_templ/lv_objx_templ.o
LOAD ./packages/LVGL-latest/src/widgets/msgbox/lv_msgbox.o
LOAD ./packages/LVGL-latest/src/widgets/meter/lv_meter.o
LOAD ./packages/LVGL-latest/src/widgets/menu/lv_menu.o
LOAD ./packages/LVGL-latest/src/widgets/list/lv_list.o
LOAD ./packages/LVGL-latest/src/widgets/line/lv_line.o
LOAD ./packages/LVGL-latest/src/widgets/led/lv_led.o
LOAD ./packages/LVGL-latest/src/widgets/label/lv_label.o
LOAD ./packages/LVGL-latest/src/widgets/keyboard/lv_keyboard.o
LOAD ./packages/LVGL-latest/src/widgets/imgbtn/lv_imgbtn.o
LOAD ./packages/LVGL-latest/src/widgets/img/lv_img.o
LOAD ./packages/LVGL-latest/src/widgets/dropdown/lv_dropdown.o
LOAD ./packages/LVGL-latest/src/widgets/colorwheel/lv_colorwheel.o
LOAD ./packages/LVGL-latest/src/widgets/checkbox/lv_checkbox.o
LOAD ./packages/LVGL-latest/src/widgets/chart/lv_chart.o
LOAD ./packages/LVGL-latest/src/widgets/canvas/lv_canvas.o
LOAD ./packages/LVGL-latest/src/widgets/calendar/lv_calendar.o
LOAD ./packages/LVGL-latest/src/widgets/calendar/lv_calendar_header_arrow.o
LOAD ./packages/LVGL-latest/src/widgets/calendar/lv_calendar_header_dropdown.o
LOAD ./packages/LVGL-latest/src/widgets/btnmatrix/lv_btnmatrix.o
LOAD ./packages/LVGL-latest/src/widgets/btn/lv_btn.o
LOAD ./packages/LVGL-latest/src/widgets/bar/lv_bar.o
LOAD ./packages/LVGL-latest/src/widgets/arc/lv_arc.o
LOAD ./packages/LVGL-latest/src/widgets/animimg/lv_animimg.o
LOAD ./packages/LVGL-latest/src/themes/mono/lv_theme_mono.o
LOAD ./packages/LVGL-latest/src/themes/default/lv_theme_default.o
LOAD ./packages/LVGL-latest/src/themes/basic/lv_theme_basic.o
LOAD ./packages/LVGL-latest/src/others/snapshot/lv_snapshot.o
LOAD ./packages/LVGL-latest/src/others/msg/lv_msg.o
LOAD ./packages/LVGL-latest/src/others/monkey/lv_monkey.o
LOAD ./packages/LVGL-latest/src/others/imgfont/lv_imgfont.o
LOAD ./packages/LVGL-latest/src/others/ime/lv_ime_pinyin.o
LOAD ./packages/LVGL-latest/src/others/gridnav/lv_gridnav.o
LOAD ./packages/LVGL-latest/src/others/fragment/lv_fragment.o
LOAD ./packages/LVGL-latest/src/others/fragment/lv_fragment_manager.o
LOAD ./packages/LVGL-latest/src/others/file_explorer/lv_file_explorer.o
LOAD ./packages/LVGL-latest/src/misc/lv_anim.o
LOAD ./packages/LVGL-latest/src/misc/lv_anim_timeline.o
LOAD ./packages/LVGL-latest/src/misc/lv_area.o
LOAD ./packages/LVGL-latest/src/misc/lv_async.o
LOAD ./packages/LVGL-latest/src/misc/lv_bidi.o
LOAD ./packages/LVGL-latest/src/misc/lv_color.o
LOAD ./packages/LVGL-latest/src/misc/lv_fs.o
LOAD ./packages/LVGL-latest/src/misc/lv_gc.o
LOAD ./packages/LVGL-latest/src/misc/lv_ll.o
LOAD ./packages/LVGL-latest/src/misc/lv_log.o
LOAD ./packages/LVGL-latest/src/misc/lv_lru.o
LOAD ./packages/LVGL-latest/src/misc/lv_malloc_builtin.o
LOAD ./packages/LVGL-latest/src/misc/lv_math.o
LOAD ./packages/LVGL-latest/src/misc/lv_mem.o
LOAD ./packages/LVGL-latest/src/misc/lv_memcpy_builtin.o
LOAD ./packages/LVGL-latest/src/misc/lv_printf.o
LOAD ./packages/LVGL-latest/src/misc/lv_style.o
LOAD ./packages/LVGL-latest/src/misc/lv_style_gen.o
LOAD ./packages/LVGL-latest/src/misc/lv_templ.o
LOAD ./packages/LVGL-latest/src/misc/lv_timer.o
LOAD ./packages/LVGL-latest/src/misc/lv_tlsf.o
LOAD ./packages/LVGL-latest/src/misc/lv_txt.o
LOAD ./packages/LVGL-latest/src/misc/lv_txt_ap.o
LOAD ./packages/LVGL-latest/src/misc/lv_utils.o
LOAD ./packages/LVGL-latest/src/libs/tiny_ttf/lv_tiny_ttf.o
LOAD ./packages/LVGL-latest/src/libs/sjpg/lv_sjpg.o
LOAD ./packages/LVGL-latest/src/libs/sjpg/tjpgd.o
LOAD ./packages/LVGL-latest/src/libs/rlottie/lv_rlottie.o
LOAD ./packages/LVGL-latest/src/libs/qrcode/lv_qrcode.o
LOAD ./packages/LVGL-latest/src/libs/qrcode/qrcodegen.o
LOAD ./packages/LVGL-latest/src/libs/png/lodepng.o
LOAD ./packages/LVGL-latest/src/libs/png/lv_png.o
LOAD ./packages/LVGL-latest/src/libs/gif/gifdec.o
LOAD ./packages/LVGL-latest/src/libs/gif/lv_gif.o
LOAD ./packages/LVGL-latest/src/libs/fsdrv/lv_fs_cbfs.o
LOAD ./packages/LVGL-latest/src/libs/fsdrv/lv_fs_fatfs.o
LOAD ./packages/LVGL-latest/src/libs/fsdrv/lv_fs_posix.o
LOAD ./packages/LVGL-latest/src/libs/fsdrv/lv_fs_stdio.o
LOAD ./packages/LVGL-latest/src/libs/fsdrv/lv_fs_win32.o
LOAD ./packages/LVGL-latest/src/libs/freetype/lv_freetype.o
LOAD ./packages/LVGL-latest/src/libs/freetype/lv_ftsystem.o
LOAD ./packages/LVGL-latest/src/libs/ffmpeg/lv_ffmpeg.o
LOAD ./packages/LVGL-latest/src/libs/bmp/lv_bmp.o
LOAD ./packages/LVGL-latest/src/libs/barcode/code128.o
LOAD ./packages/LVGL-latest/src/libs/barcode/lv_barcode.o
LOAD ./packages/LVGL-latest/src/layouts/grid/lv_grid.o
LOAD ./packages/LVGL-latest/src/layouts/flex/lv_flex.o
LOAD ./packages/LVGL-latest/src/hal/lv_hal_disp.o
LOAD ./packages/LVGL-latest/src/hal/lv_hal_indev.o
LOAD ./packages/LVGL-latest/src/hal/lv_hal_tick.o
LOAD ./packages/LVGL-latest/src/font/lv_font.o
LOAD ./packages/LVGL-latest/src/font/lv_font_dejavu_16_persian_hebrew.o
LOAD ./packages/LVGL-latest/src/font/lv_font_fmt_txt.o
LOAD ./packages/LVGL-latest/src/font/lv_font_loader.o
LOAD ./packages/LVGL-latest/src/font/lv_font_montserrat_10.o
LOAD ./packages/LVGL-latest/src/font/lv_font_montserrat_12.o
LOAD ./packages/LVGL-latest/src/font/lv_font_montserrat_12_subpx.o
LOAD ./packages/LVGL-latest/src/font/lv_font_montserrat_14.o
LOAD ./packages/LVGL-latest/src/font/lv_font_montserrat_16.o
LOAD ./packages/LVGL-latest/src/font/lv_font_montserrat_18.o
LOAD ./packages/LVGL-latest/src/font/lv_font_montserrat_20.o
LOAD ./packages/LVGL-latest/src/font/lv_font_montserrat_22.o
LOAD ./packages/LVGL-latest/src/font/lv_font_montserrat_24.o
LOAD ./packages/LVGL-latest/src/font/lv_font_montserrat_26.o
LOAD ./packages/LVGL-latest/src/font/lv_font_montserrat_28.o
LOAD ./packages/LVGL-latest/src/font/lv_font_montserrat_28_compressed.o
LOAD ./packages/LVGL-latest/src/font/lv_font_montserrat_30.o
LOAD ./packages/LVGL-latest/src/font/lv_font_montserrat_32.o
LOAD ./packages/LVGL-latest/src/font/lv_font_montserrat_34.o
LOAD ./packages/LVGL-latest/src/font/lv_font_montserrat_36.o
LOAD ./packages/LVGL-latest/src/font/lv_font_montserrat_38.o
LOAD ./packages/LVGL-latest/src/font/lv_font_montserrat_40.o
LOAD ./packages/LVGL-latest/src/font/lv_font_montserrat_42.o
LOAD ./packages/LVGL-latest/src/font/lv_font_montserrat_44.o
LOAD ./packages/LVGL-latest/src/font/lv_font_montserrat_46.o
LOAD ./packages/LVGL-latest/src/font/lv_font_montserrat_48.o
LOAD ./packages/LVGL-latest/src/font/lv_font_montserrat_8.o
LOAD ./packages/LVGL-latest/src/font/lv_font_simsun_16_cjk.o
LOAD ./packages/LVGL-latest/src/font/lv_font_unscii_16.o
LOAD ./packages/LVGL-latest/src/font/lv_font_unscii_8.o
LOAD ./packages/LVGL-latest/src/draw/swm341_dma2d/lv_gpu_swm341_dma2d.o
LOAD ./packages/LVGL-latest/src/draw/sw/lv_draw_sw.o
LOAD ./packages/LVGL-latest/src/draw/sw/lv_draw_sw_arc.o
LOAD ./packages/LVGL-latest/src/draw/sw/lv_draw_sw_blend.o
LOAD ./packages/LVGL-latest/src/draw/sw/lv_draw_sw_dither.o
LOAD ./packages/LVGL-latest/src/draw/sw/lv_draw_sw_gradient.o
LOAD ./packages/LVGL-latest/src/draw/sw/lv_draw_sw_img.o
LOAD ./packages/LVGL-latest/src/draw/sw/lv_draw_sw_layer.o
LOAD ./packages/LVGL-latest/src/draw/sw/lv_draw_sw_letter.o
LOAD ./packages/LVGL-latest/src/draw/sw/lv_draw_sw_line.o
LOAD ./packages/LVGL-latest/src/draw/sw/lv_draw_sw_polygon.o
LOAD ./packages/LVGL-latest/src/draw/sw/lv_draw_sw_rect.o
LOAD ./packages/LVGL-latest/src/draw/sw/lv_draw_sw_transform.o
LOAD ./packages/LVGL-latest/src/draw/stm32_dma2d/lv_gpu_stm32_dma2d.o
LOAD ./packages/LVGL-latest/src/draw/sdl/lv_draw_sdl.o
LOAD ./packages/LVGL-latest/src/draw/sdl/lv_draw_sdl_arc.o
LOAD ./packages/LVGL-latest/src/draw/sdl/lv_draw_sdl_bg.o
LOAD ./packages/LVGL-latest/src/draw/sdl/lv_draw_sdl_composite.o
LOAD ./packages/LVGL-latest/src/draw/sdl/lv_draw_sdl_img.o
LOAD ./packages/LVGL-latest/src/draw/sdl/lv_draw_sdl_label.o
LOAD ./packages/LVGL-latest/src/draw/sdl/lv_draw_sdl_layer.o
LOAD ./packages/LVGL-latest/src/draw/sdl/lv_draw_sdl_line.o
LOAD ./packages/LVGL-latest/src/draw/sdl/lv_draw_sdl_mask.o
LOAD ./packages/LVGL-latest/src/draw/sdl/lv_draw_sdl_polygon.o
LOAD ./packages/LVGL-latest/src/draw/sdl/lv_draw_sdl_rect.o
LOAD ./packages/LVGL-latest/src/draw/sdl/lv_draw_sdl_stack_blur.o
LOAD ./packages/LVGL-latest/src/draw/sdl/lv_draw_sdl_texture_cache.o
LOAD ./packages/LVGL-latest/src/draw/sdl/lv_draw_sdl_utils.o
LOAD ./packages/LVGL-latest/src/draw/nxp/vglite/lv_draw_vglite_arc.o
LOAD ./packages/LVGL-latest/src/draw/nxp/vglite/lv_draw_vglite_blend.o
LOAD ./packages/LVGL-latest/src/draw/nxp/vglite/lv_draw_vglite_rect.o
LOAD ./packages/LVGL-latest/src/draw/nxp/vglite/lv_gpu_nxp_vglite.o
LOAD ./packages/LVGL-latest/src/draw/nxp/pxp/lv_draw_pxp_blend.o
LOAD ./packages/LVGL-latest/src/draw/nxp/pxp/lv_gpu_nxp_pxp.o
LOAD ./packages/LVGL-latest/src/draw/nxp/pxp/lv_gpu_nxp_pxp_osa.o
LOAD ./packages/LVGL-latest/src/draw/nxp/lv_gpu_nxp.o
LOAD ./packages/LVGL-latest/src/draw/gd32_ipa/lv_gpu_gd32_ipa.o
LOAD ./packages/LVGL-latest/src/draw/arm2d/lv_gpu_arm2d.o
LOAD ./packages/LVGL-latest/src/draw/lv_draw.o
LOAD ./packages/LVGL-latest/src/draw/lv_draw_arc.o
LOAD ./packages/LVGL-latest/src/draw/lv_draw_img.o
LOAD ./packages/LVGL-latest/src/draw/lv_draw_label.o
LOAD ./packages/LVGL-latest/src/draw/lv_draw_layer.o
LOAD ./packages/LVGL-latest/src/draw/lv_draw_line.o
LOAD ./packages/LVGL-latest/src/draw/lv_draw_mask.o
LOAD ./packages/LVGL-latest/src/draw/lv_draw_rect.o
LOAD ./packages/LVGL-latest/src/draw/lv_draw_transform.o
LOAD ./packages/LVGL-latest/src/draw/lv_draw_triangle.o
LOAD ./packages/LVGL-latest/src/draw/lv_img_buf.o
LOAD ./packages/LVGL-latest/src/draw/lv_img_cache.o
LOAD ./packages/LVGL-latest/src/draw/lv_img_cache_builtin.o
LOAD ./packages/LVGL-latest/src/draw/lv_img_decoder.o
LOAD ./packages/LVGL-latest/src/core/lv_disp.o
LOAD ./packages/LVGL-latest/src/core/lv_event.o
LOAD ./packages/LVGL-latest/src/core/lv_group.o
LOAD ./packages/LVGL-latest/src/core/lv_indev.o
LOAD ./packages/LVGL-latest/src/core/lv_indev_scroll.o
LOAD ./packages/LVGL-latest/src/core/lv_obj.o
LOAD ./packages/LVGL-latest/src/core/lv_obj_class.o
LOAD ./packages/LVGL-latest/src/core/lv_obj_draw.o
LOAD ./packages/LVGL-latest/src/core/lv_obj_pos.o
LOAD ./packages/LVGL-latest/src/core/lv_obj_scroll.o
LOAD ./packages/LVGL-latest/src/core/lv_obj_style.o
LOAD ./packages/LVGL-latest/src/core/lv_obj_style_gen.o
LOAD ./packages/LVGL-latest/src/core/lv_obj_tree.o
LOAD ./packages/LVGL-latest/src/core/lv_refr.o
LOAD ./packages/LVGL-latest/src/core/lv_theme.o
LOAD ./packages/LVGL-latest/env_support/rt-thread/lv_rt_thread_port.o
LOAD ./libraries/gd32_drivers/drv_gpio.o
LOAD ./libraries/gd32_drivers/drv_soft_i2c.o
LOAD ./libraries/gd32_drivers/drv_usart.o
LOAD ./libraries/GD32F4xx_Firmware_Library/GD32F4xx_standard_peripheral/Source/gd32f4xx_adc.o
LOAD ./libraries/GD32F4xx_Firmware_Library/GD32F4xx_standard_peripheral/Source/gd32f4xx_can.o
LOAD ./libraries/GD32F4xx_Firmware_Library/GD32F4xx_standard_peripheral/Source/gd32f4xx_crc.o
LOAD ./libraries/GD32F4xx_Firmware_Library/GD32F4xx_standard_peripheral/Source/gd32f4xx_ctc.o
LOAD ./libraries/GD32F4xx_Firmware_Library/GD32F4xx_standard_peripheral/Source/gd32f4xx_dac.o
LOAD ./libraries/GD32F4xx_Firmware_Library/GD32F4xx_standard_peripheral/Source/gd32f4xx_dbg.o
LOAD ./libraries/GD32F4xx_Firmware_Library/GD32F4xx_standard_peripheral/Source/gd32f4xx_dci.o
LOAD ./libraries/GD32F4xx_Firmware_Library/GD32F4xx_standard_peripheral/Source/gd32f4xx_dma.o
LOAD ./libraries/GD32F4xx_Firmware_Library/GD32F4xx_standard_peripheral/Source/gd32f4xx_enet.o
LOAD ./libraries/GD32F4xx_Firmware_Library/GD32F4xx_standard_peripheral/Source/gd32f4xx_exmc.o
LOAD ./libraries/GD32F4xx_Firmware_Library/GD32F4xx_standard_peripheral/Source/gd32f4xx_exti.o
LOAD ./libraries/GD32F4xx_Firmware_Library/GD32F4xx_standard_peripheral/Source/gd32f4xx_fmc.o
LOAD ./libraries/GD32F4xx_Firmware_Library/GD32F4xx_standard_peripheral/Source/gd32f4xx_fwdgt.o
LOAD ./libraries/GD32F4xx_Firmware_Library/GD32F4xx_standard_peripheral/Source/gd32f4xx_gpio.o
LOAD ./libraries/GD32F4xx_Firmware_Library/GD32F4xx_standard_peripheral/Source/gd32f4xx_i2c.o
LOAD ./libraries/GD32F4xx_Firmware_Library/GD32F4xx_standard_peripheral/Source/gd32f4xx_ipa.o
LOAD ./libraries/GD32F4xx_Firmware_Library/GD32F4xx_standard_peripheral/Source/gd32f4xx_iref.o
LOAD ./libraries/GD32F4xx_Firmware_Library/GD32F4xx_standard_peripheral/Source/gd32f4xx_misc.o
LOAD ./libraries/GD32F4xx_Firmware_Library/GD32F4xx_standard_peripheral/Source/gd32f4xx_pmu.o
LOAD ./libraries/GD32F4xx_Firmware_Library/GD32F4xx_standard_peripheral/Source/gd32f4xx_rcu.o
LOAD ./libraries/GD32F4xx_Firmware_Library/GD32F4xx_standard_peripheral/Source/gd32f4xx_rtc.o
LOAD ./libraries/GD32F4xx_Firmware_Library/GD32F4xx_standard_peripheral/Source/gd32f4xx_sdio.o
LOAD ./libraries/GD32F4xx_Firmware_Library/GD32F4xx_standard_peripheral/Source/gd32f4xx_spi.o
LOAD ./libraries/GD32F4xx_Firmware_Library/GD32F4xx_standard_peripheral/Source/gd32f4xx_syscfg.o
LOAD ./libraries/GD32F4xx_Firmware_Library/GD32F4xx_standard_peripheral/Source/gd32f4xx_timer.o
LOAD ./libraries/GD32F4xx_Firmware_Library/GD32F4xx_standard_peripheral/Source/gd32f4xx_tli.o
LOAD ./libraries/GD32F4xx_Firmware_Library/GD32F4xx_standard_peripheral/Source/gd32f4xx_trng.o
LOAD ./libraries/GD32F4xx_Firmware_Library/GD32F4xx_standard_peripheral/Source/gd32f4xx_usart.o
LOAD ./libraries/GD32F4xx_Firmware_Library/GD32F4xx_standard_peripheral/Source/gd32f4xx_wwdgt.o
LOAD ./libraries/GD32F4xx_Firmware_Library/CMSIS/GD/GD32F4xx/Source/GCC/startup_gd32f4xx.o
LOAD ./libraries/GD32F4xx_Firmware_Library/CMSIS/GD/GD32F4xx/Source/system_gd32f4xx.o
LOAD ./board/board.o
LOAD ./applications/app_adc.o
LOAD ./applications/app_gui.o
LOAD ./applications/app_hw_i2c.o
LOAD ./applications/app_oled.o
LOAD ./applications/app_pulse_sensor.o
LOAD ./applications/app_tftlcd_drv.o
LOAD ./applications/lv_port_disp.o
LOAD ./applications/main.o
LOAD d:/rt-threadstudio/repo/extract/toolchain_support_packages/arm/gnu_tools_for_arm_embedded_processors/5.4.1/bin/../lib/gcc/arm-none-eabi/5.4.1/../../../../arm-none-eabi/lib/armv7e-m/fpu\libc.a
LOAD d:/rt-threadstudio/repo/extract/toolchain_support_packages/arm/gnu_tools_for_arm_embedded_processors/5.4.1/bin/../lib/gcc/arm-none-eabi/5.4.1/../../../../arm-none-eabi/lib/armv7e-m/fpu\libm.a
START GROUP
LOAD d:/rt-threadstudio/repo/extract/toolchain_support_packages/arm/gnu_tools_for_arm_embedded_processors/5.4.1/bin/../lib/gcc/arm-none-eabi/5.4.1/armv7e-m/fpu\libgcc.a
LOAD d:/rt-threadstudio/repo/extract/toolchain_support_packages/arm/gnu_tools_for_arm_embedded_processors/5.4.1/bin/../lib/gcc/arm-none-eabi/5.4.1/../../../../arm-none-eabi/lib/armv7e-m/fpu\libc.a
END GROUP
LOAD d:/rt-threadstudio/repo/extract/toolchain_support_packages/arm/gnu_tools_for_arm_embedded_processors/5.4.1/bin/../lib/gcc/arm-none-eabi/5.4.1/armv7e-m/fpu/crtend.o
LOAD d:/rt-threadstudio/repo/extract/toolchain_support_packages/arm/gnu_tools_for_arm_embedded_processors/5.4.1/bin/../lib/gcc/arm-none-eabi/5.4.1/armv7e-m/fpu/crtn.o
                0x00000200                _system_stack_size = 0x200

.text           0x08000000    0x159ec
                0x08000000                . = ALIGN (0x4)
                0x08000000                _stext = .
 *(.isr_vector)
 .isr_vector    0x08000000      0x1ac ./libraries/GD32F4xx_Firmware_Library/CMSIS/GD/GD32F4xx/Source/GCC/startup_gd32f4xx.o
                0x08000000                g_pfnVectors
                0x080001ac                . = ALIGN (0x4)
 *(.text)
 .text          0x080001ac      0x144 ./rt-thread/libcpu/arm/cortex-m4/context_gcc.o
                0x080001ac                rt_hw_interrupt_disable
                0x080001b4                rt_hw_interrupt_enable
                0x080001ba                rt_hw_context_switch
                0x080001ba                rt_hw_context_switch_interrupt
                0x080001da                PendSV_Handler
                0x08000246                rt_hw_context_switch_to
                0x08000294                rt_hw_interrupt_thread_switch
                0x08000298                HardFault_Handler
 .text          0x080002f0      0x134 d:/rt-threadstudio/repo/extract/toolchain_support_packages/arm/gnu_tools_for_arm_embedded_processors/5.4.1/bin/../lib/gcc/arm-none-eabi/5.4.1/../../../../arm-none-eabi/lib/armv7e-m/fpu\libc.a(lib_a-memcpy.o)
                0x080002f0                memcpy
 *fill*         0x08000424       0x1c 00000000
 .text          0x08000440      0x2dc d:/rt-threadstudio/repo/extract/toolchain_support_packages/arm/gnu_tools_for_arm_embedded_processors/5.4.1/bin/../lib/gcc/arm-none-eabi/5.4.1/../../../../arm-none-eabi/lib/armv7e-m/fpu\libc.a(lib_a-strcmp.o)
                0x08000448                strcmp
 *fill*         0x0800071c       0x24 00000000
 .text          0x08000740       0xdc d:/rt-threadstudio/repo/extract/toolchain_support_packages/arm/gnu_tools_for_arm_embedded_processors/5.4.1/bin/../lib/gcc/arm-none-eabi/5.4.1/../../../../arm-none-eabi/lib/armv7e-m/fpu\libc.a(lib_a-strlen.o)
                0x08000740                strlen
 *fill*         0x0800081c        0x4 00000000
 .text          0x08000820       0xa0 d:/rt-threadstudio/repo/extract/toolchain_support_packages/arm/gnu_tools_for_arm_embedded_processors/5.4.1/bin/../lib/gcc/arm-none-eabi/5.4.1/../../../../arm-none-eabi/lib/armv7e-m/fpu\libc.a(lib_a-memchr.o)
                0x08000820                memchr
 .text          0x080008c0      0x370 d:/rt-threadstudio/repo/extract/toolchain_support_packages/arm/gnu_tools_for_arm_embedded_processors/5.4.1/bin/../lib/gcc/arm-none-eabi/5.4.1/armv7e-m/fpu\libgcc.a(_arm_addsubdf3.o)
                0x080008c0                __aeabi_drsub
                0x080008c8                __subdf3
                0x080008c8                __aeabi_dsub
                0x080008cc                __aeabi_dadd
                0x080008cc                __adddf3
                0x08000b44                __floatunsidf
                0x08000b44                __aeabi_ui2d
                0x08000b64                __aeabi_i2d
                0x08000b64                __floatsidf
                0x08000b88                __extendsfdf2
                0x08000b88                __aeabi_f2d
                0x08000bc4                __floatundidf
                0x08000bc4                __aeabi_ul2d
                0x08000bd4                __aeabi_l2d
                0x08000bd4                __floatdidf
 .text          0x08000c30      0x424 d:/rt-threadstudio/repo/extract/toolchain_support_packages/arm/gnu_tools_for_arm_embedded_processors/5.4.1/bin/../lib/gcc/arm-none-eabi/5.4.1/armv7e-m/fpu\libgcc.a(_arm_muldivdf3.o)
                0x08000c30                __aeabi_dmul
                0x08000c30                __muldf3
                0x08000e84                __divdf3
                0x08000e84                __aeabi_ddiv
 .text          0x08001054      0x110 d:/rt-threadstudio/repo/extract/toolchain_support_packages/arm/gnu_tools_for_arm_embedded_processors/5.4.1/bin/../lib/gcc/arm-none-eabi/5.4.1/armv7e-m/fpu\libgcc.a(_arm_cmpdf2.o)
                0x08001054                __gtdf2
                0x08001054                __gedf2
                0x0800105c                __ltdf2
                0x0800105c                __ledf2
                0x08001064                __nedf2
                0x08001064                __cmpdf2
                0x08001064                __eqdf2
                0x080010e0                __aeabi_cdrcmple
                0x080010f0                __aeabi_cdcmple
                0x080010f0                __aeabi_cdcmpeq
                0x08001100                __aeabi_dcmpeq
                0x08001114                __aeabi_dcmplt
                0x08001128                __aeabi_dcmple
                0x0800113c                __aeabi_dcmpge
                0x08001150                __aeabi_dcmpgt
 .text          0x08001164       0x2c d:/rt-threadstudio/repo/extract/toolchain_support_packages/arm/gnu_tools_for_arm_embedded_processors/5.4.1/bin/../lib/gcc/arm-none-eabi/5.4.1/armv7e-m/fpu\libgcc.a(_arm_unorddf2.o)
                0x08001164                __unorddf2
                0x08001164                __aeabi_dcmpun
 .text          0x08001190       0x50 d:/rt-threadstudio/repo/extract/toolchain_support_packages/arm/gnu_tools_for_arm_embedded_processors/5.4.1/bin/../lib/gcc/arm-none-eabi/5.4.1/armv7e-m/fpu\libgcc.a(_arm_fixdfsi.o)
                0x08001190                __fixdfsi
                0x08001190                __aeabi_d2iz
 .text          0x080011e0       0x30 d:/rt-threadstudio/repo/extract/toolchain_support_packages/arm/gnu_tools_for_arm_embedded_processors/5.4.1/bin/../lib/gcc/arm-none-eabi/5.4.1/armv7e-m/fpu\libgcc.a(_aeabi_uldivmod.o)
                0x080011e0                __aeabi_uldivmod
 .text          0x08001210      0x2e4 d:/rt-threadstudio/repo/extract/toolchain_support_packages/arm/gnu_tools_for_arm_embedded_processors/5.4.1/bin/../lib/gcc/arm-none-eabi/5.4.1/armv7e-m/fpu\libgcc.a(_udivmoddi4.o)
                0x08001210                __udivmoddi4
 .text          0x080014f4        0x4 d:/rt-threadstudio/repo/extract/toolchain_support_packages/arm/gnu_tools_for_arm_embedded_processors/5.4.1/bin/../lib/gcc/arm-none-eabi/5.4.1/armv7e-m/fpu\libgcc.a(_dvmd_tls.o)
                0x080014f4                __aeabi_idiv0
                0x080014f4                __aeabi_ldiv0
 *(.text.*)
 .text.rt_tick_get
                0x080014f8       0x18 ./rt-thread/src/clock.o
                0x080014f8                rt_tick_get
 .text.rt_tick_increase
                0x08001510       0x7c ./rt-thread/src/clock.o
                0x08001510                rt_tick_increase
 .text.rt_tick_from_millisecond
                0x0800158c       0x74 ./rt-thread/src/clock.o
                0x0800158c                rt_tick_from_millisecond
 .text.rti_start
                0x08001600       0x10 ./rt-thread/src/components.o
 .text.rti_board_start
                0x08001610       0x10 ./rt-thread/src/components.o
 .text.rti_board_end
                0x08001620       0x10 ./rt-thread/src/components.o
 .text.rti_end  0x08001630       0x10 ./rt-thread/src/components.o
 .text.rt_components_board_init
                0x08001640       0x30 ./rt-thread/src/components.o
                0x08001640                rt_components_board_init
 .text.rt_components_init
                0x08001670       0x30 ./rt-thread/src/components.o
                0x08001670                rt_components_init
 .text.entry    0x080016a0       0x10 ./rt-thread/src/components.o
                0x080016a0                entry
 .text.main_thread_entry
                0x080016b0       0x18 ./rt-thread/src/components.o
                0x080016b0                main_thread_entry
 .text.rt_application_init
                0x080016c8       0x4c ./rt-thread/src/components.o
                0x080016c8                rt_application_init
 .text.rtthread_startup
                0x08001714       0x30 ./rt-thread/src/components.o
                0x08001714                rtthread_startup
 .text.rt_device_register
                0x08001744       0x54 ./rt-thread/src/device.o
                0x08001744                rt_device_register
 .text.rt_device_find
                0x08001798       0x1c ./rt-thread/src/device.o
                0x08001798                rt_device_find
 .text.rt_device_open
                0x080017b4      0x118 ./rt-thread/src/device.o
                0x080017b4                rt_device_open
 .text.rt_device_close
                0x080018cc       0x9c ./rt-thread/src/device.o
                0x080018cc                rt_device_close
 .text.rt_device_read
                0x08001968       0x88 ./rt-thread/src/device.o
                0x08001968                rt_device_read
 .text.rt_device_write
                0x080019f0       0x88 ./rt-thread/src/device.o
                0x080019f0                rt_device_write
 .text.rt_device_set_rx_indicate
                0x08001a78       0x54 ./rt-thread/src/device.o
                0x08001a78                rt_device_set_rx_indicate
 .text.rt_list_insert_after
                0x08001acc       0x34 ./rt-thread/src/idle.o
 .text.rt_list_remove
                0x08001b00       0x38 ./rt-thread/src/idle.o
 .text.rt_thread_defunct_enqueue
                0x08001b38       0x20 ./rt-thread/src/idle.o
                0x08001b38                rt_thread_defunct_enqueue
 .text.rt_thread_defunct_dequeue
                0x08001b58       0x44 ./rt-thread/src/idle.o
                0x08001b58                rt_thread_defunct_dequeue
 .text.rt_defunct_execute
                0x08001b9c       0x5c ./rt-thread/src/idle.o
 .text.rt_thread_idle_entry
                0x08001bf8       0x38 ./rt-thread/src/idle.o
 .text.rt_thread_idle_init
                0x08001c30       0x74 ./rt-thread/src/idle.o
                0x08001c30                rt_thread_idle_init
 .text.rt_list_init
                0x08001ca4       0x24 ./rt-thread/src/ipc.o
 .text.rt_list_insert_before
                0x08001cc8       0x34 ./rt-thread/src/ipc.o
 .text.rt_list_isempty
                0x08001cfc       0x24 ./rt-thread/src/ipc.o
 .text._ipc_object_init
                0x08001d20       0x1c ./rt-thread/src/ipc.o
 .text._ipc_list_suspend
                0x08001d3c       0xa4 ./rt-thread/src/ipc.o
 .text._ipc_list_resume
                0x08001de0       0x20 ./rt-thread/src/ipc.o
 .text.rt_sem_init
                0x08001e00       0x88 ./rt-thread/src/ipc.o
                0x08001e00                rt_sem_init
 .text.rt_sem_take
                0x08001e88      0x190 ./rt-thread/src/ipc.o
                0x08001e88                rt_sem_take
 .text.rt_sem_trytake
                0x08002018       0x1c ./rt-thread/src/ipc.o
                0x08002018                rt_sem_trytake
 .text.rt_sem_release
                0x08002034       0xc0 ./rt-thread/src/ipc.o
                0x08002034                rt_sem_release
 .text.rt_mutex_init
                0x080020f4       0x64 ./rt-thread/src/ipc.o
                0x080020f4                rt_mutex_init
 .text.rt_mutex_take
                0x08002158      0x21c ./rt-thread/src/ipc.o
                0x08002158                rt_mutex_take
 .text.rt_mutex_release
                0x08002374      0x1bc ./rt-thread/src/ipc.o
                0x08002374                rt_mutex_release
 .text.rt_interrupt_enter
                0x08002530       0x40 ./rt-thread/src/irq.o
                0x08002530                rt_interrupt_enter
 .text.rt_interrupt_leave
                0x08002570       0x40 ./rt-thread/src/irq.o
                0x08002570                rt_interrupt_leave
 .text.rt_interrupt_get_nest
                0x080025b0       0x28 ./rt-thread/src/irq.o
                0x080025b0                rt_interrupt_get_nest
 .text.rt_strerror
                0x080025d8       0x38 ./rt-thread/src/kservice.o
                0x080025d8                rt_strerror
 .text.rt_set_errno
                0x08002610       0x40 ./rt-thread/src/kservice.o
                0x08002610                rt_set_errno
 .text.rt_memset
                0x08002650       0xb8 ./rt-thread/src/kservice.o
                0x08002650                rt_memset
 .text.rt_memcpy
                0x08002708       0xd4 ./rt-thread/src/kservice.o
                0x08002708                rt_memcpy
 .text.rt_memmove
                0x080027dc       0x84 ./rt-thread/src/kservice.o
                0x080027dc                rt_memmove
 .text.rt_strncpy
                0x08002860       0x64 ./rt-thread/src/kservice.o
                0x08002860                rt_strncpy
 .text.rt_strncmp
                0x080028c4       0x54 ./rt-thread/src/kservice.o
                0x080028c4                rt_strncmp
 .text.rt_strcmp
                0x08002918       0x44 ./rt-thread/src/kservice.o
                0x08002918                rt_strcmp
 .text.rt_strlen
                0x0800295c       0x30 ./rt-thread/src/kservice.o
                0x0800295c                rt_strlen
 .text.rt_show_version
                0x0800298c       0x4c ./rt-thread/src/kservice.o
                0x0800298c                rt_show_version
 .text.divide   0x080029d8       0x68 ./rt-thread/src/kservice.o
 .text.skip_atoi
                0x08002a40       0x48 ./rt-thread/src/kservice.o
 .text.print_number
                0x08002a88      0x200 ./rt-thread/src/kservice.o
 .text.rt_vsnprintf
                0x08002c88      0x560 ./rt-thread/src/kservice.o
                0x08002c88                rt_vsnprintf
 .text.rt_vsprintf
                0x080031e8       0x24 ./rt-thread/src/kservice.o
                0x080031e8                rt_vsprintf
 .text.rt_sprintf
                0x0800320c       0x2c ./rt-thread/src/kservice.o
                0x0800320c                rt_sprintf
 .text.rt_console_get_device
                0x08003238       0x18 ./rt-thread/src/kservice.o
                0x08003238                rt_console_get_device
 .text.rt_console_set_device
                0x08003250       0x58 ./rt-thread/src/kservice.o
                0x08003250                rt_console_set_device
 .text.rt_hw_console_output
                0x080032a8       0x14 ./rt-thread/src/kservice.o
                0x080032a8                rt_hw_console_output
 .text.rt_kprintf
                0x080032bc       0x60 ./rt-thread/src/kservice.o
                0x080032bc                rt_kprintf
 .text._heap_lock_init
                0x0800331c       0x1c ./rt-thread/src/kservice.o
 .text._heap_lock
                0x08003338       0x28 ./rt-thread/src/kservice.o
 .text._heap_unlock
                0x08003360       0x40 ./rt-thread/src/kservice.o
 .text._smem_info
                0x080033a0       0x4c ./rt-thread/src/kservice.o
 .text.rt_system_heap_init
                0x080033ec       0x64 ./rt-thread/src/kservice.o
                0x080033ec                rt_system_heap_init
 .text.rt_malloc
                0x08003450       0x48 ./rt-thread/src/kservice.o
                0x08003450                rt_malloc
 .text.rt_realloc
                0x08003498       0x34 ./rt-thread/src/kservice.o
                0x08003498                rt_realloc
 .text.rt_calloc
                0x080034cc       0x3c ./rt-thread/src/kservice.o
                0x080034cc                rt_calloc
 .text.rt_free  0x08003508       0x40 ./rt-thread/src/kservice.o
                0x08003508                rt_free
 .text.rt_memory_info
                0x08003548       0x2c ./rt-thread/src/kservice.o
                0x08003548                rt_memory_info
 .text.__rt_ffs
                0x08003574       0x70 ./rt-thread/src/kservice.o
                0x08003574                __rt_ffs
 .text.rt_assert_handler
                0x080035e4       0x4c ./rt-thread/src/kservice.o
                0x080035e4                rt_assert_handler
 .text.plug_holes
                0x08003630       0xf4 ./rt-thread/src/mem.o
 .text.rt_smem_init
                0x08003724      0x104 ./rt-thread/src/mem.o
                0x08003724                rt_smem_init
 .text.rt_smem_alloc
                0x08003828      0x26c ./rt-thread/src/mem.o
                0x08003828                rt_smem_alloc
 .text.rt_smem_realloc
                0x08003a94      0x1d4 ./rt-thread/src/mem.o
                0x08003a94                rt_smem_realloc
 .text.rt_smem_free
                0x08003c68      0x140 ./rt-thread/src/mem.o
                0x08003c68                rt_smem_free
 .text.rt_list_insert_after
                0x08003da8       0x34 ./rt-thread/src/object.o
 .text.rt_list_remove
                0x08003ddc       0x38 ./rt-thread/src/object.o
 .text.rt_object_get_information
                0x08003e14       0x48 ./rt-thread/src/object.o
                0x08003e14                rt_object_get_information
 .text.rt_object_init
                0x08003e5c       0xcc ./rt-thread/src/object.o
                0x08003e5c                rt_object_init
 .text.rt_object_detach
                0x08003f28       0x5c ./rt-thread/src/object.o
                0x08003f28                rt_object_detach
 .text.rt_object_allocate
                0x08003f84       0xd8 ./rt-thread/src/object.o
                0x08003f84                rt_object_allocate
 .text.rt_object_delete
                0x0800405c       0x7c ./rt-thread/src/object.o
                0x0800405c                rt_object_delete
 .text.rt_object_is_systemobject
                0x080040d8       0x3c ./rt-thread/src/object.o
                0x080040d8                rt_object_is_systemobject
 .text.rt_object_get_type
                0x08004114       0x34 ./rt-thread/src/object.o
                0x08004114                rt_object_get_type
 .text.rt_object_find
                0x08004148       0xb4 ./rt-thread/src/object.o
                0x08004148                rt_object_find
 .text.rt_list_init
                0x080041fc       0x24 ./rt-thread/src/scheduler.o
 .text.rt_list_insert_after
                0x08004220       0x34 ./rt-thread/src/scheduler.o
 .text.rt_list_insert_before
                0x08004254       0x34 ./rt-thread/src/scheduler.o
 .text.rt_list_remove
                0x08004288       0x38 ./rt-thread/src/scheduler.o
 .text.rt_list_isempty
                0x080042c0       0x24 ./rt-thread/src/scheduler.o
 .text._scheduler_stack_check
                0x080042e4       0x94 ./rt-thread/src/scheduler.o
 .text._scheduler_get_highest_priority_thread
                0x08004378       0x3c ./rt-thread/src/scheduler.o
 .text.rt_system_scheduler_init
                0x080043b4       0x48 ./rt-thread/src/scheduler.o
                0x080043b4                rt_system_scheduler_init
 .text.rt_system_scheduler_start
                0x080043fc       0x3c ./rt-thread/src/scheduler.o
                0x080043fc                rt_system_scheduler_start
 .text.rt_schedule
                0x08004438      0x19c ./rt-thread/src/scheduler.o
                0x08004438                rt_schedule
 .text.rt_schedule_insert_thread
                0x080045d4       0xd4 ./rt-thread/src/scheduler.o
                0x080045d4                rt_schedule_insert_thread
 .text.rt_schedule_remove_thread
                0x080046a8       0x70 ./rt-thread/src/scheduler.o
                0x080046a8                rt_schedule_remove_thread
 .text.rt_enter_critical
                0x08004718       0x30 ./rt-thread/src/scheduler.o
                0x08004718                rt_enter_critical
 .text.rt_exit_critical
                0x08004748       0x58 ./rt-thread/src/scheduler.o
                0x08004748                rt_exit_critical
 .text.rt_critical_level
                0x080047a0       0x1c ./rt-thread/src/scheduler.o
                0x080047a0                rt_critical_level
 .text.rt_list_init
                0x080047bc       0x24 ./rt-thread/src/thread.o
 .text.rt_list_remove
                0x080047e0       0x38 ./rt-thread/src/thread.o
 .text._thread_exit
                0x08004818       0x44 ./rt-thread/src/thread.o
 .text._thread_timeout
                0x0800485c       0x8c ./rt-thread/src/thread.o
 .text._thread_init
                0x080048e8       0xfc ./rt-thread/src/thread.o
 .text.rt_thread_init
                0x080049e4       0x70 ./rt-thread/src/thread.o
                0x080049e4                rt_thread_init
 .text.rt_thread_self
                0x08004a54       0x18 ./rt-thread/src/thread.o
                0x08004a54                rt_thread_self
 .text.rt_thread_startup
                0x08004a6c       0x94 ./rt-thread/src/thread.o
                0x08004a6c                rt_thread_startup
 .text.rt_thread_detach
                0x08004b00       0xb0 ./rt-thread/src/thread.o
                0x08004b00                rt_thread_detach
 .text.rt_thread_create
                0x08004bb0       0x64 ./rt-thread/src/thread.o
                0x08004bb0                rt_thread_create
 .text.rt_thread_delete
                0x08004c14       0xb0 ./rt-thread/src/thread.o
                0x08004c14                rt_thread_delete
 .text.rt_thread_sleep
                0x08004cc4       0x94 ./rt-thread/src/thread.o
                0x08004cc4                rt_thread_sleep
 .text.rt_thread_delay
                0x08004d58       0x18 ./rt-thread/src/thread.o
                0x08004d58                rt_thread_delay
 .text.rt_thread_mdelay
                0x08004d70       0x20 ./rt-thread/src/thread.o
                0x08004d70                rt_thread_mdelay
 .text.rt_thread_control
                0x08004d90       0xf0 ./rt-thread/src/thread.o
                0x08004d90                rt_thread_control
 .text.rt_thread_suspend
                0x08004e80       0xd0 ./rt-thread/src/thread.o
                0x08004e80                rt_thread_suspend
 .text.rt_thread_resume
                0x08004f50       0x98 ./rt-thread/src/thread.o
                0x08004f50                rt_thread_resume
 .text.rt_list_init
                0x08004fe8       0x24 ./rt-thread/src/timer.o
 .text.rt_list_insert_after
                0x0800500c       0x34 ./rt-thread/src/timer.o
 .text.rt_list_remove
                0x08005040       0x38 ./rt-thread/src/timer.o
 .text.rt_list_isempty
                0x08005078       0x24 ./rt-thread/src/timer.o
 .text._timer_init
                0x0800509c       0x68 ./rt-thread/src/timer.o
 .text._timer_remove
                0x08005104       0x34 ./rt-thread/src/timer.o
 .text.rt_timer_init
                0x08005138       0x80 ./rt-thread/src/timer.o
                0x08005138                rt_timer_init
 .text.rt_timer_detach
                0x080051b8       0x90 ./rt-thread/src/timer.o
                0x080051b8                rt_timer_detach
 .text.rt_timer_start
                0x08005248      0x1e4 ./rt-thread/src/timer.o
                0x08005248                rt_timer_start
 .text.rt_timer_stop
                0x0800542c       0x94 ./rt-thread/src/timer.o
                0x0800542c                rt_timer_stop
 .text.rt_timer_control
                0x080054c0       0xfc ./rt-thread/src/timer.o
                0x080054c0                rt_timer_control
 .text.rt_timer_check
                0x080055bc      0x108 ./rt-thread/src/timer.o
                0x080055bc                rt_timer_check
 .text.rt_system_timer_init
                0x080056c4       0x34 ./rt-thread/src/timer.o
                0x080056c4                rt_system_timer_init
 .text.rt_system_timer_thread_init
                0x080056f8       0x10 ./rt-thread/src/timer.o
                0x080056f8                rt_system_timer_thread_init
 .text.rt_hw_stack_init
                0x08005708       0x90 ./rt-thread/libcpu/arm/cortex-m4/cpuport.o
                0x08005708                rt_hw_stack_init
 .text.usage_fault_track
                0x08005798       0xc4 ./rt-thread/libcpu/arm/cortex-m4/cpuport.o
 .text.bus_fault_track
                0x0800585c       0xcc ./rt-thread/libcpu/arm/cortex-m4/cpuport.o
 .text.mem_manage_fault_track
                0x08005928       0xb4 ./rt-thread/libcpu/arm/cortex-m4/cpuport.o
 .text.hard_fault_track
                0x080059dc       0x78 ./rt-thread/libcpu/arm/cortex-m4/cpuport.o
 .text.rt_hw_hard_fault_exception
                0x08005a54      0x184 ./rt-thread/libcpu/arm/cortex-m4/cpuport.o
                0x08005a54                rt_hw_hard_fault_exception
 .text._malloc_r
                0x08005bd8       0x28 ./rt-thread/components/libc/compilers/newlib/syscalls.o
                0x08005bd8                _malloc_r
 .text._realloc_r
                0x08005c00       0x2c ./rt-thread/components/libc/compilers/newlib/syscalls.o
                0x08005c00                _realloc_r
 .text._calloc_r
                0x08005c2c       0x2c ./rt-thread/components/libc/compilers/newlib/syscalls.o
                0x08005c2c                _calloc_r
 .text._free_r  0x08005c58       0x18 ./rt-thread/components/libc/compilers/newlib/syscalls.o
                0x08005c58                _free_r
 .text.rt_list_isempty
                0x08005c70       0x24 ./rt-thread/components/finsh/cmd.o
 .text.rt_list_len
                0x08005c94       0x38 ./rt-thread/components/finsh/cmd.o
 .text.clear    0x08005ccc       0x14 ./rt-thread/components/finsh/cmd.o
 .text.version  0x08005ce0       0x10 ./rt-thread/components/finsh/cmd.o
                0x08005ce0                version
 .text.object_split
                0x08005cf0       0x28 ./rt-thread/components/finsh/cmd.o
 .text.list_find_init
                0x08005d18       0x48 ./rt-thread/components/finsh/cmd.o
 .text.list_get_next
                0x08005d60       0xc0 ./rt-thread/components/finsh/cmd.o
 .text.list_thread
                0x08005e20      0x210 ./rt-thread/components/finsh/cmd.o
                0x08005e20                list_thread
 .text.show_wait_queue
                0x08006030       0x50 ./rt-thread/components/finsh/cmd.o
 .text.list_sem
                0x08006080      0x124 ./rt-thread/components/finsh/cmd.o
                0x08006080                list_sem
 .text.list_event
                0x080061a4      0x114 ./rt-thread/components/finsh/cmd.o
                0x080061a4                list_event
 .text.list_mutex
                0x080062b8       0xe4 ./rt-thread/components/finsh/cmd.o
                0x080062b8                list_mutex
 .text.list_mailbox
                0x0800639c      0x134 ./rt-thread/components/finsh/cmd.o
                0x0800639c                list_mailbox
 .text.list_msgqueue
                0x080064d0      0x124 ./rt-thread/components/finsh/cmd.o
                0x080064d0                list_msgqueue
 .text.list_mempool
                0x080065f4      0x140 ./rt-thread/components/finsh/cmd.o
                0x080065f4                list_mempool
 .text.list_timer
                0x08006734      0x124 ./rt-thread/components/finsh/cmd.o
                0x08006734                list_timer
 .text.list_device
                0x08006858       0xfc ./rt-thread/components/finsh/cmd.o
                0x08006858                list_device
 .text.cmd_list
                0x08006954      0x19c ./rt-thread/components/finsh/cmd.o
                0x08006954                cmd_list
 .text.msh_help
                0x08006af0       0x5c ./rt-thread/components/finsh/msh.o
                0x08006af0                msh_help
 .text.cmd_ps   0x08006b4c       0x18 ./rt-thread/components/finsh/msh.o
                0x08006b4c                cmd_ps
 .text.cmd_free
                0x08006b64       0x70 ./rt-thread/components/finsh/msh.o
                0x08006b64                cmd_free
 .text.msh_split
                0x08006bd4      0x170 ./rt-thread/components/finsh/msh.o
 .text.msh_get_cmd
                0x08006d44       0x64 ./rt-thread/components/finsh/msh.o
 .text._msh_exec_cmd
                0x08006da8       0xd4 ./rt-thread/components/finsh/msh.o
 .text.msh_exec
                0x08006e7c       0x8c ./rt-thread/components/finsh/msh.o
                0x08006e7c                msh_exec
 .text.str_common
                0x08006f08       0x4c ./rt-thread/components/finsh/msh.o
 .text.msh_auto_complete
                0x08006f54       0xb4 ./rt-thread/components/finsh/msh.o
                0x08006f54                msh_auto_complete
 .text.msh_isint
                0x08007008       0x68 ./rt-thread/components/finsh/msh_parse.o
                0x08007008                msh_isint
 .text.finsh_get_prompt
                0x08007070       0x78 ./rt-thread/components/finsh/shell.o
                0x08007070                finsh_get_prompt
 .text.finsh_set_prompt_mode
                0x080070e8       0x48 ./rt-thread/components/finsh/shell.o
                0x080070e8                finsh_set_prompt_mode
 .text.finsh_getchar
                0x08007130       0x90 ./rt-thread/components/finsh/shell.o
                0x08007130                finsh_getchar
 .text.finsh_rx_ind
                0x080071c0       0x3c ./rt-thread/components/finsh/shell.o
 .text.finsh_set_device
                0x080071fc       0xd8 ./rt-thread/components/finsh/shell.o
                0x080071fc                finsh_set_device
 .text.shell_auto_complete
                0x080072d4       0x34 ./rt-thread/components/finsh/shell.o
 .text.shell_handle_history
                0x08007308       0x34 ./rt-thread/components/finsh/shell.o
 .text.shell_push_history
                0x0800733c      0x160 ./rt-thread/components/finsh/shell.o
 .text.finsh_thread_entry
                0x0800749c      0x5d0 ./rt-thread/components/finsh/shell.o
                0x0800749c                finsh_thread_entry
 .text.finsh_system_function_init
                0x08007a6c       0x2c ./rt-thread/components/finsh/shell.o
                0x08007a6c                finsh_system_function_init
 .text.finsh_system_init
                0x08007a98       0x9c ./rt-thread/components/finsh/shell.o
                0x08007a98                finsh_system_init
 .text._serial_poll_rx
                0x08007b34       0x80 ./rt-thread/components/drivers/serial/serial.o
 .text._serial_poll_tx
                0x08007bb4       0x7c ./rt-thread/components/drivers/serial/serial.o
 .text._serial_int_rx
                0x08007c30       0xd8 ./rt-thread/components/drivers/serial/serial.o
 .text._serial_int_tx
                0x08007d08       0xc4 ./rt-thread/components/drivers/serial/serial.o
 .text._serial_check_buffer_size
                0x08007dcc       0x38 ./rt-thread/components/drivers/serial/serial.o
 .text._serial_fifo_calc_recved_len
                0x08007e04       0x88 ./rt-thread/components/drivers/serial/serial.o
 .text.rt_dma_calc_recved_len
                0x08007e8c       0x18 ./rt-thread/components/drivers/serial/serial.o
 .text.rt_dma_recv_update_get_index
                0x08007ea4       0xa4 ./rt-thread/components/drivers/serial/serial.o
 .text.rt_dma_recv_update_put_index
                0x08007f48       0xf8 ./rt-thread/components/drivers/serial/serial.o
 .text._serial_dma_rx
                0x08008040      0x198 ./rt-thread/components/drivers/serial/serial.o
 .text._serial_dma_tx
                0x080081d8       0x70 ./rt-thread/components/drivers/serial/serial.o
 .text.rt_serial_init
                0x08008248       0x5c ./rt-thread/components/drivers/serial/serial.o
 .text.rt_serial_open
                0x080082a4      0x36c ./rt-thread/components/drivers/serial/serial.o
 .text.rt_serial_close
                0x08008610      0x1e0 ./rt-thread/components/drivers/serial/serial.o
 .text.rt_serial_read
                0x080087f0       0x84 ./rt-thread/components/drivers/serial/serial.o
 .text.rt_serial_write
                0x08008874       0x84 ./rt-thread/components/drivers/serial/serial.o
 .text.rt_serial_control
                0x080088f8       0xd0 ./rt-thread/components/drivers/serial/serial.o
 .text.rt_hw_serial_register
                0x080089c8       0x9c ./rt-thread/components/drivers/serial/serial.o
                0x080089c8                rt_hw_serial_register
 .text.rt_hw_serial_isr
                0x08008a64      0x264 ./rt-thread/components/drivers/serial/serial.o
                0x08008a64                rt_hw_serial_isr
 .text._pin_read
                0x08008cc8       0x60 ./rt-thread/components/drivers/misc/pin.o
 .text._pin_write
                0x08008d28       0x5c ./rt-thread/components/drivers/misc/pin.o
 .text._pin_control
                0x08008d84       0x58 ./rt-thread/components/drivers/misc/pin.o
 .text.rt_device_pin_register
                0x08008ddc       0x74 ./rt-thread/components/drivers/misc/pin.o
                0x08008ddc                rt_device_pin_register
 .text.rt_pin_mode
                0x08008e50       0x40 ./rt-thread/components/drivers/misc/pin.o
                0x08008e50                rt_pin_mode
 .text.rt_pin_write
                0x08008e90       0x40 ./rt-thread/components/drivers/misc/pin.o
                0x08008e90                rt_pin_write
 .text.rt_pin_read
                0x08008ed0       0x3c ./rt-thread/components/drivers/misc/pin.o
                0x08008ed0                rt_pin_read
 .text.rt_pin_get
                0x08008f0c       0x60 ./rt-thread/components/drivers/misc/pin.o
                0x08008f0c                rt_pin_get
 .text._pin_cmd_conv
                0x08008f6c       0xb4 ./rt-thread/components/drivers/misc/pin.o
 .text._pin_cmd_print_usage
                0x08009020       0x58 ./rt-thread/components/drivers/misc/pin.o
 .text._pin_cmd_get
                0x08009078       0x5c ./rt-thread/components/drivers/misc/pin.o
 .text._pin_cmd_mode
                0x080090d4      0x10c ./rt-thread/components/drivers/misc/pin.o
 .text._pin_cmd_read
                0x080091e0       0x90 ./rt-thread/components/drivers/misc/pin.o
 .text._pin_cmd_write
                0x08009270       0xe4 ./rt-thread/components/drivers/misc/pin.o
 .text._pin_cmd
                0x08009354       0xac ./rt-thread/components/drivers/misc/pin.o
 .text.rt_list_init
                0x08009400       0x24 ./rt-thread/components/drivers/ipc/completion.o
 .text.rt_list_insert_before
                0x08009424       0x34 ./rt-thread/components/drivers/ipc/completion.o
 .text.rt_list_isempty
                0x08009458       0x24 ./rt-thread/components/drivers/ipc/completion.o
 .text.rt_completion_init
                0x0800947c       0x44 ./rt-thread/components/drivers/ipc/completion.o
                0x0800947c                rt_completion_init
 .text.rt_completion_wait
                0x080094c0      0x15c ./rt-thread/components/drivers/ipc/completion.o
                0x080094c0                rt_completion_wait
 .text.rt_completion_done
                0x0800961c       0x70 ./rt-thread/components/drivers/ipc/completion.o
                0x0800961c                rt_completion_done
 .text.rt_list_init
                0x0800968c       0x24 ./rt-thread/components/drivers/ipc/dataqueue.o
 .text.rt_list_insert_before
                0x080096b0       0x34 ./rt-thread/components/drivers/ipc/dataqueue.o
 .text.rt_list_isempty
                0x080096e4       0x24 ./rt-thread/components/drivers/ipc/dataqueue.o
 .text.rt_data_queue_init
                0x08009708       0xc0 ./rt-thread/components/drivers/ipc/dataqueue.o
                0x08009708                rt_data_queue_init
 .text.rt_data_queue_push
                0x080097c8      0x240 ./rt-thread/components/drivers/ipc/dataqueue.o
                0x080097c8                rt_data_queue_push
 .text.rt_data_queue_pop
                0x08009a08      0x298 ./rt-thread/components/drivers/ipc/dataqueue.o
                0x08009a08                rt_data_queue_pop
 .text.rt_data_queue_peek
                0x08009ca0       0xa0 ./rt-thread/components/drivers/ipc/dataqueue.o
                0x08009ca0                rt_data_queue_peek
 .text.rt_data_queue_reset
                0x08009d40       0xf0 ./rt-thread/components/drivers/ipc/dataqueue.o
                0x08009d40                rt_data_queue_reset
 .text.rt_data_queue_deinit
                0x08009e30       0x6c ./rt-thread/components/drivers/ipc/dataqueue.o
                0x08009e30                rt_data_queue_deinit
 .text.rt_data_queue_len
                0x08009e9c       0xc4 ./rt-thread/components/drivers/ipc/dataqueue.o
                0x08009e9c                rt_data_queue_len
 .text.rt_list_init
                0x08009f60       0x24 ./rt-thread/components/drivers/ipc/workqueue.o
 .text.rt_list_remove
                0x08009f84       0x38 ./rt-thread/components/drivers/ipc/workqueue.o
 .text.rt_list_isempty
                0x08009fbc       0x24 ./rt-thread/components/drivers/ipc/workqueue.o
 .text._workqueue_work_completion
                0x08009fe0       0x4c ./rt-thread/components/drivers/ipc/workqueue.o
 .text._workqueue_thread_entry
                0x0800a02c       0x9c ./rt-thread/components/drivers/ipc/workqueue.o
 .text.rt_workqueue_create
                0x0800a0c8       0x94 ./rt-thread/components/drivers/ipc/workqueue.o
                0x0800a0c8                rt_workqueue_create
 .text.rt_work_sys_workqueue_init
                0x0800a15c       0x4c ./rt-thread/components/drivers/ipc/workqueue.o
 .text.i2c_delay
                0x0800a1a8       0x20 ./rt-thread/components/drivers/i2c/i2c-bit-ops.o
 .text.i2c_delay2
                0x0800a1c8       0x1c ./rt-thread/components/drivers/i2c/i2c-bit-ops.o
 .text.SCL_H    0x0800a1e4       0x74 ./rt-thread/components/drivers/i2c/i2c-bit-ops.o
 .text.i2c_start
                0x0800a258       0x34 ./rt-thread/components/drivers/i2c/i2c-bit-ops.o
 .text.i2c_restart
                0x0800a28c       0x4c ./rt-thread/components/drivers/i2c/i2c-bit-ops.o
 .text.i2c_stop
                0x0800a2d8       0x44 ./rt-thread/components/drivers/i2c/i2c-bit-ops.o
 .text.i2c_waitack
                0x0800a31c       0x80 ./rt-thread/components/drivers/i2c/i2c-bit-ops.o
 .text.i2c_writeb
                0x0800a39c       0x8c ./rt-thread/components/drivers/i2c/i2c-bit-ops.o
 .text.i2c_readb
                0x0800a428       0x88 ./rt-thread/components/drivers/i2c/i2c-bit-ops.o
 .text.i2c_send_bytes
                0x0800a4b0       0x98 ./rt-thread/components/drivers/i2c/i2c-bit-ops.o
 .text.i2c_send_ack_or_nack
                0x0800a548       0x74 ./rt-thread/components/drivers/i2c/i2c-bit-ops.o
 .text.i2c_recv_bytes
                0x0800a5bc       0x7c ./rt-thread/components/drivers/i2c/i2c-bit-ops.o
 .text.i2c_send_address
                0x0800a638       0x64 ./rt-thread/components/drivers/i2c/i2c-bit-ops.o
 .text.i2c_bit_send_address
                0x0800a69c      0x164 ./rt-thread/components/drivers/i2c/i2c-bit-ops.o
 .text.i2c_bit_xfer
                0x0800a800      0x108 ./rt-thread/components/drivers/i2c/i2c-bit-ops.o
 .text.rt_i2c_bit_add_bus
                0x0800a908       0x28 ./rt-thread/components/drivers/i2c/i2c-bit-ops.o
                0x0800a908                rt_i2c_bit_add_bus
 .text.rt_i2c_bus_device_register
                0x0800a930       0x64 ./rt-thread/components/drivers/i2c/i2c_core.o
                0x0800a930                rt_i2c_bus_device_register
 .text.rt_i2c_transfer
                0x0800a994       0x6c ./rt-thread/components/drivers/i2c/i2c_core.o
                0x0800a994                rt_i2c_transfer
 .text.rt_i2c_control
                0x0800aa00       0x54 ./rt-thread/components/drivers/i2c/i2c_core.o
                0x0800aa00                rt_i2c_control
 .text.rt_i2c_master_send
                0x0800aa54       0x48 ./rt-thread/components/drivers/i2c/i2c_core.o
                0x0800aa54                rt_i2c_master_send
 .text.rt_i2c_master_recv
                0x0800aa9c       0x68 ./rt-thread/components/drivers/i2c/i2c_core.o
                0x0800aa9c                rt_i2c_master_recv
 .text.rt_i2c_core_init
                0x0800ab04       0x10 ./rt-thread/components/drivers/i2c/i2c_core.o
                0x0800ab04                rt_i2c_core_init
 .text.i2c_bus_device_read
                0x0800ab14       0x64 ./rt-thread/components/drivers/i2c/i2c_dev.o
 .text.i2c_bus_device_write
                0x0800ab78       0x64 ./rt-thread/components/drivers/i2c/i2c_dev.o
 .text.i2c_bus_device_control
                0x0800abdc       0xc8 ./rt-thread/components/drivers/i2c/i2c_dev.o
 .text.rt_i2c_bus_device_device_init
                0x0800aca4       0x78 ./rt-thread/components/drivers/i2c/i2c_dev.o
                0x0800aca4                rt_i2c_bus_device_device_init
 .text.get_pin  0x0800ad1c       0x44 ./libraries/gd32_drivers/drv_gpio.o
                0x0800ad1c                get_pin
 .text.gd32_pin_mode
                0x0800ad60       0xcc ./libraries/gd32_drivers/drv_gpio.o
 .text.gd32_pin_write
                0x0800ae2c       0x40 ./libraries/gd32_drivers/drv_gpio.o
 .text.gd32_pin_read
                0x0800ae6c       0x48 ./libraries/gd32_drivers/drv_gpio.o
 .text.bit2bitno
                0x0800aeb4       0x40 ./libraries/gd32_drivers/drv_gpio.o
 .text.get_pin_irq_map
                0x0800aef4       0x34 ./libraries/gd32_drivers/drv_gpio.o
 .text.gd32_pin_attach_irq
                0x0800af28      0x150 ./libraries/gd32_drivers/drv_gpio.o
 .text.gd32_pin_detach_irq
                0x0800b078       0xd8 ./libraries/gd32_drivers/drv_gpio.o
 .text.gd32_pin_irq_enable
                0x0800b150      0x158 ./libraries/gd32_drivers/drv_gpio.o
 .text.pin_irq_hdr
                0x0800b2a8       0x54 ./libraries/gd32_drivers/drv_gpio.o
 .text.GD32_GPIO_EXTI_IRQHandler
                0x0800b2fc       0x44 ./libraries/gd32_drivers/drv_gpio.o
                0x0800b2fc                GD32_GPIO_EXTI_IRQHandler
 .text.EXTI0_IRQHandler
                0x0800b340       0x18 ./libraries/gd32_drivers/drv_gpio.o
                0x0800b340                EXTI0_IRQHandler
 .text.EXTI1_IRQHandler
                0x0800b358       0x18 ./libraries/gd32_drivers/drv_gpio.o
                0x0800b358                EXTI1_IRQHandler
 .text.EXTI2_IRQHandler
                0x0800b370       0x18 ./libraries/gd32_drivers/drv_gpio.o
                0x0800b370                EXTI2_IRQHandler
 .text.EXTI3_IRQHandler
                0x0800b388       0x18 ./libraries/gd32_drivers/drv_gpio.o
                0x0800b388                EXTI3_IRQHandler
 .text.EXTI4_IRQHandler
                0x0800b3a0       0x18 ./libraries/gd32_drivers/drv_gpio.o
                0x0800b3a0                EXTI4_IRQHandler
 .text.EXTI5_9_IRQHandler
                0x0800b3b8       0x30 ./libraries/gd32_drivers/drv_gpio.o
                0x0800b3b8                EXTI5_9_IRQHandler
 .text.EXTI10_15_IRQHandler
                0x0800b3e8       0x34 ./libraries/gd32_drivers/drv_gpio.o
                0x0800b3e8                EXTI10_15_IRQHandler
 .text.rt_hw_pin_init
                0x0800b41c       0x24 ./libraries/gd32_drivers/drv_gpio.o
                0x0800b41c                rt_hw_pin_init
 .text.gd32_i2c_gpio_init
                0x0800b440       0x48 ./libraries/gd32_drivers/drv_soft_i2c.o
 .text.gd32_set_sda
                0x0800b488       0x38 ./libraries/gd32_drivers/drv_soft_i2c.o
 .text.gd32_set_scl
                0x0800b4c0       0x38 ./libraries/gd32_drivers/drv_soft_i2c.o
 .text.gd32_get_sda
                0x0800b4f8       0x20 ./libraries/gd32_drivers/drv_soft_i2c.o
 .text.gd32_get_scl
                0x0800b518       0x20 ./libraries/gd32_drivers/drv_soft_i2c.o
 .text.gd32_udelay
                0x0800b538       0x3c ./libraries/gd32_drivers/drv_soft_i2c.o
 .text.gd32_i2c_bus_unlock
                0x0800b574       0x6c ./libraries/gd32_drivers/drv_soft_i2c.o
 .text.rt_hw_i2c_init
                0x0800b5e0       0xdc ./libraries/gd32_drivers/drv_soft_i2c.o
                0x0800b5e0                rt_hw_i2c_init
 .text.NVIC_EnableIRQ
                0x0800b6bc       0x34 ./libraries/gd32_drivers/drv_usart.o
 .text.NVIC_DisableIRQ
                0x0800b6f0       0x34 ./libraries/gd32_drivers/drv_usart.o
 .text.NVIC_SetPriority
                0x0800b724       0x54 ./libraries/gd32_drivers/drv_usart.o
 .text.USART0_IRQHandler
                0x0800b778       0x1c ./libraries/gd32_drivers/drv_usart.o
                0x0800b778                USART0_IRQHandler
 .text.gd32_uart_gpio_init
                0x0800b794       0xb0 ./libraries/gd32_drivers/drv_usart.o
                0x0800b794                gd32_uart_gpio_init
 .text.gd32_uart_configure
                0x0800b844      0x11c ./libraries/gd32_drivers/drv_usart.o
 .text.gd32_uart_control
                0x0800b960       0x78 ./libraries/gd32_drivers/drv_usart.o
 .text.gd32_uart_putc
                0x0800b9d8       0x58 ./libraries/gd32_drivers/drv_usart.o
 .text.gd32_uart_getc
                0x0800ba30       0x58 ./libraries/gd32_drivers/drv_usart.o
 .text.GD32_UART_IRQHandler
                0x0800ba88       0x6c ./libraries/gd32_drivers/drv_usart.o
 .text.rt_hw_usart_init
                0x0800baf4       0xb8 ./libraries/gd32_drivers/drv_usart.o
                0x0800baf4                rt_hw_usart_init
 .text.adc_clock_config
                0x0800bbac       0x30 ./libraries/GD32F4xx_Firmware_Library/GD32F4xx_standard_peripheral/Source/gd32f4xx_adc.o
                0x0800bbac                adc_clock_config
 .text.adc_data_alignment_config
                0x0800bbdc       0x44 ./libraries/GD32F4xx_Firmware_Library/GD32F4xx_standard_peripheral/Source/gd32f4xx_adc.o
                0x0800bbdc                adc_data_alignment_config
 .text.adc_enable
                0x0800bc20       0x34 ./libraries/GD32F4xx_Firmware_Library/GD32F4xx_standard_peripheral/Source/gd32f4xx_adc.o
                0x0800bc20                adc_enable
 .text.adc_calibration_enable
                0x0800bc54       0x58 ./libraries/GD32F4xx_Firmware_Library/GD32F4xx_standard_peripheral/Source/gd32f4xx_adc.o
                0x0800bc54                adc_calibration_enable
 .text.adc_resolution_config
                0x0800bcac       0x3c ./libraries/GD32F4xx_Firmware_Library/GD32F4xx_standard_peripheral/Source/gd32f4xx_adc.o
                0x0800bcac                adc_resolution_config
 .text.adc_channel_length_config
                0x0800bce8       0xa0 ./libraries/GD32F4xx_Firmware_Library/GD32F4xx_standard_peripheral/Source/gd32f4xx_adc.o
                0x0800bce8                adc_channel_length_config
 .text.adc_regular_channel_config
                0x0800bd88      0x184 ./libraries/GD32F4xx_Firmware_Library/GD32F4xx_standard_peripheral/Source/gd32f4xx_adc.o
                0x0800bd88                adc_regular_channel_config
 .text.adc_external_trigger_source_config
                0x0800bf0c       0x74 ./libraries/GD32F4xx_Firmware_Library/GD32F4xx_standard_peripheral/Source/gd32f4xx_adc.o
                0x0800bf0c                adc_external_trigger_source_config
 .text.adc_external_trigger_config
                0x0800bf80       0x78 ./libraries/GD32F4xx_Firmware_Library/GD32F4xx_standard_peripheral/Source/gd32f4xx_adc.o
                0x0800bf80                adc_external_trigger_config
 .text.adc_software_trigger_enable
                0x0800bff8       0x4c ./libraries/GD32F4xx_Firmware_Library/GD32F4xx_standard_peripheral/Source/gd32f4xx_adc.o
                0x0800bff8                adc_software_trigger_enable
 .text.adc_regular_data_read
                0x0800c044       0x1c ./libraries/GD32F4xx_Firmware_Library/GD32F4xx_standard_peripheral/Source/gd32f4xx_adc.o
                0x0800c044                adc_regular_data_read
 .text.adc_flag_get
                0x0800c060       0x2c ./libraries/GD32F4xx_Firmware_Library/GD32F4xx_standard_peripheral/Source/gd32f4xx_adc.o
                0x0800c060                adc_flag_get
 .text.adc_flag_clear
                0x0800c08c       0x24 ./libraries/GD32F4xx_Firmware_Library/GD32F4xx_standard_peripheral/Source/gd32f4xx_adc.o
                0x0800c08c                adc_flag_clear
 .text.exti_init
                0x0800c0b0       0xf0 ./libraries/GD32F4xx_Firmware_Library/GD32F4xx_standard_peripheral/Source/gd32f4xx_exti.o
                0x0800c0b0                exti_init
 .text.exti_interrupt_flag_get
                0x0800c1a0       0x44 ./libraries/GD32F4xx_Firmware_Library/GD32F4xx_standard_peripheral/Source/gd32f4xx_exti.o
                0x0800c1a0                exti_interrupt_flag_get
 .text.exti_interrupt_flag_clear
                0x0800c1e4       0x20 ./libraries/GD32F4xx_Firmware_Library/GD32F4xx_standard_peripheral/Source/gd32f4xx_exti.o
                0x0800c1e4                exti_interrupt_flag_clear
 .text.gpio_mode_set
                0x0800c204       0x9c ./libraries/GD32F4xx_Firmware_Library/GD32F4xx_standard_peripheral/Source/gd32f4xx_gpio.o
                0x0800c204                gpio_mode_set
 .text.gpio_output_options_set
                0x0800c2a0       0xa0 ./libraries/GD32F4xx_Firmware_Library/GD32F4xx_standard_peripheral/Source/gd32f4xx_gpio.o
                0x0800c2a0                gpio_output_options_set
 .text.gpio_bit_write
                0x0800c340       0x38 ./libraries/GD32F4xx_Firmware_Library/GD32F4xx_standard_peripheral/Source/gd32f4xx_gpio.o
                0x0800c340                gpio_bit_write
 .text.gpio_input_bit_get
                0x0800c378       0x2c ./libraries/GD32F4xx_Firmware_Library/GD32F4xx_standard_peripheral/Source/gd32f4xx_gpio.o
                0x0800c378                gpio_input_bit_get
 .text.gpio_af_set
                0x0800c3a4       0xcc ./libraries/GD32F4xx_Firmware_Library/GD32F4xx_standard_peripheral/Source/gd32f4xx_gpio.o
                0x0800c3a4                gpio_af_set
 .text.nvic_priority_group_set
                0x0800c470       0x28 ./libraries/GD32F4xx_Firmware_Library/GD32F4xx_standard_peripheral/Source/gd32f4xx_misc.o
                0x0800c470                nvic_priority_group_set
 .text.nvic_irq_enable
                0x0800c498      0x10c ./libraries/GD32F4xx_Firmware_Library/GD32F4xx_standard_peripheral/Source/gd32f4xx_misc.o
                0x0800c498                nvic_irq_enable
 .text.nvic_irq_disable
                0x0800c5a4       0x38 ./libraries/GD32F4xx_Firmware_Library/GD32F4xx_standard_peripheral/Source/gd32f4xx_misc.o
                0x0800c5a4                nvic_irq_disable
 .text.rcu_periph_clock_enable
                0x0800c5dc       0x48 ./libraries/GD32F4xx_Firmware_Library/GD32F4xx_standard_peripheral/Source/gd32f4xx_rcu.o
                0x0800c5dc                rcu_periph_clock_enable
 .text.rcu_periph_reset_enable
                0x0800c624       0x48 ./libraries/GD32F4xx_Firmware_Library/GD32F4xx_standard_peripheral/Source/gd32f4xx_rcu.o
                0x0800c624                rcu_periph_reset_enable
 .text.rcu_periph_reset_disable
                0x0800c66c       0x48 ./libraries/GD32F4xx_Firmware_Library/GD32F4xx_standard_peripheral/Source/gd32f4xx_rcu.o
                0x0800c66c                rcu_periph_reset_disable
 .text.rcu_timer_clock_prescaler_config
                0x0800c6b4       0x3c ./libraries/GD32F4xx_Firmware_Library/GD32F4xx_standard_peripheral/Source/gd32f4xx_rcu.o
                0x0800c6b4                rcu_timer_clock_prescaler_config
 .text.rcu_clock_freq_get
                0x0800c6f0      0x184 ./libraries/GD32F4xx_Firmware_Library/GD32F4xx_standard_peripheral/Source/gd32f4xx_rcu.o
                0x0800c6f0                rcu_clock_freq_get
 .text.spi_init
                0x0800c874       0x88 ./libraries/GD32F4xx_Firmware_Library/GD32F4xx_standard_peripheral/Source/gd32f4xx_spi.o
                0x0800c874                spi_init
 .text.spi_enable
                0x0800c8fc       0x20 ./libraries/GD32F4xx_Firmware_Library/GD32F4xx_standard_peripheral/Source/gd32f4xx_spi.o
                0x0800c8fc                spi_enable
 .text.syscfg_exti_line_config
                0x0800c91c       0xdc ./libraries/GD32F4xx_Firmware_Library/GD32F4xx_standard_peripheral/Source/gd32f4xx_syscfg.o
                0x0800c91c                syscfg_exti_line_config
 .text.timer_deinit
                0x0800c9f8      0x1b4 ./libraries/GD32F4xx_Firmware_Library/GD32F4xx_standard_peripheral/Source/gd32f4xx_timer.o
                0x0800c9f8                timer_deinit
 .text.timer_struct_para_init
                0x0800cbac       0x3c ./libraries/GD32F4xx_Firmware_Library/GD32F4xx_standard_peripheral/Source/gd32f4xx_timer.o
                0x0800cbac                timer_struct_para_init
 .text.timer_init
                0x0800cbe8       0xfc ./libraries/GD32F4xx_Firmware_Library/GD32F4xx_standard_peripheral/Source/gd32f4xx_timer.o
                0x0800cbe8                timer_init
 .text.timer_enable
                0x0800cce4       0x20 ./libraries/GD32F4xx_Firmware_Library/GD32F4xx_standard_peripheral/Source/gd32f4xx_timer.o
                0x0800cce4                timer_enable
 .text.timer_auto_reload_shadow_enable
                0x0800cd04       0x20 ./libraries/GD32F4xx_Firmware_Library/GD32F4xx_standard_peripheral/Source/gd32f4xx_timer.o
                0x0800cd04                timer_auto_reload_shadow_enable
 .text.timer_interrupt_enable
                0x0800cd24       0x28 ./libraries/GD32F4xx_Firmware_Library/GD32F4xx_standard_peripheral/Source/gd32f4xx_timer.o
                0x0800cd24                timer_interrupt_enable
 .text.timer_interrupt_flag_get
                0x0800cd4c       0x3c ./libraries/GD32F4xx_Firmware_Library/GD32F4xx_standard_peripheral/Source/gd32f4xx_timer.o
                0x0800cd4c                timer_interrupt_flag_get
 .text.timer_interrupt_flag_clear
                0x0800cd88       0x24 ./libraries/GD32F4xx_Firmware_Library/GD32F4xx_standard_peripheral/Source/gd32f4xx_timer.o
                0x0800cd88                timer_interrupt_flag_clear
 .text.usart_baudrate_set
                0x0800cdac      0x150 ./libraries/GD32F4xx_Firmware_Library/GD32F4xx_standard_peripheral/Source/gd32f4xx_usart.o
                0x0800cdac                usart_baudrate_set
 .text.usart_parity_config
                0x0800cefc       0x3c ./libraries/GD32F4xx_Firmware_Library/GD32F4xx_standard_peripheral/Source/gd32f4xx_usart.o
                0x0800cefc                usart_parity_config
 .text.usart_word_length_set
                0x0800cf38       0x3c ./libraries/GD32F4xx_Firmware_Library/GD32F4xx_standard_peripheral/Source/gd32f4xx_usart.o
                0x0800cf38                usart_word_length_set
 .text.usart_stop_bit_set
                0x0800cf74       0x3c ./libraries/GD32F4xx_Firmware_Library/GD32F4xx_standard_peripheral/Source/gd32f4xx_usart.o
                0x0800cf74                usart_stop_bit_set
 .text.usart_enable
                0x0800cfb0       0x28 ./libraries/GD32F4xx_Firmware_Library/GD32F4xx_standard_peripheral/Source/gd32f4xx_usart.o
                0x0800cfb0                usart_enable
 .text.usart_transmit_config
                0x0800cfd8       0x3c ./libraries/GD32F4xx_Firmware_Library/GD32F4xx_standard_peripheral/Source/gd32f4xx_usart.o
                0x0800cfd8                usart_transmit_config
 .text.usart_receive_config
                0x0800d014       0x3c ./libraries/GD32F4xx_Firmware_Library/GD32F4xx_standard_peripheral/Source/gd32f4xx_usart.o
                0x0800d014                usart_receive_config
 .text.usart_data_transmit
                0x0800d050       0x24 ./libraries/GD32F4xx_Firmware_Library/GD32F4xx_standard_peripheral/Source/gd32f4xx_usart.o
                0x0800d050                usart_data_transmit
 .text.usart_data_receive
                0x0800d074       0x24 ./libraries/GD32F4xx_Firmware_Library/GD32F4xx_standard_peripheral/Source/gd32f4xx_usart.o
                0x0800d074                usart_data_receive
 .text.usart_flag_get
                0x0800d098       0x40 ./libraries/GD32F4xx_Firmware_Library/GD32F4xx_standard_peripheral/Source/gd32f4xx_usart.o
                0x0800d098                usart_flag_get
 .text.usart_flag_clear
                0x0800d0d8       0x48 ./libraries/GD32F4xx_Firmware_Library/GD32F4xx_standard_peripheral/Source/gd32f4xx_usart.o
                0x0800d0d8                usart_flag_clear
 .text.usart_interrupt_enable
                0x0800d120       0x44 ./libraries/GD32F4xx_Firmware_Library/GD32F4xx_standard_peripheral/Source/gd32f4xx_usart.o
                0x0800d120                usart_interrupt_enable
 .text.usart_interrupt_disable
                0x0800d164       0x48 ./libraries/GD32F4xx_Firmware_Library/GD32F4xx_standard_peripheral/Source/gd32f4xx_usart.o
                0x0800d164                usart_interrupt_disable
 .text.usart_interrupt_flag_get
                0x0800d1ac       0x6c ./libraries/GD32F4xx_Firmware_Library/GD32F4xx_standard_peripheral/Source/gd32f4xx_usart.o
                0x0800d1ac                usart_interrupt_flag_get
 .text.Reset_Handler
                0x0800d218       0x50 ./libraries/GD32F4xx_Firmware_Library/CMSIS/GD/GD32F4xx/Source/GCC/startup_gd32f4xx.o
                0x0800d218                Reset_Handler
                0x0800d242                NMI_Handler
                0x0800d244                MemManage_Handler
                0x0800d246                BusFault_Handler
                0x0800d248                UsageFault_Handler
                0x0800d24a                SVC_Handler
                0x0800d24c                DebugMon_Handler
 .text.Default_Handler
                0x0800d268        0x2 ./libraries/GD32F4xx_Firmware_Library/CMSIS/GD/GD32F4xx/Source/GCC/startup_gd32f4xx.o
                0x0800d268                DMA0_Channel6_IRQHandler
                0x0800d268                DMA1_Channel4_IRQHandler
                0x0800d268                TIMER7_TRG_CMT_TIMER13_IRQHandler
                0x0800d268                USBHS_EP1_In_IRQHandler
                0x0800d268                USBHS_WKUP_IRQHandler
                0x0800d268                USBFS_IRQHandler
                0x0800d268                UART4_IRQHandler
                0x0800d268                TAMPER_STAMP_IRQHandler
                0x0800d268                SPI2_IRQHandler
                0x0800d268                DMA0_Channel2_IRQHandler
                0x0800d268                DMA0_Channel3_IRQHandler
                0x0800d268                SPI1_IRQHandler
                0x0800d268                ADC_IRQHandler
                0x0800d268                DMA0_Channel0_IRQHandler
                0x0800d268                TIMER3_IRQHandler
                0x0800d268                TLI_ER_IRQHandler
                0x0800d268                CAN1_EWMC_IRQHandler
                0x0800d268                DMA1_Channel5_IRQHandler
                0x0800d268                SPI4_IRQHandler
                0x0800d268                CAN0_EWMC_IRQHandler
                0x0800d268                I2C1_ER_IRQHandler
                0x0800d268                TIMER4_IRQHandler
                0x0800d268                DMA1_Channel6_IRQHandler
                0x0800d268                CAN0_RX1_IRQHandler
                0x0800d268                TIMER5_DAC_IRQHandler
                0x0800d268                UART3_IRQHandler
                0x0800d268                DMA1_Channel2_IRQHandler
                0x0800d268                DMA1_Channel0_IRQHandler
                0x0800d268                I2C2_EV_IRQHandler
                0x0800d268                CAN1_RX0_IRQHandler
                0x0800d268                DMA1_Channel7_IRQHandler
                0x0800d268                TIMER7_BRK_TIMER11_IRQHandler
                0x0800d268                USART2_IRQHandler
                0x0800d268                TIMER6_IRQHandler
                0x0800d268                TLI_IRQHandler
                0x0800d268                USART5_IRQHandler
                0x0800d268                SPI0_IRQHandler
                0x0800d268                TIMER7_UP_TIMER12_IRQHandler
                0x0800d268                ENET_WKUP_IRQHandler
                0x0800d268                FMC_IRQHandler
                0x0800d268                IPA_IRQHandler
                0x0800d268                CAN1_TX_IRQHandler
                0x0800d268                SDIO_IRQHandler
                0x0800d268                USART1_IRQHandler
                0x0800d268                RTC_WKUP_IRQHandler
                0x0800d268                RCU_CTC_IRQHandler
                0x0800d268                TRNG_IRQHandler
                0x0800d268                I2C0_ER_IRQHandler
                0x0800d268                TIMER7_CC_IRQHandler
                0x0800d268                USBFS_WKUP_IRQHandler
                0x0800d268                DMA0_Channel5_IRQHandler
                0x0800d268                Default_Handler
                0x0800d268                LVD_IRQHandler
                0x0800d268                EXMC_IRQHandler
                0x0800d268                TIMER0_UP_TIMER9_IRQHandler
                0x0800d268                I2C0_EV_IRQHandler
                0x0800d268                DMA1_Channel3_IRQHandler
                0x0800d268                UART7_IRQHandler
                0x0800d268                USBHS_EP1_Out_IRQHandler
                0x0800d268                ENET_IRQHandler
                0x0800d268                I2C2_ER_IRQHandler
                0x0800d268                DMA0_Channel4_IRQHandler
                0x0800d268                CAN0_RX0_IRQHandler
                0x0800d268                DCI_IRQHandler
                0x0800d268                FPU_IRQHandler
                0x0800d268                WWDGT_IRQHandler
                0x0800d268                TIMER0_CC_IRQHandler
                0x0800d268                I2C1_EV_IRQHandler
                0x0800d268                DMA0_Channel1_IRQHandler
                0x0800d268                TIMER0_TRG_CMT_TIMER10_IRQHandler
                0x0800d268                SPI3_IRQHandler
                0x0800d268                DMA1_Channel1_IRQHandler
                0x0800d268                TIMER2_IRQHandler
                0x0800d268                SPI5_IRQHandler
                0x0800d268                DMA0_Channel7_IRQHandler
                0x0800d268                USBHS_IRQHandler
                0x0800d268                RTC_Alarm_IRQHandler
                0x0800d268                CAN1_RX1_IRQHandler
                0x0800d268                TIMER0_BRK_TIMER8_IRQHandler
                0x0800d268                CAN0_TX_IRQHandler
                0x0800d268                UART6_IRQHandler
 *fill*         0x0800d26a        0x2 00000000
 .text.SystemInit
                0x0800d26c       0xd0 ./libraries/GD32F4xx_Firmware_Library/CMSIS/GD/GD32F4xx/Source/system_gd32f4xx.o
                0x0800d26c                SystemInit
 .text.system_clock_config
                0x0800d33c        0xc ./libraries/GD32F4xx_Firmware_Library/CMSIS/GD/GD32F4xx/Source/system_gd32f4xx.o
 .text.system_clock_200m_25m_hxtal
                0x0800d348      0x124 ./libraries/GD32F4xx_Firmware_Library/CMSIS/GD/GD32F4xx/Source/system_gd32f4xx.o
 .text.NVIC_SetPriority
                0x0800d46c       0x54 ./board/board.o
 .text.SysTick_Config
                0x0800d4c0       0x44 ./board/board.o
 .text.SystemClock_Config
                0x0800d504       0x2c ./board/board.o
                0x0800d504                SystemClock_Config
 .text.SysTick_Handler
                0x0800d530       0x14 ./board/board.o
                0x0800d530                SysTick_Handler
 .text.rt_hw_board_init
                0x0800d544       0x38 ./board/board.o
                0x0800d544                rt_hw_board_init
 .text.Adc_Init
                0x0800d57c       0x78 ./applications/app_adc.o
                0x0800d57c                Adc_Init
 .text.Adc_ChSample
                0x0800d5f4       0x4c ./applications/app_adc.o
                0x0800d5f4                Adc_ChSample
 .text.Gui_Init
                0x0800d640       0x30 ./applications/app_gui.o
                0x0800d640                Gui_Init
 .text.Gui_GetNumMax
                0x0800d670       0x28 ./applications/app_gui.o
 .text.Gui_GetNumMin
                0x0800d698       0x28 ./applications/app_gui.o
 .text.Gui_MainFunction
                0x0800d6c0      0x124 ./applications/app_gui.o
 .text.Gui_PulseDispRefresh
                0x0800d7e4        0xc ./applications/app_gui.o
                0x0800d7e4                Gui_PulseDispRefresh
 .text.Ps_TaskCreate
                0x0800d7f0       0x48 ./applications/app_pulse_sensor.o
                0x0800d7f0                Ps_TaskCreate
 .text.Ps_Thread_Entry
                0x0800d838       0x20 ./applications/app_pulse_sensor.o
 .text.Ps_ReadSampleValueFromAdc
                0x0800d858       0x28 ./applications/app_pulse_sensor.o
 .text.Ps_HeartRateDeal
                0x0800d880      0x284 ./applications/app_pulse_sensor.o
 .text.Ps_WaveformDeal
                0x0800db04       0x98 ./applications/app_pulse_sensor.o
 .text.Ps_GetBpm
                0x0800db9c       0x18 ./applications/app_pulse_sensor.o
                0x0800db9c                Ps_GetBpm
 .text.Ps_GetWaveformList
                0x0800dbb4       0x14 ./applications/app_pulse_sensor.o
                0x0800dbb4                Ps_GetWaveformList
 .text.Timer_Init
                0x0800dbc8       0x78 ./applications/app_pulse_sensor.o
                0x0800dbc8                Timer_Init
 .text.TIMER1_IRQHandler
                0x0800dc40       0x2c ./applications/app_pulse_sensor.o
                0x0800dc40                TIMER1_IRQHandler
 .text.spi_write_byte
                0x0800dc6c       0x4c ./applications/app_tftlcd_drv.o
 .text.spi1_init
                0x0800dcb8       0x9c ./applications/app_tftlcd_drv.o
 .text.lcd_write_index
                0x0800dd54       0x2c ./applications/app_tftlcd_drv.o
 .text.lcd_write_data
                0x0800dd80       0x2c ./applications/app_tftlcd_drv.o
 .text.lcd_write_data_16bit
                0x0800ddac       0x28 ./applications/app_tftlcd_drv.o
 .text.lcd_reset
                0x0800ddd4       0x28 ./applications/app_tftlcd_drv.o
 .text.lcd_init
                0x0800ddfc      0x21c ./applications/app_tftlcd_drv.o
                0x0800ddfc                lcd_init
 .text.lcd_set_region
                0x0800e018       0x9c ./applications/app_tftlcd_drv.o
                0x0800e018                lcd_set_region
 .text.lcd_set_xy
                0x0800e0b4       0x54 ./applications/app_tftlcd_drv.o
                0x0800e0b4                lcd_set_xy
 .text.lcd_draw_point
                0x0800e108       0x40 ./applications/app_tftlcd_drv.o
                0x0800e108                lcd_draw_point
 .text.lcd_clear
                0x0800e148       0x84 ./applications/app_tftlcd_drv.o
                0x0800e148                lcd_clear
 .text.lcd_draw_font_gbk16
                0x0800e1cc      0x28c ./applications/app_tftlcd_drv.o
                0x0800e1cc                lcd_draw_font_gbk16
 .text.main     0x0800e458       0x28 ./applications/main.o
                0x0800e458                main
 .text.atoi     0x0800e480        0x8 d:/rt-threadstudio/repo/extract/toolchain_support_packages/arm/gnu_tools_for_arm_embedded_processors/5.4.1/bin/../lib/gcc/arm-none-eabi/5.4.1/../../../../arm-none-eabi/lib/armv7e-m/fpu\libc.a(lib_a-atoi.o)
                0x0800e480                atoi
 .text.__get_current_locale
                0x0800e488       0x18 d:/rt-threadstudio/repo/extract/toolchain_support_packages/arm/gnu_tools_for_arm_embedded_processors/5.4.1/bin/../lib/gcc/arm-none-eabi/5.4.1/../../../../arm-none-eabi/lib/armv7e-m/fpu\libc.a(lib_a-locale.o)
 .text.__locale_ctype_ptr_l
                0x0800e4a0        0x8 d:/rt-threadstudio/repo/extract/toolchain_support_packages/arm/gnu_tools_for_arm_embedded_processors/5.4.1/bin/../lib/gcc/arm-none-eabi/5.4.1/../../../../arm-none-eabi/lib/armv7e-m/fpu\libc.a(lib_a-locale.o)
                0x0800e4a0                __locale_ctype_ptr_l
 .text.__locale_ctype_ptr
                0x0800e4a8       0x14 d:/rt-threadstudio/repo/extract/toolchain_support_packages/arm/gnu_tools_for_arm_embedded_processors/5.4.1/bin/../lib/gcc/arm-none-eabi/5.4.1/../../../../arm-none-eabi/lib/armv7e-m/fpu\libc.a(lib_a-locale.o)
                0x0800e4a8                __locale_ctype_ptr
 .text.__ascii_mbtowc
                0x0800e4bc       0x2c d:/rt-threadstudio/repo/extract/toolchain_support_packages/arm/gnu_tools_for_arm_embedded_processors/5.4.1/bin/../lib/gcc/arm-none-eabi/5.4.1/../../../../arm-none-eabi/lib/armv7e-m/fpu\libc.a(lib_a-mbtowc_r.o)
                0x0800e4bc                __ascii_mbtowc
 .text.memcmp   0x0800e4e8       0x64 d:/rt-threadstudio/repo/extract/toolchain_support_packages/arm/gnu_tools_for_arm_embedded_processors/5.4.1/bin/../lib/gcc/arm-none-eabi/5.4.1/../../../../arm-none-eabi/lib/armv7e-m/fpu\libc.a(lib_a-memcmp.o)
                0x0800e4e8                memcmp
 .text.memmove  0x0800e54c       0xc8 d:/rt-threadstudio/repo/extract/toolchain_support_packages/arm/gnu_tools_for_arm_embedded_processors/5.4.1/bin/../lib/gcc/arm-none-eabi/5.4.1/../../../../arm-none-eabi/lib/armv7e-m/fpu\libc.a(lib_a-memmove.o)
                0x0800e54c                memmove
 .text.sprintf  0x0800e614       0x4c d:/rt-threadstudio/repo/extract/toolchain_support_packages/arm/gnu_tools_for_arm_embedded_processors/5.4.1/bin/../lib/gcc/arm-none-eabi/5.4.1/../../../../arm-none-eabi/lib/armv7e-m/fpu\libc.a(lib_a-sprintf.o)
                0x0800e614                sprintf
 .text.strncat  0x0800e660       0x5c d:/rt-threadstudio/repo/extract/toolchain_support_packages/arm/gnu_tools_for_arm_embedded_processors/5.4.1/bin/../lib/gcc/arm-none-eabi/5.4.1/../../../../arm-none-eabi/lib/armv7e-m/fpu\libc.a(lib_a-strncat.o)
                0x0800e660                strncat
 .text.strncmp  0x0800e6bc       0xa0 d:/rt-threadstudio/repo/extract/toolchain_support_packages/arm/gnu_tools_for_arm_embedded_processors/5.4.1/bin/../lib/gcc/arm-none-eabi/5.4.1/../../../../arm-none-eabi/lib/armv7e-m/fpu\libc.a(lib_a-strncmp.o)
                0x0800e6bc                strncmp
 .text.strncpy  0x0800e75c       0x68 d:/rt-threadstudio/repo/extract/toolchain_support_packages/arm/gnu_tools_for_arm_embedded_processors/5.4.1/bin/../lib/gcc/arm-none-eabi/5.4.1/../../../../arm-none-eabi/lib/armv7e-m/fpu\libc.a(lib_a-strncpy.o)
                0x0800e75c                strncpy
 .text._strtol_l.isra.0
                0x0800e7c4      0x138 d:/rt-threadstudio/repo/extract/toolchain_support_packages/arm/gnu_tools_for_arm_embedded_processors/5.4.1/bin/../lib/gcc/arm-none-eabi/5.4.1/../../../../arm-none-eabi/lib/armv7e-m/fpu\libc.a(lib_a-strtol.o)
 .text.strtol   0x0800e8fc       0x2c d:/rt-threadstudio/repo/extract/toolchain_support_packages/arm/gnu_tools_for_arm_embedded_processors/5.4.1/bin/../lib/gcc/arm-none-eabi/5.4.1/../../../../arm-none-eabi/lib/armv7e-m/fpu\libc.a(lib_a-strtol.o)
                0x0800e8fc                strtol
 .text._svfprintf_r
                0x0800e928     0x16e4 d:/rt-threadstudio/repo/extract/toolchain_support_packages/arm/gnu_tools_for_arm_embedded_processors/5.4.1/bin/../lib/gcc/arm-none-eabi/5.4.1/../../../../arm-none-eabi/lib/armv7e-m/fpu\libc.a(lib_a-svfprintf.o)
                0x0800e928                _svfprintf_r
 .text.__ascii_wctomb
                0x0801000c       0x1c d:/rt-threadstudio/repo/extract/toolchain_support_packages/arm/gnu_tools_for_arm_embedded_processors/5.4.1/bin/../lib/gcc/arm-none-eabi/5.4.1/../../../../arm-none-eabi/lib/armv7e-m/fpu\libc.a(lib_a-wctomb_r.o)
                0x0801000c                __ascii_wctomb
 .text.quorem   0x08010028      0x128 d:/rt-threadstudio/repo/extract/toolchain_support_packages/arm/gnu_tools_for_arm_embedded_processors/5.4.1/bin/../lib/gcc/arm-none-eabi/5.4.1/../../../../arm-none-eabi/lib/armv7e-m/fpu\libc.a(lib_a-dtoa.o)
 .text._dtoa_r  0x08010150      0xe34 d:/rt-threadstudio/repo/extract/toolchain_support_packages/arm/gnu_tools_for_arm_embedded_processors/5.4.1/bin/../lib/gcc/arm-none-eabi/5.4.1/../../../../arm-none-eabi/lib/armv7e-m/fpu\libc.a(lib_a-dtoa.o)
                0x08010150                _dtoa_r
 .text._localeconv_r
                0x08010f84       0x1c d:/rt-threadstudio/repo/extract/toolchain_support_packages/arm/gnu_tools_for_arm_embedded_processors/5.4.1/bin/../lib/gcc/arm-none-eabi/5.4.1/../../../../arm-none-eabi/lib/armv7e-m/fpu\libc.a(lib_a-localeconv.o)
                0x08010f84                _localeconv_r
 .text._Balloc  0x08010fa0       0x4c d:/rt-threadstudio/repo/extract/toolchain_support_packages/arm/gnu_tools_for_arm_embedded_processors/5.4.1/bin/../lib/gcc/arm-none-eabi/5.4.1/../../../../arm-none-eabi/lib/armv7e-m/fpu\libc.a(lib_a-mprec.o)
                0x08010fa0                _Balloc
 .text._Bfree   0x08010fec       0x14 d:/rt-threadstudio/repo/extract/toolchain_support_packages/arm/gnu_tools_for_arm_embedded_processors/5.4.1/bin/../lib/gcc/arm-none-eabi/5.4.1/../../../../arm-none-eabi/lib/armv7e-m/fpu\libc.a(lib_a-mprec.o)
                0x08010fec                _Bfree
 .text.__multadd
                0x08011000       0x80 d:/rt-threadstudio/repo/extract/toolchain_support_packages/arm/gnu_tools_for_arm_embedded_processors/5.4.1/bin/../lib/gcc/arm-none-eabi/5.4.1/../../../../arm-none-eabi/lib/armv7e-m/fpu\libc.a(lib_a-mprec.o)
                0x08011000                __multadd
 .text.__hi0bits
                0x08011080       0x40 d:/rt-threadstudio/repo/extract/toolchain_support_packages/arm/gnu_tools_for_arm_embedded_processors/5.4.1/bin/../lib/gcc/arm-none-eabi/5.4.1/../../../../arm-none-eabi/lib/armv7e-m/fpu\libc.a(lib_a-mprec.o)
                0x08011080                __hi0bits
 .text.__lo0bits
                0x080110c0       0x5c d:/rt-threadstudio/repo/extract/toolchain_support_packages/arm/gnu_tools_for_arm_embedded_processors/5.4.1/bin/../lib/gcc/arm-none-eabi/5.4.1/../../../../arm-none-eabi/lib/armv7e-m/fpu\libc.a(lib_a-mprec.o)
                0x080110c0                __lo0bits
 .text.__i2b    0x0801111c       0x14 d:/rt-threadstudio/repo/extract/toolchain_support_packages/arm/gnu_tools_for_arm_embedded_processors/5.4.1/bin/../lib/gcc/arm-none-eabi/5.4.1/../../../../arm-none-eabi/lib/armv7e-m/fpu\libc.a(lib_a-mprec.o)
                0x0801111c                __i2b
 .text.__multiply
                0x08011130      0x130 d:/rt-threadstudio/repo/extract/toolchain_support_packages/arm/gnu_tools_for_arm_embedded_processors/5.4.1/bin/../lib/gcc/arm-none-eabi/5.4.1/../../../../arm-none-eabi/lib/armv7e-m/fpu\libc.a(lib_a-mprec.o)
                0x08011130                __multiply
 .text.__pow5mult
                0x08011260       0xa0 d:/rt-threadstudio/repo/extract/toolchain_support_packages/arm/gnu_tools_for_arm_embedded_processors/5.4.1/bin/../lib/gcc/arm-none-eabi/5.4.1/../../../../arm-none-eabi/lib/armv7e-m/fpu\libc.a(lib_a-mprec.o)
                0x08011260                __pow5mult
 .text.__lshift
                0x08011300       0xb0 d:/rt-threadstudio/repo/extract/toolchain_support_packages/arm/gnu_tools_for_arm_embedded_processors/5.4.1/bin/../lib/gcc/arm-none-eabi/5.4.1/../../../../arm-none-eabi/lib/armv7e-m/fpu\libc.a(lib_a-mprec.o)
                0x08011300                __lshift
 .text.__mcmp   0x080113b0       0x44 d:/rt-threadstudio/repo/extract/toolchain_support_packages/arm/gnu_tools_for_arm_embedded_processors/5.4.1/bin/../lib/gcc/arm-none-eabi/5.4.1/../../../../arm-none-eabi/lib/armv7e-m/fpu\libc.a(lib_a-mprec.o)
                0x080113b0                __mcmp
 .text.__mdiff  0x080113f4      0x114 d:/rt-threadstudio/repo/extract/toolchain_support_packages/arm/gnu_tools_for_arm_embedded_processors/5.4.1/bin/../lib/gcc/arm-none-eabi/5.4.1/../../../../arm-none-eabi/lib/armv7e-m/fpu\libc.a(lib_a-mprec.o)
                0x080113f4                __mdiff
 .text.__d2b    0x08011508       0xbc d:/rt-threadstudio/repo/extract/toolchain_support_packages/arm/gnu_tools_for_arm_embedded_processors/5.4.1/bin/../lib/gcc/arm-none-eabi/5.4.1/../../../../arm-none-eabi/lib/armv7e-m/fpu\libc.a(lib_a-mprec.o)
                0x08011508                __d2b
 .text.__ssprint_r
                0x080115c4      0x100 d:/rt-threadstudio/repo/extract/toolchain_support_packages/arm/gnu_tools_for_arm_embedded_processors/5.4.1/bin/../lib/gcc/arm-none-eabi/5.4.1/../../../../arm-none-eabi/lib/armv7e-m/fpu\libc.a(lib_a-svfiprintf.o)
                0x080115c4                __ssprint_r
 *(.rodata)
 .rodata        0x080116c4       0x17 ./rt-thread/src/components.o
 *fill*         0x080116db        0x1 00000000
 .rodata        0x080116dc       0xf4 ./rt-thread/src/device.o
 .rodata        0x080117d0        0x8 ./rt-thread/src/idle.o
 .rodata        0x080117d8      0x4de ./rt-thread/src/ipc.o
 *fill*         0x08011cb6        0x2 00000000
 .rodata        0x08011cb8      0x1cf ./rt-thread/src/kservice.o
 *fill*         0x08011e87        0x1 00000000
 .rodata        0x08011e88      0x41b ./rt-thread/src/mem.o
 *fill*         0x080122a3        0x1 00000000
 .rodata        0x080122a4       0x91 ./rt-thread/src/object.o
 *fill*         0x08012335        0x3 00000000
 .rodata        0x08012338       0x65 ./rt-thread/src/scheduler.o
 *fill*         0x0801239d        0x3 00000000
 .rodata        0x080123a0      0x19f ./rt-thread/src/thread.o
 *fill*         0x0801253f        0x1 00000000
 .rodata        0x08012540      0x106 ./rt-thread/src/timer.o
 *fill*         0x08012646        0x2 00000000
 .rodata        0x08012648      0x2ce ./rt-thread/libcpu/arm/cortex-m4/cpuport.o
 *fill*         0x08012916        0x2 00000000
 .rodata        0x08012918      0x7df ./rt-thread/components/finsh/cmd.o
 *fill*         0x080130f7        0x1 00000000
 .rodata        0x080130f8       0xb8 ./rt-thread/components/finsh/msh.o
 .rodata        0x080131b0       0x91 ./rt-thread/components/finsh/shell.o
 *fill*         0x08013241        0x3 00000000
 .rodata        0x08013244      0x1a2 ./rt-thread/components/drivers/serial/serial.o
 *fill*         0x080133e6        0x2 00000000
 .rodata        0x080133e8      0x2aa ./rt-thread/components/drivers/misc/pin.o
 *fill*         0x08013692        0x2 00000000
 .rodata        0x08013694       0xd7 ./rt-thread/components/drivers/ipc/completion.o
 *fill*         0x0801376b        0x1 00000000
 .rodata        0x0801376c       0xf4 ./rt-thread/components/drivers/ipc/dataqueue.o
 .rodata        0x08013860       0x85 ./rt-thread/components/drivers/ipc/workqueue.o
 *fill*         0x080138e5        0x3 00000000
 .rodata        0x080138e8       0xc0 ./rt-thread/components/drivers/i2c/i2c-bit-ops.o
 .rodata        0x080139a8       0x97 ./rt-thread/components/drivers/i2c/i2c_core.o
 *fill*         0x08013a3f        0x1 00000000
 .rodata        0x08013a40       0x22 ./rt-thread/components/drivers/i2c/i2c_dev.o
 *fill*         0x08013a62        0x2 00000000
 .rodata        0x08013a64        0x4 ./libraries/gd32_drivers/drv_gpio.o
 .rodata        0x08013a68       0x19 ./libraries/gd32_drivers/drv_soft_i2c.o
 *fill*         0x08013a81        0x3 00000000
 .rodata        0x08013a84       0x58 ./libraries/gd32_drivers/drv_usart.o
 .rodata        0x08013adc       0x18 ./libraries/GD32F4xx_Firmware_Library/GD32F4xx_standard_peripheral/Source/gd32f4xx_rcu.o
 .rodata        0x08013af4        0x6 ./board/board.o
 *fill*         0x08013afa        0x2 00000000
 .rodata        0x08013afc       0x34 ./applications/app_gui.o
 .rodata        0x08013b30        0xa ./applications/app_pulse_sensor.o
 *(.rodata*)
 *fill*         0x08013b3a        0x2 00000000
 .rodata.__FUNCTION__.5254
                0x08013b3c       0x14 ./rt-thread/src/components.o
 .rodata.__FUNCTION__.5163
                0x08013b50        0xf ./rt-thread/src/device.o
 *fill*         0x08013b5f        0x1 00000000
 .rodata.__FUNCTION__.5168
                0x08013b60       0x10 ./rt-thread/src/device.o
 .rodata.__FUNCTION__.5175
                0x08013b70        0xf ./rt-thread/src/device.o
 *fill*         0x08013b7f        0x1 00000000
 .rodata.__FUNCTION__.5182
                0x08013b80       0x10 ./rt-thread/src/device.o
 .rodata.__FUNCTION__.5195
                0x08013b90       0x1a ./rt-thread/src/device.o
 *fill*         0x08013baa        0x2 00000000
 .rodata.__FUNCTION__.5247
                0x08013bac        0xc ./rt-thread/src/ipc.o
 .rodata.__FUNCTION__.5271
                0x08013bb8        0xc ./rt-thread/src/ipc.o
 .rodata.__FUNCTION__.5228
                0x08013bc4       0x12 ./rt-thread/src/ipc.o
 *fill*         0x08013bd6        0x2 00000000
 .rodata.__FUNCTION__.5283
                0x08013bd8        0xf ./rt-thread/src/ipc.o
 *fill*         0x08013be7        0x1 00000000
 .rodata.__FUNCTION__.5297
                0x08013be8        0xe ./rt-thread/src/ipc.o
 *fill*         0x08013bf6        0x2 00000000
 .rodata.__FUNCTION__.5321
                0x08013bf8        0xe ./rt-thread/src/ipc.o
 *fill*         0x08013c06        0x2 00000000
 .rodata.__FUNCTION__.5333
                0x08013c08       0x11 ./rt-thread/src/ipc.o
 *fill*         0x08013c19        0x3 00000000
 .rodata.__lowest_bit_bitmap
                0x08013c1c      0x100 ./rt-thread/src/kservice.o
                0x08013c1c                __lowest_bit_bitmap
 .rodata.large_digits.5394
                0x08013d1c       0x11 ./rt-thread/src/kservice.o
 *fill*         0x08013d2d        0x3 00000000
 .rodata.small_digits.5393
                0x08013d30       0x11 ./rt-thread/src/kservice.o
 *fill*         0x08013d41        0x3 00000000
 .rodata.__FUNCTION__.5544
                0x08013d44       0x14 ./rt-thread/src/kservice.o
 .rodata.__FUNCTION__.5531
                0x08013d58        0xd ./rt-thread/src/kservice.o
 *fill*         0x08013d65        0x3 00000000
 .rodata.__FUNCTION__.5221
                0x08013d68        0xb ./rt-thread/src/mem.o
 *fill*         0x08013d73        0x1 00000000
 .rodata.__FUNCTION__.5246
                0x08013d74        0xe ./rt-thread/src/mem.o
 *fill*         0x08013d82        0x2 00000000
 .rodata.__FUNCTION__.5265
                0x08013d84       0x10 ./rt-thread/src/mem.o
 .rodata.__FUNCTION__.5271
                0x08013d94        0xd ./rt-thread/src/mem.o
 *fill*         0x08013da1        0x3 00000000
 .rodata.__FUNCTION__.5286
                0x08013da4        0xf ./rt-thread/src/object.o
 *fill*         0x08013db3        0x1 00000000
 .rodata.__FUNCTION__.5295
                0x08013db4       0x11 ./rt-thread/src/object.o
 *fill*         0x08013dc5        0x3 00000000
 .rodata.__FUNCTION__.5304
                0x08013dc8       0x13 ./rt-thread/src/object.o
 *fill*         0x08013ddb        0x1 00000000
 .rodata.__FUNCTION__.5309
                0x08013ddc       0x11 ./rt-thread/src/object.o
 *fill*         0x08013ded        0x3 00000000
 .rodata.__FUNCTION__.5313
                0x08013df0       0x1a ./rt-thread/src/object.o
 *fill*         0x08013e0a        0x2 00000000
 .rodata.__FUNCTION__.5317
                0x08013e0c       0x13 ./rt-thread/src/object.o
 *fill*         0x08013e1f        0x1 00000000
 .rodata.__FUNCTION__.5326
                0x08013e20        0xf ./rt-thread/src/object.o
 *fill*         0x08013e2f        0x1 00000000
 .rodata.__FUNCTION__.5228
                0x08013e30       0x17 ./rt-thread/src/scheduler.o
 *fill*         0x08013e47        0x1 00000000
 .rodata.__FUNCTION__.5266
                0x08013e48       0x1a ./rt-thread/src/scheduler.o
 *fill*         0x08013e62        0x2 00000000
 .rodata.__FUNCTION__.5272
                0x08013e64       0x1a ./rt-thread/src/scheduler.o
 *fill*         0x08013e7e        0x2 00000000
 .rodata.__FUNCTION__.5233
                0x08013e80       0x10 ./rt-thread/src/thread.o
 .rodata.__FUNCTION__.5245
                0x08013e90        0xd ./rt-thread/src/thread.o
 *fill*         0x08013e9d        0x3 00000000
 .rodata.__FUNCTION__.5257
                0x08013ea0        0xf ./rt-thread/src/thread.o
 *fill*         0x08013eaf        0x1 00000000
 .rodata.__FUNCTION__.5266
                0x08013eb0       0x12 ./rt-thread/src/thread.o
 *fill*         0x08013ec2        0x2 00000000
 .rodata.__FUNCTION__.5271
                0x08013ec4       0x11 ./rt-thread/src/thread.o
 *fill*         0x08013ed5        0x3 00000000
 .rodata.__FUNCTION__.5287
                0x08013ed8       0x11 ./rt-thread/src/thread.o
 *fill*         0x08013ee9        0x3 00000000
 .rodata.__FUNCTION__.5298
                0x08013eec       0x10 ./rt-thread/src/thread.o
 .rodata.__FUNCTION__.5321
                0x08013efc       0x12 ./rt-thread/src/thread.o
 *fill*         0x08013f0e        0x2 00000000
 .rodata.__FUNCTION__.5333
                0x08013f10       0x12 ./rt-thread/src/thread.o
 *fill*         0x08013f22        0x2 00000000
 .rodata.__FUNCTION__.5338
                0x08013f24       0x11 ./rt-thread/src/thread.o
 *fill*         0x08013f35        0x3 00000000
 .rodata.__FUNCTION__.5256
                0x08013f38        0xe ./rt-thread/src/timer.o
 *fill*         0x08013f46        0x2 00000000
 .rodata.__FUNCTION__.5261
                0x08013f48       0x10 ./rt-thread/src/timer.o
 .rodata.__FUNCTION__.5287
                0x08013f58        0xf ./rt-thread/src/timer.o
 *fill*         0x08013f67        0x1 00000000
 .rodata.__FUNCTION__.5304
                0x08013f68        0xe ./rt-thread/src/timer.o
 *fill*         0x08013f76        0x2 00000000
 .rodata.__FUNCTION__.5311
                0x08013f78       0x11 ./rt-thread/src/timer.o
 *fill*         0x08013f89        0x3 00000000
 .rodata.name   0x08013f8c      0x1b9 ./rt-thread/components/finsh/cmd.o
                0x08013f8c                __fsym_clear_name
                0x08013f94                __fsym_clear_desc
                0x08013fb0                __fsym_version_name
                0x08013fb8                __fsym_version_desc
                0x08013fdc                __fsym_list_thread_name
                0x08013fe8                __fsym_list_thread_desc
                0x08013ff4                __fsym_list_sem_name
                0x08014000                __fsym_list_sem_desc
                0x0801401c                __fsym_list_event_name
                0x08014028                __fsym_list_event_desc
                0x08014040                __fsym_list_mutex_name
                0x0801404c                __fsym_list_mutex_desc
                0x08014064                __fsym_list_mailbox_name
                0x08014074                __fsym_list_mailbox_desc
                0x0801408c                __fsym_list_msgqueue_name
                0x0801409c                __fsym_list_msgqueue_desc
                0x080140bc                __fsym_list_mempool_name
                0x080140cc                __fsym_list_mempool_desc
                0x080140e8                __fsym_list_timer_name
                0x080140f4                __fsym_list_timer_desc
                0x0801410c                __fsym_list_device_name
                0x08014118                __fsym_list_device_desc
                0x08014130                __fsym_list_name
                0x08014138                __fsym_list_desc
 *fill*         0x08014145        0x3 00000000
 .rodata.device_type_str
                0x08014148       0x78 ./rt-thread/components/finsh/cmd.o
 .rodata.name   0x080141c0       0x6d ./rt-thread/components/finsh/msh.o
                0x080141c0                __fsym_help_name
                0x080141c8                __fsym_help_desc
                0x080141e0                __fsym_ps_name
                0x080141e4                __fsym_ps_desc
                0x08014200                __fsym_free_name
                0x08014208                __fsym_free_desc
 *fill*         0x0801422d        0x3 00000000
 .rodata.__FUNCTION__.5530
                0x08014230        0xe ./rt-thread/components/finsh/msh.o
 *fill*         0x0801423e        0x2 00000000
 .rodata.__FUNCTION__.6103
                0x08014240       0x16 ./rt-thread/components/finsh/shell.o
 *fill*         0x08014256        0x2 00000000
 .rodata.__FUNCTION__.6109
                0x08014258        0xe ./rt-thread/components/finsh/shell.o
 *fill*         0x08014266        0x2 00000000
 .rodata.__FUNCTION__.6117
                0x08014268        0xd ./rt-thread/components/finsh/shell.o
 *fill*         0x08014275        0x3 00000000
 .rodata.__FUNCTION__.6122
                0x08014278       0x11 ./rt-thread/components/finsh/shell.o
 *fill*         0x08014289        0x3 00000000
 .rodata.__FUNCTION__.5754
                0x0801428c       0x1d ./rt-thread/components/drivers/serial/serial.o
 *fill*         0x080142a9        0x3 00000000
 .rodata.__FUNCTION__.5763
                0x080142ac       0x1d ./rt-thread/components/drivers/serial/serial.o
 *fill*         0x080142c9        0x3 00000000
 .rodata.__FUNCTION__.5769
                0x080142cc       0x1d ./rt-thread/components/drivers/serial/serial.o
 *fill*         0x080142e9        0x3 00000000
 .rodata.__FUNCTION__.5795
                0x080142ec        0xf ./rt-thread/components/drivers/serial/serial.o
 *fill*         0x080142fb        0x1 00000000
 .rodata.__FUNCTION__.5802
                0x080142fc        0xf ./rt-thread/components/drivers/serial/serial.o
 *fill*         0x0801430b        0x1 00000000
 .rodata.__FUNCTION__.5812
                0x0801430c       0x10 ./rt-thread/components/drivers/serial/serial.o
 .rodata.__FUNCTION__.5825
                0x0801431c        0xf ./rt-thread/components/drivers/serial/serial.o
 *fill*         0x0801432b        0x1 00000000
 .rodata.__FUNCTION__.5729
                0x0801432c        0xf ./rt-thread/components/drivers/serial/serial.o
 *fill*         0x0801433b        0x1 00000000
 .rodata.__FUNCTION__.5776
                0x0801433c        0xf ./rt-thread/components/drivers/serial/serial.o
 *fill*         0x0801434b        0x1 00000000
 .rodata.__FUNCTION__.5708
                0x0801434c       0x10 ./rt-thread/components/drivers/serial/serial.o
 .rodata.__FUNCTION__.5833
                0x0801435c       0x10 ./rt-thread/components/drivers/serial/serial.o
 .rodata.__FUNCTION__.5742
                0x0801436c        0xf ./rt-thread/components/drivers/serial/serial.o
 *fill*         0x0801437b        0x1 00000000
 .rodata.__FUNCTION__.5718
                0x0801437c       0x10 ./rt-thread/components/drivers/serial/serial.o
 .rodata.__FUNCTION__.5841
                0x0801438c       0x12 ./rt-thread/components/drivers/serial/serial.o
 *fill*         0x0801439e        0x2 00000000
 .rodata.__FUNCTION__.5856
                0x080143a0       0x16 ./rt-thread/components/drivers/serial/serial.o
 *fill*         0x080143b6        0x2 00000000
 .rodata.__FUNCTION__.5865
                0x080143b8       0x11 ./rt-thread/components/drivers/serial/serial.o
 *fill*         0x080143c9        0x3 00000000
 .rodata.name   0x080143cc       0x11 ./rt-thread/components/drivers/misc/pin.o
                0x080143cc                __fsym_pin_name
                0x080143d0                __fsym_pin_desc
 *fill*         0x080143dd        0x3 00000000
 .rodata.__FUNCTION__.5208
                0x080143e0        0xa ./rt-thread/components/drivers/misc/pin.o
 *fill*         0x080143ea        0x2 00000000
 .rodata.__FUNCTION__.5217
                0x080143ec        0xb ./rt-thread/components/drivers/misc/pin.o
 *fill*         0x080143f7        0x1 00000000
 .rodata.__FUNCTION__.5225
                0x080143f8        0xd ./rt-thread/components/drivers/misc/pin.o
 *fill*         0x08014405        0x3 00000000
 .rodata.__FUNCTION__.5252
                0x08014408        0xc ./rt-thread/components/drivers/misc/pin.o
 .rodata.__FUNCTION__.5257
                0x08014414        0xd ./rt-thread/components/drivers/misc/pin.o
 *fill*         0x08014421        0x3 00000000
 .rodata.__FUNCTION__.5261
                0x08014424        0xc ./rt-thread/components/drivers/misc/pin.o
 .rodata.__FUNCTION__.5265
                0x08014430        0xb ./rt-thread/components/drivers/misc/pin.o
 *fill*         0x0801443b        0x1 00000000
 .rodata.__FUNCTION__.5705
                0x0801443c       0x13 ./rt-thread/components/drivers/ipc/completion.o
 *fill*         0x0801444f        0x1 00000000
 .rodata.__FUNCTION__.5713
                0x08014450       0x13 ./rt-thread/components/drivers/ipc/completion.o
 *fill*         0x08014463        0x1 00000000
 .rodata.__FUNCTION__.5722
                0x08014464       0x13 ./rt-thread/components/drivers/ipc/completion.o
 *fill*         0x08014477        0x1 00000000
 .rodata.__FUNCTION__.5711
                0x08014478       0x13 ./rt-thread/components/drivers/ipc/dataqueue.o
 *fill*         0x0801448b        0x1 00000000
 .rodata.__FUNCTION__.5721
                0x0801448c       0x13 ./rt-thread/components/drivers/ipc/dataqueue.o
 *fill*         0x0801449f        0x1 00000000
 .rodata.__FUNCTION__.5738
                0x080144a0       0x12 ./rt-thread/components/drivers/ipc/dataqueue.o
 *fill*         0x080144b2        0x2 00000000
 .rodata.__FUNCTION__.5752
                0x080144b4       0x13 ./rt-thread/components/drivers/ipc/dataqueue.o
 *fill*         0x080144c7        0x1 00000000
 .rodata.__FUNCTION__.5758
                0x080144c8       0x14 ./rt-thread/components/drivers/ipc/dataqueue.o
 .rodata.__FUNCTION__.5769
                0x080144dc       0x15 ./rt-thread/components/drivers/ipc/dataqueue.o
 *fill*         0x080144f1        0x3 00000000
 .rodata.__FUNCTION__.5775
                0x080144f4       0x12 ./rt-thread/components/drivers/ipc/dataqueue.o
 *fill*         0x08014506        0x2 00000000
 .rodata.__FUNCTION__.5715
                0x08014508       0x18 ./rt-thread/components/drivers/ipc/workqueue.o
 .rodata.__FUNCTION__.5808
                0x08014520       0x1b ./rt-thread/components/drivers/ipc/workqueue.o
 *fill*         0x0801453b        0x1 00000000
 .rodata.i2c_bit_bus_ops
                0x0801453c        0xc ./rt-thread/components/drivers/i2c/i2c-bit-ops.o
 .rodata.__FUNCTION__.5667
                0x08014548       0x13 ./rt-thread/components/drivers/i2c/i2c_core.o
 *fill*         0x0801455b        0x1 00000000
 .rodata.__FUNCTION__.5636
                0x0801455c       0x14 ./rt-thread/components/drivers/i2c/i2c_dev.o
 .rodata.__FUNCTION__.5646
                0x08014570       0x15 ./rt-thread/components/drivers/i2c/i2c_dev.o
 *fill*         0x08014585        0x3 00000000
 .rodata.__FUNCTION__.5656
                0x08014588       0x17 ./rt-thread/components/drivers/i2c/i2c_dev.o
 *fill*         0x0801459f        0x1 00000000
 .rodata.__FUNCTION__.5668
                0x080145a0       0x1e ./rt-thread/components/drivers/i2c/i2c_dev.o
 *fill*         0x080145be        0x2 00000000
 .rodata.pins   0x080145c0      0x900 ./libraries/gd32_drivers/drv_gpio.o
 .rodata.pin_irq_map
                0x08014ec0       0x40 ./libraries/gd32_drivers/drv_gpio.o
 .rodata.gd32_pin_ops
                0x08014f00       0x1c ./libraries/gd32_drivers/drv_gpio.o
 .rodata.soft_i2c_config
                0x08014f1c        0x8 ./libraries/gd32_drivers/drv_soft_i2c.o
 .rodata.gd32_bit_ops_default
                0x08014f24       0x20 ./libraries/gd32_drivers/drv_soft_i2c.o
 .rodata.__FUNCTION__.9437
                0x08014f44        0xf ./libraries/gd32_drivers/drv_soft_i2c.o
 *fill*         0x08014f53        0x1 00000000
 .rodata.uart_obj
                0x08014f54       0x24 ./libraries/gd32_drivers/drv_usart.o
 .rodata.gd32_uart_ops
                0x08014f78       0x14 ./libraries/gd32_drivers/drv_usart.o
 .rodata.__FUNCTION__.9400
                0x08014f8c       0x14 ./libraries/gd32_drivers/drv_usart.o
 .rodata.__FUNCTION__.9417
                0x08014fa0       0x12 ./libraries/gd32_drivers/drv_usart.o
 *fill*         0x08014fb2        0x2 00000000
 .rodata.__FUNCTION__.9426
                0x08014fb4        0xf ./libraries/gd32_drivers/drv_usart.o
 *fill*         0x08014fc3        0x1 00000000
 .rodata.__FUNCTION__.9435
                0x08014fc4        0xf ./libraries/gd32_drivers/drv_usart.o
 *fill*         0x08014fd3        0x1 00000000
 .rodata.__FUNCTION__.9440
                0x08014fd4       0x15 ./libraries/gd32_drivers/drv_usart.o
 *fill*         0x08014fe9        0x3 00000000
 .rodata.__FUNCTION__.9448
                0x08014fec       0x11 ./libraries/gd32_drivers/drv_usart.o
 *fill*         0x08014ffd        0x3 00000000
 .rodata.asc16  0x08015000      0x5f0 ./applications/app_tftlcd_drv.o
                0x08015000                asc16
 .rodata.hz16   0x080155f0       0x8c ./applications/app_tftlcd_drv.o
                0x080155f0                hz16
 .rodata.str1.4
                0x0801567c        0xe d:/rt-threadstudio/repo/extract/toolchain_support_packages/arm/gnu_tools_for_arm_embedded_processors/5.4.1/bin/../lib/gcc/arm-none-eabi/5.4.1/../../../../arm-none-eabi/lib/armv7e-m/fpu\libc.a(lib_a-locale.o)
                                 0x12 (size before relaxing)
 *fill*         0x0801568a        0x2 00000000
 .rodata.zeroes.7258
                0x0801568c       0x10 d:/rt-threadstudio/repo/extract/toolchain_support_packages/arm/gnu_tools_for_arm_embedded_processors/5.4.1/bin/../lib/gcc/arm-none-eabi/5.4.1/../../../../arm-none-eabi/lib/armv7e-m/fpu\libc.a(lib_a-svfprintf.o)
 .rodata.str1.4
                0x0801569c       0x42 d:/rt-threadstudio/repo/extract/toolchain_support_packages/arm/gnu_tools_for_arm_embedded_processors/5.4.1/bin/../lib/gcc/arm-none-eabi/5.4.1/../../../../arm-none-eabi/lib/armv7e-m/fpu\libc.a(lib_a-svfprintf.o)
 *fill*         0x080156de        0x2 00000000
 .rodata.blanks.7257
                0x080156e0       0x10 d:/rt-threadstudio/repo/extract/toolchain_support_packages/arm/gnu_tools_for_arm_embedded_processors/5.4.1/bin/../lib/gcc/arm-none-eabi/5.4.1/../../../../arm-none-eabi/lib/armv7e-m/fpu\libc.a(lib_a-svfprintf.o)
 .rodata._ctype_
                0x080156f0      0x101 d:/rt-threadstudio/repo/extract/toolchain_support_packages/arm/gnu_tools_for_arm_embedded_processors/5.4.1/bin/../lib/gcc/arm-none-eabi/5.4.1/../../../../arm-none-eabi/lib/armv7e-m/fpu\libc.a(lib_a-ctype_.o)
                0x080156f0                _ctype_
 *fill*         0x080157f1        0x3 00000000
 .rodata.str1.4
                0x080157f4       0x10 d:/rt-threadstudio/repo/extract/toolchain_support_packages/arm/gnu_tools_for_arm_embedded_processors/5.4.1/bin/../lib/gcc/arm-none-eabi/5.4.1/../../../../arm-none-eabi/lib/armv7e-m/fpu\libc.a(lib_a-dtoa.o)
                                 0x12 (size before relaxing)
 *fill*         0x08015804        0x4 00000000
 .rodata.__mprec_tens
                0x08015808       0xc8 d:/rt-threadstudio/repo/extract/toolchain_support_packages/arm/gnu_tools_for_arm_embedded_processors/5.4.1/bin/../lib/gcc/arm-none-eabi/5.4.1/../../../../arm-none-eabi/lib/armv7e-m/fpu\libc.a(lib_a-mprec.o)
                0x08015808                __mprec_tens
 .rodata.__mprec_bigtens
                0x080158d0       0x28 d:/rt-threadstudio/repo/extract/toolchain_support_packages/arm/gnu_tools_for_arm_embedded_processors/5.4.1/bin/../lib/gcc/arm-none-eabi/5.4.1/../../../../arm-none-eabi/lib/armv7e-m/fpu\libc.a(lib_a-mprec.o)
                0x080158d0                __mprec_bigtens
 .rodata.p05.6087
                0x080158f8        0xc d:/rt-threadstudio/repo/extract/toolchain_support_packages/arm/gnu_tools_for_arm_embedded_processors/5.4.1/bin/../lib/gcc/arm-none-eabi/5.4.1/../../../../arm-none-eabi/lib/armv7e-m/fpu\libc.a(lib_a-mprec.o)
 *(.glue_7)
 .glue_7        0x08015904        0x0 linker stubs
 *(.glue_7t)
 .glue_7t       0x08015904        0x0 linker stubs
 *(.gnu.linkonce.t*)
                0x08015904                . = ALIGN (0x4)
                0x08015904                __fsymtab_start = .
 *(FSymTab)
 FSymTab        0x08015904       0x90 ./rt-thread/components/finsh/cmd.o
                0x08015904                __fsym_clear
                0x08015910                __fsym_version
                0x0801591c                __fsym_list_thread
                0x08015928                __fsym_list_sem
                0x08015934                __fsym_list_event
                0x08015940                __fsym_list_mutex
                0x0801594c                __fsym_list_mailbox
                0x08015958                __fsym_list_msgqueue
                0x08015964                __fsym_list_mempool
                0x08015970                __fsym_list_timer
                0x0801597c                __fsym_list_device
                0x08015988                __fsym_list
 FSymTab        0x08015994       0x24 ./rt-thread/components/finsh/msh.o
                0x08015994                __fsym_help
                0x080159a0                __fsym_ps
                0x080159ac                __fsym_free
 FSymTab        0x080159b8        0xc ./rt-thread/components/drivers/misc/pin.o
                0x080159b8                __fsym_pin
                0x080159c4                __fsymtab_end = .
                0x080159c4                . = ALIGN (0x4)
                0x080159c4                __vsymtab_start = .
 *(VSymTab)
                0x080159c4                __vsymtab_end = .
                0x080159c4                . = ALIGN (0x4)
                0x080159c4                . = ALIGN (0x4)
                0x080159c4                __rt_init_start = .
 *(SORT(.rti_fn*))
 .rti_fn.0      0x080159c4        0x4 ./rt-thread/src/components.o
                0x080159c4                __rt_init_rti_start
 .rti_fn.0.end  0x080159c8        0x4 ./rt-thread/src/components.o
                0x080159c8                __rt_init_rti_board_start
 .rti_fn.1      0x080159cc        0x4 ./libraries/gd32_drivers/drv_gpio.o
                0x080159cc                __rt_init_rt_hw_pin_init
 .rti_fn.1      0x080159d0        0x4 ./libraries/gd32_drivers/drv_soft_i2c.o
                0x080159d0                __rt_init_rt_hw_i2c_init
 .rti_fn.1      0x080159d4        0x4 ./libraries/gd32_drivers/drv_usart.o
                0x080159d4                __rt_init_rt_hw_usart_init
 .rti_fn.1.end  0x080159d8        0x4 ./rt-thread/src/components.o
                0x080159d8                __rt_init_rti_board_end
 .rti_fn.2      0x080159dc        0x4 ./rt-thread/components/drivers/ipc/workqueue.o
                0x080159dc                __rt_init_rt_work_sys_workqueue_init
 .rti_fn.4      0x080159e0        0x4 ./rt-thread/components/drivers/i2c/i2c_core.o
                0x080159e0                __rt_init_rt_i2c_core_init
 .rti_fn.6      0x080159e4        0x4 ./rt-thread/components/finsh/shell.o
                0x080159e4                __rt_init_finsh_system_init
 .rti_fn.6.end  0x080159e8        0x4 ./rt-thread/src/components.o
                0x080159e8                __rt_init_rti_end
                0x080159ec                __rt_init_end = .
                0x080159ec                . = ALIGN (0x4)
                0x080159ec                . = ALIGN (0x4)
                0x080159ec                _etext = .
                0x080159ec                __exidx_start = .

.vfp11_veneer   0x080159ec        0x0
 .vfp11_veneer  0x080159ec        0x0 linker stubs

.v4_bx          0x080159ec        0x0
 .v4_bx         0x080159ec        0x0 linker stubs

.init           0x080159ec        0x4
 .init          0x080159ec        0x4 d:/rt-threadstudio/repo/extract/toolchain_support_packages/arm/gnu_tools_for_arm_embedded_processors/5.4.1/bin/../lib/gcc/arm-none-eabi/5.4.1/armv7e-m/fpu/crti.o
                0x080159ec                _init

.fini           0x080159f0        0x4
 .fini          0x080159f0        0x4 d:/rt-threadstudio/repo/extract/toolchain_support_packages/arm/gnu_tools_for_arm_embedded_processors/5.4.1/bin/../lib/gcc/arm-none-eabi/5.4.1/armv7e-m/fpu/crti.o
                0x080159f0                _fini

.iplt           0x080159f4        0x0
 .iplt          0x080159f4        0x0 d:/rt-threadstudio/repo/extract/toolchain_support_packages/arm/gnu_tools_for_arm_embedded_processors/5.4.1/bin/../lib/gcc/arm-none-eabi/5.4.1/armv7e-m/fpu/crtbegin.o

.ARM.exidx      0x080159f4        0x8
 *(.ARM.exidx* .gnu.linkonce.armexidx.*)
 .ARM.exidx     0x080159f4        0x8 d:/rt-threadstudio/repo/extract/toolchain_support_packages/arm/gnu_tools_for_arm_embedded_processors/5.4.1/bin/../lib/gcc/arm-none-eabi/5.4.1/armv7e-m/fpu\libgcc.a(_udivmoddi4.o)
                0x080159fc                _sidata = .
                0x080159fc                __exidx_end = .

.rel.dyn        0x080159fc        0x0
 .rel.iplt      0x080159fc        0x0 d:/rt-threadstudio/repo/extract/toolchain_support_packages/arm/gnu_tools_for_arm_embedded_processors/5.4.1/bin/../lib/gcc/arm-none-eabi/5.4.1/armv7e-m/fpu/crtbegin.o

.data           0x20000000      0x750 load address 0x080159fc
                0x20000000                . = ALIGN (0x4)
                0x20000000                _sdata = .
 *(.data)
 *(.data.*)
 .data._rt_thread_defunct
                0x20000000        0x8 ./rt-thread/src/idle.o
 .data.rt_errno_strs
                0x20000008       0x30 ./rt-thread/src/kservice.o
 .data._object_container
                0x20000038       0xa0 ./rt-thread/src/object.o
 .data.pin_irq_hdr_tab
                0x200000d8       0xc0 ./libraries/gd32_drivers/drv_gpio.o
                0x200000d8                pin_irq_hdr_tab
 .data.SystemCoreClock
                0x20000198        0x4 ./libraries/GD32F4xx_Firmware_Library/CMSIS/GD/GD32F4xx/Source/system_gd32f4xx.o
                0x20000198                SystemCoreClock
 .data.IBI      0x2000019c        0x4 ./applications/app_pulse_sensor.o
                0x2000019c                IBI
 .data.P        0x200001a0        0x4 ./applications/app_pulse_sensor.o
                0x200001a0                P
 .data.T        0x200001a4        0x4 ./applications/app_pulse_sensor.o
                0x200001a4                T
 .data.thresh   0x200001a8        0x4 ./applications/app_pulse_sensor.o
                0x200001a8                thresh
 .data.amp      0x200001ac        0x4 ./applications/app_pulse_sensor.o
                0x200001ac                amp
 .data.firstBeat
                0x200001b0        0x1 ./applications/app_pulse_sensor.o
                0x200001b0                firstBeat
 *fill*         0x200001b1        0x7 
 .data.impure_data
                0x200001b8      0x428 d:/rt-threadstudio/repo/extract/toolchain_support_packages/arm/gnu_tools_for_arm_embedded_processors/5.4.1/bin/../lib/gcc/arm-none-eabi/5.4.1/../../../../arm-none-eabi/lib/armv7e-m/fpu\libc.a(lib_a-impure.o)
 .data._impure_ptr
                0x200005e0        0x4 d:/rt-threadstudio/repo/extract/toolchain_support_packages/arm/gnu_tools_for_arm_embedded_processors/5.4.1/bin/../lib/gcc/arm-none-eabi/5.4.1/../../../../arm-none-eabi/lib/armv7e-m/fpu\libc.a(lib_a-impure.o)
                0x200005e0                _impure_ptr
 .data.__global_locale
                0x200005e4      0x16c d:/rt-threadstudio/repo/extract/toolchain_support_packages/arm/gnu_tools_for_arm_embedded_processors/5.4.1/bin/../lib/gcc/arm-none-eabi/5.4.1/../../../../arm-none-eabi/lib/armv7e-m/fpu\libc.a(lib_a-locale.o)
                0x200005e4                __global_locale
 *(.gnu.linkonce.d*)
                0x20000750                . = ALIGN (0x4)
                0x20000750                _edata = .

.igot.plt       0x20000750        0x0 load address 0x0801614c
 .igot.plt      0x20000750        0x0 d:/rt-threadstudio/repo/extract/toolchain_support_packages/arm/gnu_tools_for_arm_embedded_processors/5.4.1/bin/../lib/gcc/arm-none-eabi/5.4.1/armv7e-m/fpu/crtbegin.o

.stack          0x20000750      0x200 load address 0x0801614c
                0x20000950                . = (. + _system_stack_size)
 *fill*         0x20000750      0x200 
                0x20000950                . = ALIGN (0x4)
                0x20000950                _estack = .
                0x20000950                __bss_start = .

.bss            0x20000950      0x854 load address 0x0801634c
                0x20000950                . = ALIGN (0x4)
                0x20000950                _sbss = .
 *(.bss)
 *(.bss.*)
 .bss.rt_tick   0x20000950        0x4 ./rt-thread/src/clock.o
 .bss.rt_tick_hook
                0x20000954        0x4 ./rt-thread/src/clock.o
 .bss.idle      0x20000958       0x80 ./rt-thread/src/idle.o
 .bss.rt_thread_stack
                0x200009d8      0x100 ./rt-thread/src/idle.o
 .bss.idle_hook_list
                0x20000ad8       0x10 ./rt-thread/src/idle.o
 .bss.rt_interrupt_enter_hook
                0x20000ae8        0x4 ./rt-thread/src/irq.o
 .bss.rt_interrupt_leave_hook
                0x20000aec        0x4 ./rt-thread/src/irq.o
 .bss.rt_interrupt_nest
                0x20000af0        0x1 ./rt-thread/src/irq.o
                0x20000af0                rt_interrupt_nest
 *fill*         0x20000af1        0x3 
 .bss.__rt_errno
                0x20000af4        0x4 ./rt-thread/src/kservice.o
 .bss._console_device
                0x20000af8        0x4 ./rt-thread/src/kservice.o
 .bss.rt_malloc_hook
                0x20000afc        0x4 ./rt-thread/src/kservice.o
 .bss.rt_free_hook
                0x20000b00        0x4 ./rt-thread/src/kservice.o
 .bss._lock     0x20000b04       0x24 ./rt-thread/src/kservice.o
 .bss.system_heap
                0x20000b28        0x4 ./rt-thread/src/kservice.o
 .bss.rt_log_buf.5506
                0x20000b2c       0x80 ./rt-thread/src/kservice.o
 .bss.rt_object_attach_hook
                0x20000bac        0x4 ./rt-thread/src/object.o
 .bss.rt_object_detach_hook
                0x20000bb0        0x4 ./rt-thread/src/object.o
 .bss.rt_scheduler_lock_nest
                0x20000bb4        0x2 ./rt-thread/src/scheduler.o
 *fill*         0x20000bb6        0x2 
 .bss.rt_current_thread
                0x20000bb8        0x4 ./rt-thread/src/scheduler.o
                0x20000bb8                rt_current_thread
 .bss.rt_scheduler_hook
                0x20000bbc        0x4 ./rt-thread/src/scheduler.o
 .bss.rt_scheduler_switch_hook
                0x20000bc0        0x4 ./rt-thread/src/scheduler.o
 .bss.rt_thread_suspend_hook
                0x20000bc4        0x4 ./rt-thread/src/thread.o
 .bss.rt_thread_resume_hook
                0x20000bc8        0x4 ./rt-thread/src/thread.o
 .bss.rt_thread_inited_hook
                0x20000bcc        0x4 ./rt-thread/src/thread.o
 .bss._timer_list
                0x20000bd0        0x8 ./rt-thread/src/timer.o
 .bss.rt_timer_enter_hook
                0x20000bd8        0x4 ./rt-thread/src/timer.o
 .bss.rt_timer_exit_hook
                0x20000bdc        0x4 ./rt-thread/src/timer.o
 .bss.random_nr.5286
                0x20000be0        0x4 ./rt-thread/src/timer.o
 .bss.rt_exception_hook
                0x20000be4        0x4 ./rt-thread/libcpu/arm/cortex-m4/cpuport.o
 .bss._syscall_table_begin
                0x20000be8        0x4 ./rt-thread/components/finsh/shell.o
                0x20000be8                _syscall_table_begin
 .bss._syscall_table_end
                0x20000bec        0x4 ./rt-thread/components/finsh/shell.o
                0x20000bec                _syscall_table_end
 .bss.finsh_prompt_custom
                0x20000bf0        0x4 ./rt-thread/components/finsh/shell.o
 .bss.finsh_prompt.6095
                0x20000bf4       0x81 ./rt-thread/components/finsh/shell.o
 *fill*         0x20000c75        0x3 
 .bss.already_output.5749
                0x20000c78        0x4 ./rt-thread/components/drivers/serial/serial.o
 .bss._hw_pin   0x20000c7c       0x44 ./rt-thread/components/drivers/misc/pin.o
 .bss.sys_workq
                0x20000cc0        0x4 ./rt-thread/components/drivers/ipc/workqueue.o
 .bss.i2c_obj   0x20000cc4       0x98 ./libraries/gd32_drivers/drv_soft_i2c.o
 .bss.pulse_data_point
                0x20000d5c        0x4 ./applications/app_gui.o
 .bss.thread_ps_hd
                0x20000d60        0x4 ./applications/app_pulse_sensor.o
 .bss.Pulse     0x20000d64        0x1 ./applications/app_pulse_sensor.o
                0x20000d64                Pulse
 .bss.QS        0x20000d65        0x1 ./applications/app_pulse_sensor.o
                0x20000d65                QS
 *fill*         0x20000d66        0x2 
 .bss.sampleCounter
                0x20000d68        0x4 ./applications/app_pulse_sensor.o
                0x20000d68                sampleCounter
 .bss.lastBeatTime
                0x20000d6c        0x4 ./applications/app_pulse_sensor.o
                0x20000d6c                lastBeatTime
 .bss.secondBeat
                0x20000d70        0x1 ./applications/app_pulse_sensor.o
                0x20000d70                secondBeat
 *fill*         0x20000d71        0x3 
 .bss.ps_waveformlist
                0x20000d74      0x280 ./applications/app_pulse_sensor.o
                0x20000d74                ps_waveformlist
 *(COMMON)
 COMMON         0x20000ff4        0x4 ./rt-thread/src/kservice.o
                0x20000ff4                rt_assert_hook
 COMMON         0x20000ff8        0xc ./rt-thread/src/object.o
                0x20000ff8                rt_object_put_hook
                0x20000ffc                rt_object_trytake_hook
                0x20001000                rt_object_take_hook
 COMMON         0x20001004      0x108 ./rt-thread/src/scheduler.o
                0x20001004                rt_thread_ready_priority_group
                0x20001008                rt_current_priority
                0x2000100c                rt_thread_priority_table
 COMMON         0x2000110c        0xc ./rt-thread/libcpu/arm/cortex-m4/cpuport.o
                0x2000110c                rt_interrupt_from_thread
                0x20001110                rt_thread_switch_interrupt_flag
                0x20001114                rt_interrupt_to_thread
 COMMON         0x20001118        0x4 ./rt-thread/components/finsh/shell.o
                0x20001118                shell
 COMMON         0x2000111c       0x54 ./libraries/gd32_drivers/drv_usart.o
                0x2000111c                serial0
 COMMON         0x20001170       0x34 ./applications/app_pulse_sensor.o
                0x20001170                Num
                0x20001174                rate
                0x2000119c                BPM
                0x200011a0                Signal
                0x200011a4                . = ALIGN (0x4)
                0x200011a4                _ebss = .
 *(.bss.init)
                0x200011a4                __bss_end = .
                0x200011a4                _end = .

.stab
 *(.stab)

.stabstr
 *(.stabstr)

.stab.excl
 *(.stab.excl)

.stab.exclstr
 *(.stab.exclstr)

.stab.index
 *(.stab.index)

.stab.indexstr
 *(.stab.indexstr)

.comment        0x00000000       0x6e
 *(.comment)
 .comment       0x00000000       0x6e ./rt-thread/src/clock.o
                                 0x6f (size before relaxing)
 .comment       0x0000006e       0x6f ./rt-thread/src/components.o
 .comment       0x0000006e       0x6f ./rt-thread/src/device.o
 .comment       0x0000006e       0x6f ./rt-thread/src/idle.o
 .comment       0x0000006e       0x6f ./rt-thread/src/ipc.o
 .comment       0x0000006e       0x6f ./rt-thread/src/irq.o
 .comment       0x0000006e       0x6f ./rt-thread/src/kservice.o
 .comment       0x0000006e       0x6f ./rt-thread/src/mem.o
 .comment       0x0000006e       0x6f ./rt-thread/src/object.o
 .comment       0x0000006e       0x6f ./rt-thread/src/scheduler.o
 .comment       0x0000006e       0x6f ./rt-thread/src/thread.o
 .comment       0x0000006e       0x6f ./rt-thread/src/timer.o
 .comment       0x0000006e       0x6f ./rt-thread/libcpu/arm/cortex-m4/cpuport.o
 .comment       0x0000006e       0x6f ./rt-thread/components/libc/compilers/newlib/syscalls.o
 .comment       0x0000006e       0x6f ./rt-thread/components/finsh/cmd.o
 .comment       0x0000006e       0x6f ./rt-thread/components/finsh/msh.o
 .comment       0x0000006e       0x6f ./rt-thread/components/finsh/msh_parse.o
 .comment       0x0000006e       0x6f ./rt-thread/components/finsh/shell.o
 .comment       0x0000006e       0x6f ./rt-thread/components/drivers/serial/serial.o
 .comment       0x0000006e       0x6f ./rt-thread/components/drivers/misc/pin.o
 .comment       0x0000006e       0x6f ./rt-thread/components/drivers/ipc/completion.o
 .comment       0x0000006e       0x6f ./rt-thread/components/drivers/ipc/dataqueue.o
 .comment       0x0000006e       0x6f ./rt-thread/components/drivers/ipc/workqueue.o
 .comment       0x0000006e       0x6f ./rt-thread/components/drivers/i2c/i2c-bit-ops.o
 .comment       0x0000006e       0x6f ./rt-thread/components/drivers/i2c/i2c_core.o
 .comment       0x0000006e       0x6f ./rt-thread/components/drivers/i2c/i2c_dev.o
 .comment       0x0000006e       0x6f ./libraries/gd32_drivers/drv_gpio.o
 .comment       0x0000006e       0x6f ./libraries/gd32_drivers/drv_soft_i2c.o
 .comment       0x0000006e       0x6f ./libraries/gd32_drivers/drv_usart.o
 .comment       0x0000006e       0x6f ./libraries/GD32F4xx_Firmware_Library/GD32F4xx_standard_peripheral/Source/gd32f4xx_adc.o
 .comment       0x0000006e       0x6f ./libraries/GD32F4xx_Firmware_Library/GD32F4xx_standard_peripheral/Source/gd32f4xx_exti.o
 .comment       0x0000006e       0x6f ./libraries/GD32F4xx_Firmware_Library/GD32F4xx_standard_peripheral/Source/gd32f4xx_gpio.o
 .comment       0x0000006e       0x6f ./libraries/GD32F4xx_Firmware_Library/GD32F4xx_standard_peripheral/Source/gd32f4xx_misc.o
 .comment       0x0000006e       0x6f ./libraries/GD32F4xx_Firmware_Library/GD32F4xx_standard_peripheral/Source/gd32f4xx_rcu.o
 .comment       0x0000006e       0x6f ./libraries/GD32F4xx_Firmware_Library/GD32F4xx_standard_peripheral/Source/gd32f4xx_spi.o
 .comment       0x0000006e       0x6f ./libraries/GD32F4xx_Firmware_Library/GD32F4xx_standard_peripheral/Source/gd32f4xx_syscfg.o
 .comment       0x0000006e       0x6f ./libraries/GD32F4xx_Firmware_Library/GD32F4xx_standard_peripheral/Source/gd32f4xx_timer.o
 .comment       0x0000006e       0x6f ./libraries/GD32F4xx_Firmware_Library/GD32F4xx_standard_peripheral/Source/gd32f4xx_usart.o
 .comment       0x0000006e       0x6f ./libraries/GD32F4xx_Firmware_Library/CMSIS/GD/GD32F4xx/Source/system_gd32f4xx.o
 .comment       0x0000006e       0x6f ./board/board.o
 .comment       0x0000006e       0x6f ./applications/app_adc.o
 .comment       0x0000006e       0x6f ./applications/app_gui.o
 .comment       0x0000006e       0x6f ./applications/app_pulse_sensor.o
 .comment       0x0000006e       0x6f ./applications/app_tftlcd_drv.o
 .comment       0x0000006e       0x6f ./applications/main.o

.ARM.attributes
                0x00000000       0x30
 .ARM.attributes
                0x00000000       0x22 d:/rt-threadstudio/repo/extract/toolchain_support_packages/arm/gnu_tools_for_arm_embedded_processors/5.4.1/bin/../lib/gcc/arm-none-eabi/5.4.1/armv7e-m/fpu/crti.o
 .ARM.attributes
                0x00000022       0x39 ./rt-thread/src/clock.o
 .ARM.attributes
                0x0000005b       0x39 ./rt-thread/src/components.o
 .ARM.attributes
                0x00000094       0x39 ./rt-thread/src/device.o
 .ARM.attributes
                0x000000cd       0x39 ./rt-thread/src/idle.o
 .ARM.attributes
                0x00000106       0x39 ./rt-thread/src/ipc.o
 .ARM.attributes
                0x0000013f       0x39 ./rt-thread/src/irq.o
 .ARM.attributes
                0x00000178       0x39 ./rt-thread/src/kservice.o
 .ARM.attributes
                0x000001b1       0x39 ./rt-thread/src/mem.o
 .ARM.attributes
                0x000001ea       0x39 ./rt-thread/src/object.o
 .ARM.attributes
                0x00000223       0x39 ./rt-thread/src/scheduler.o
 .ARM.attributes
                0x0000025c       0x39 ./rt-thread/src/thread.o
 .ARM.attributes
                0x00000295       0x39 ./rt-thread/src/timer.o
 .ARM.attributes
                0x000002ce       0x25 ./rt-thread/libcpu/arm/cortex-m4/context_gcc.o
 .ARM.attributes
                0x000002f3       0x39 ./rt-thread/libcpu/arm/cortex-m4/cpuport.o
 .ARM.attributes
                0x0000032c       0x39 ./rt-thread/components/libc/compilers/newlib/syscalls.o
 .ARM.attributes
                0x00000365       0x39 ./rt-thread/components/finsh/cmd.o
 .ARM.attributes
                0x0000039e       0x39 ./rt-thread/components/finsh/msh.o
 .ARM.attributes
                0x000003d7       0x39 ./rt-thread/components/finsh/msh_parse.o
 .ARM.attributes
                0x00000410       0x39 ./rt-thread/components/finsh/shell.o
 .ARM.attributes
                0x00000449       0x39 ./rt-thread/components/drivers/serial/serial.o
 .ARM.attributes
                0x00000482       0x39 ./rt-thread/components/drivers/misc/pin.o
 .ARM.attributes
                0x000004bb       0x39 ./rt-thread/components/drivers/ipc/completion.o
 .ARM.attributes
                0x000004f4       0x39 ./rt-thread/components/drivers/ipc/dataqueue.o
 .ARM.attributes
                0x0000052d       0x39 ./rt-thread/components/drivers/ipc/workqueue.o
 .ARM.attributes
                0x00000566       0x39 ./rt-thread/components/drivers/i2c/i2c-bit-ops.o
 .ARM.attributes
                0x0000059f       0x39 ./rt-thread/components/drivers/i2c/i2c_core.o
 .ARM.attributes
                0x000005d8       0x39 ./rt-thread/components/drivers/i2c/i2c_dev.o
 .ARM.attributes
                0x00000611       0x39 ./libraries/gd32_drivers/drv_gpio.o
 .ARM.attributes
                0x0000064a       0x39 ./libraries/gd32_drivers/drv_soft_i2c.o
 .ARM.attributes
                0x00000683       0x39 ./libraries/gd32_drivers/drv_usart.o
 .ARM.attributes
                0x000006bc       0x39 ./libraries/GD32F4xx_Firmware_Library/GD32F4xx_standard_peripheral/Source/gd32f4xx_adc.o
 .ARM.attributes
                0x000006f5       0x39 ./libraries/GD32F4xx_Firmware_Library/GD32F4xx_standard_peripheral/Source/gd32f4xx_exti.o
 .ARM.attributes
                0x0000072e       0x39 ./libraries/GD32F4xx_Firmware_Library/GD32F4xx_standard_peripheral/Source/gd32f4xx_gpio.o
 .ARM.attributes
                0x00000767       0x39 ./libraries/GD32F4xx_Firmware_Library/GD32F4xx_standard_peripheral/Source/gd32f4xx_misc.o
 .ARM.attributes
                0x000007a0       0x39 ./libraries/GD32F4xx_Firmware_Library/GD32F4xx_standard_peripheral/Source/gd32f4xx_rcu.o
 .ARM.attributes
                0x000007d9       0x39 ./libraries/GD32F4xx_Firmware_Library/GD32F4xx_standard_peripheral/Source/gd32f4xx_spi.o
 .ARM.attributes
                0x00000812       0x39 ./libraries/GD32F4xx_Firmware_Library/GD32F4xx_standard_peripheral/Source/gd32f4xx_syscfg.o
 .ARM.attributes
                0x0000084b       0x39 ./libraries/GD32F4xx_Firmware_Library/GD32F4xx_standard_peripheral/Source/gd32f4xx_timer.o
 .ARM.attributes
                0x00000884       0x39 ./libraries/GD32F4xx_Firmware_Library/GD32F4xx_standard_peripheral/Source/gd32f4xx_usart.o
 .ARM.attributes
                0x000008bd       0x21 ./libraries/GD32F4xx_Firmware_Library/CMSIS/GD/GD32F4xx/Source/GCC/startup_gd32f4xx.o
 .ARM.attributes
                0x000008de       0x39 ./libraries/GD32F4xx_Firmware_Library/CMSIS/GD/GD32F4xx/Source/system_gd32f4xx.o
 .ARM.attributes
                0x00000917       0x39 ./board/board.o
 .ARM.attributes
                0x00000950       0x39 ./applications/app_adc.o
 .ARM.attributes
                0x00000989       0x39 ./applications/app_gui.o
 .ARM.attributes
                0x000009c2       0x39 ./applications/app_pulse_sensor.o
 .ARM.attributes
                0x000009fb       0x39 ./applications/app_tftlcd_drv.o
 .ARM.attributes
                0x00000a34       0x39 ./applications/main.o
 .ARM.attributes
                0x00000a6d       0x34 d:/rt-threadstudio/repo/extract/toolchain_support_packages/arm/gnu_tools_for_arm_embedded_processors/5.4.1/bin/../lib/gcc/arm-none-eabi/5.4.1/../../../../arm-none-eabi/lib/armv7e-m/fpu\libc.a(lib_a-atoi.o)
 .ARM.attributes
                0x00000aa1       0x34 d:/rt-threadstudio/repo/extract/toolchain_support_packages/arm/gnu_tools_for_arm_embedded_processors/5.4.1/bin/../lib/gcc/arm-none-eabi/5.4.1/../../../../arm-none-eabi/lib/armv7e-m/fpu\libc.a(lib_a-impure.o)
 .ARM.attributes
                0x00000ad5       0x34 d:/rt-threadstudio/repo/extract/toolchain_support_packages/arm/gnu_tools_for_arm_embedded_processors/5.4.1/bin/../lib/gcc/arm-none-eabi/5.4.1/../../../../arm-none-eabi/lib/armv7e-m/fpu\libc.a(lib_a-locale.o)
 .ARM.attributes
                0x00000b09       0x34 d:/rt-threadstudio/repo/extract/toolchain_support_packages/arm/gnu_tools_for_arm_embedded_processors/5.4.1/bin/../lib/gcc/arm-none-eabi/5.4.1/../../../../arm-none-eabi/lib/armv7e-m/fpu\libc.a(lib_a-mbtowc_r.o)
 .ARM.attributes
                0x00000b3d       0x34 d:/rt-threadstudio/repo/extract/toolchain_support_packages/arm/gnu_tools_for_arm_embedded_processors/5.4.1/bin/../lib/gcc/arm-none-eabi/5.4.1/../../../../arm-none-eabi/lib/armv7e-m/fpu\libc.a(lib_a-memcmp.o)
 .ARM.attributes
                0x00000b71       0x20 d:/rt-threadstudio/repo/extract/toolchain_support_packages/arm/gnu_tools_for_arm_embedded_processors/5.4.1/bin/../lib/gcc/arm-none-eabi/5.4.1/../../../../arm-none-eabi/lib/armv7e-m/fpu\libc.a(lib_a-memcpy.o)
 .ARM.attributes
                0x00000b91       0x34 d:/rt-threadstudio/repo/extract/toolchain_support_packages/arm/gnu_tools_for_arm_embedded_processors/5.4.1/bin/../lib/gcc/arm-none-eabi/5.4.1/../../../../arm-none-eabi/lib/armv7e-m/fpu\libc.a(lib_a-memmove.o)
 .ARM.attributes
                0x00000bc5       0x34 d:/rt-threadstudio/repo/extract/toolchain_support_packages/arm/gnu_tools_for_arm_embedded_processors/5.4.1/bin/../lib/gcc/arm-none-eabi/5.4.1/../../../../arm-none-eabi/lib/armv7e-m/fpu\libc.a(lib_a-sprintf.o)
 .ARM.attributes
                0x00000bf9       0x20 d:/rt-threadstudio/repo/extract/toolchain_support_packages/arm/gnu_tools_for_arm_embedded_processors/5.4.1/bin/../lib/gcc/arm-none-eabi/5.4.1/../../../../arm-none-eabi/lib/armv7e-m/fpu\libc.a(lib_a-strcmp.o)
 .ARM.attributes
                0x00000c19       0x20 d:/rt-threadstudio/repo/extract/toolchain_support_packages/arm/gnu_tools_for_arm_embedded_processors/5.4.1/bin/../lib/gcc/arm-none-eabi/5.4.1/../../../../arm-none-eabi/lib/armv7e-m/fpu\libc.a(lib_a-strlen.o)
 .ARM.attributes
                0x00000c39       0x34 d:/rt-threadstudio/repo/extract/toolchain_support_packages/arm/gnu_tools_for_arm_embedded_processors/5.4.1/bin/../lib/gcc/arm-none-eabi/5.4.1/../../../../arm-none-eabi/lib/armv7e-m/fpu\libc.a(lib_a-strncat.o)
 .ARM.attributes
                0x00000c6d       0x34 d:/rt-threadstudio/repo/extract/toolchain_support_packages/arm/gnu_tools_for_arm_embedded_processors/5.4.1/bin/../lib/gcc/arm-none-eabi/5.4.1/../../../../arm-none-eabi/lib/armv7e-m/fpu\libc.a(lib_a-strncmp.o)
 .ARM.attributes
                0x00000ca1       0x34 d:/rt-threadstudio/repo/extract/toolchain_support_packages/arm/gnu_tools_for_arm_embedded_processors/5.4.1/bin/../lib/gcc/arm-none-eabi/5.4.1/../../../../arm-none-eabi/lib/armv7e-m/fpu\libc.a(lib_a-strncpy.o)
 .ARM.attributes
                0x00000cd5       0x34 d:/rt-threadstudio/repo/extract/toolchain_support_packages/arm/gnu_tools_for_arm_embedded_processors/5.4.1/bin/../lib/gcc/arm-none-eabi/5.4.1/../../../../arm-none-eabi/lib/armv7e-m/fpu\libc.a(lib_a-strtol.o)
 .ARM.attributes
                0x00000d09       0x34 d:/rt-threadstudio/repo/extract/toolchain_support_packages/arm/gnu_tools_for_arm_embedded_processors/5.4.1/bin/../lib/gcc/arm-none-eabi/5.4.1/../../../../arm-none-eabi/lib/armv7e-m/fpu\libc.a(lib_a-svfprintf.o)
 .ARM.attributes
                0x00000d3d       0x34 d:/rt-threadstudio/repo/extract/toolchain_support_packages/arm/gnu_tools_for_arm_embedded_processors/5.4.1/bin/../lib/gcc/arm-none-eabi/5.4.1/../../../../arm-none-eabi/lib/armv7e-m/fpu\libc.a(lib_a-wctomb_r.o)
 .ARM.attributes
                0x00000d71       0x34 d:/rt-threadstudio/repo/extract/toolchain_support_packages/arm/gnu_tools_for_arm_embedded_processors/5.4.1/bin/../lib/gcc/arm-none-eabi/5.4.1/../../../../arm-none-eabi/lib/armv7e-m/fpu\libc.a(lib_a-ctype_.o)
 .ARM.attributes
                0x00000da5       0x34 d:/rt-threadstudio/repo/extract/toolchain_support_packages/arm/gnu_tools_for_arm_embedded_processors/5.4.1/bin/../lib/gcc/arm-none-eabi/5.4.1/../../../../arm-none-eabi/lib/armv7e-m/fpu\libc.a(lib_a-dtoa.o)
 .ARM.attributes
                0x00000dd9       0x34 d:/rt-threadstudio/repo/extract/toolchain_support_packages/arm/gnu_tools_for_arm_embedded_processors/5.4.1/bin/../lib/gcc/arm-none-eabi/5.4.1/../../../../arm-none-eabi/lib/armv7e-m/fpu\libc.a(lib_a-localeconv.o)
 .ARM.attributes
                0x00000e0d       0x20 d:/rt-threadstudio/repo/extract/toolchain_support_packages/arm/gnu_tools_for_arm_embedded_processors/5.4.1/bin/../lib/gcc/arm-none-eabi/5.4.1/../../../../arm-none-eabi/lib/armv7e-m/fpu\libc.a(lib_a-memchr.o)
 .ARM.attributes
                0x00000e2d       0x34 d:/rt-threadstudio/repo/extract/toolchain_support_packages/arm/gnu_tools_for_arm_embedded_processors/5.4.1/bin/../lib/gcc/arm-none-eabi/5.4.1/../../../../arm-none-eabi/lib/armv7e-m/fpu\libc.a(lib_a-mprec.o)
 .ARM.attributes
                0x00000e61       0x34 d:/rt-threadstudio/repo/extract/toolchain_support_packages/arm/gnu_tools_for_arm_embedded_processors/5.4.1/bin/../lib/gcc/arm-none-eabi/5.4.1/../../../../arm-none-eabi/lib/armv7e-m/fpu\libc.a(lib_a-svfiprintf.o)
 .ARM.attributes
                0x00000e95       0x22 d:/rt-threadstudio/repo/extract/toolchain_support_packages/arm/gnu_tools_for_arm_embedded_processors/5.4.1/bin/../lib/gcc/arm-none-eabi/5.4.1/armv7e-m/fpu\libgcc.a(_arm_addsubdf3.o)
 .ARM.attributes
                0x00000eb7       0x22 d:/rt-threadstudio/repo/extract/toolchain_support_packages/arm/gnu_tools_for_arm_embedded_processors/5.4.1/bin/../lib/gcc/arm-none-eabi/5.4.1/armv7e-m/fpu\libgcc.a(_arm_muldivdf3.o)
 .ARM.attributes
                0x00000ed9       0x22 d:/rt-threadstudio/repo/extract/toolchain_support_packages/arm/gnu_tools_for_arm_embedded_processors/5.4.1/bin/../lib/gcc/arm-none-eabi/5.4.1/armv7e-m/fpu\libgcc.a(_arm_cmpdf2.o)
 .ARM.attributes
                0x00000efb       0x22 d:/rt-threadstudio/repo/extract/toolchain_support_packages/arm/gnu_tools_for_arm_embedded_processors/5.4.1/bin/../lib/gcc/arm-none-eabi/5.4.1/armv7e-m/fpu\libgcc.a(_arm_unorddf2.o)
 .ARM.attributes
                0x00000f1d       0x22 d:/rt-threadstudio/repo/extract/toolchain_support_packages/arm/gnu_tools_for_arm_embedded_processors/5.4.1/bin/../lib/gcc/arm-none-eabi/5.4.1/armv7e-m/fpu\libgcc.a(_arm_fixdfsi.o)
 .ARM.attributes
                0x00000f3f       0x22 d:/rt-threadstudio/repo/extract/toolchain_support_packages/arm/gnu_tools_for_arm_embedded_processors/5.4.1/bin/../lib/gcc/arm-none-eabi/5.4.1/armv7e-m/fpu\libgcc.a(_aeabi_uldivmod.o)
 .ARM.attributes
                0x00000f61       0x34 d:/rt-threadstudio/repo/extract/toolchain_support_packages/arm/gnu_tools_for_arm_embedded_processors/5.4.1/bin/../lib/gcc/arm-none-eabi/5.4.1/armv7e-m/fpu\libgcc.a(_udivmoddi4.o)
 .ARM.attributes
                0x00000f95       0x22 d:/rt-threadstudio/repo/extract/toolchain_support_packages/arm/gnu_tools_for_arm_embedded_processors/5.4.1/bin/../lib/gcc/arm-none-eabi/5.4.1/armv7e-m/fpu\libgcc.a(_dvmd_tls.o)

.debug
 *(.debug)

.line
 *(.line)

.debug_srcinfo
 *(.debug_srcinfo)

.debug_sfnames
 *(.debug_sfnames)

.debug_aranges  0x00000000     0x1d80
 *(.debug_aranges)
 .debug_aranges
                0x00000000       0x48 ./rt-thread/src/clock.o
 .debug_aranges
                0x00000048       0x68 ./rt-thread/src/components.o
 .debug_aranges
                0x000000b0       0x80 ./rt-thread/src/device.o
 .debug_aranges
                0x00000130       0x68 ./rt-thread/src/idle.o
 .debug_aranges
                0x00000198      0x198 ./rt-thread/src/ipc.o
 .debug_aranges
                0x00000330       0x40 ./rt-thread/src/irq.o
 .debug_aranges
                0x00000370      0x198 ./rt-thread/src/kservice.o
 .debug_aranges
                0x00000508       0x48 ./rt-thread/src/mem.o
 .debug_aranges
                0x00000550       0xa0 ./rt-thread/src/object.o
 .debug_aranges
                0x000005f0       0xa0 ./rt-thread/src/scheduler.o
 .debug_aranges
                0x00000690       0xd0 ./rt-thread/src/thread.o
 .debug_aranges
                0x00000760       0xb8 ./rt-thread/src/timer.o
 .debug_aranges
                0x00000818       0x20 ./rt-thread/libcpu/arm/cortex-m4/context_gcc.o
 .debug_aranges
                0x00000838       0x60 ./rt-thread/libcpu/arm/cortex-m4/cpuport.o
 .debug_aranges
                0x00000898       0xf0 ./rt-thread/components/libc/compilers/newlib/syscalls.o
 .debug_aranges
                0x00000988       0xa8 ./rt-thread/components/finsh/cmd.o
 .debug_aranges
                0x00000a30       0x60 ./rt-thread/components/finsh/msh.o
 .debug_aranges
                0x00000a90       0x30 ./rt-thread/components/finsh/msh_parse.o
 .debug_aranges
                0x00000ac0       0x98 ./rt-thread/components/finsh/shell.o
 .debug_aranges
                0x00000b58       0xb0 ./rt-thread/components/drivers/serial/serial.o
 .debug_aranges
                0x00000c08       0xa8 ./rt-thread/components/drivers/misc/pin.o
 .debug_aranges
                0x00000cb0       0x48 ./rt-thread/components/drivers/ipc/completion.o
 .debug_aranges
                0x00000cf8       0x68 ./rt-thread/components/drivers/ipc/dataqueue.o
 .debug_aranges
                0x00000d60       0xc8 ./rt-thread/components/drivers/ipc/workqueue.o
 .debug_aranges
                0x00000e28       0x98 ./rt-thread/components/drivers/i2c/i2c-bit-ops.o
 .debug_aranges
                0x00000ec0       0x50 ./rt-thread/components/drivers/i2c/i2c_core.o
 .debug_aranges
                0x00000f10       0x38 ./rt-thread/components/drivers/i2c/i2c_dev.o
 .debug_aranges
                0x00000f48       0xb0 ./libraries/gd32_drivers/drv_gpio.o
 .debug_aranges
                0x00000ff8       0x58 ./libraries/gd32_drivers/drv_soft_i2c.o
 .debug_aranges
                0x00001050       0x70 ./libraries/gd32_drivers/drv_usart.o
 .debug_aranges
                0x000010c0      0x188 ./libraries/GD32F4xx_Firmware_Library/GD32F4xx_standard_peripheral/Source/gd32f4xx_adc.o
 .debug_aranges
                0x00001248       0x78 ./libraries/GD32F4xx_Firmware_Library/GD32F4xx_standard_peripheral/Source/gd32f4xx_exti.o
 .debug_aranges
                0x000012c0       0x90 ./libraries/GD32F4xx_Firmware_Library/GD32F4xx_standard_peripheral/Source/gd32f4xx_gpio.o
 .debug_aranges
                0x00001350       0x50 ./libraries/GD32F4xx_Firmware_Library/GD32F4xx_standard_peripheral/Source/gd32f4xx_misc.o
 .debug_aranges
                0x000013a0      0x190 ./libraries/GD32F4xx_Firmware_Library/GD32F4xx_standard_peripheral/Source/gd32f4xx_rcu.o
 .debug_aranges
                0x00001530      0x150 ./libraries/GD32F4xx_Firmware_Library/GD32F4xx_standard_peripheral/Source/gd32f4xx_spi.o
 .debug_aranges
                0x00001680       0x58 ./libraries/GD32F4xx_Firmware_Library/GD32F4xx_standard_peripheral/Source/gd32f4xx_syscfg.o
 .debug_aranges
                0x000016d8      0x258 ./libraries/GD32F4xx_Firmware_Library/GD32F4xx_standard_peripheral/Source/gd32f4xx_timer.o
 .debug_aranges
                0x00001930      0x1d0 ./libraries/GD32F4xx_Firmware_Library/GD32F4xx_standard_peripheral/Source/gd32f4xx_usart.o
 .debug_aranges
                0x00001b00       0x28 ./libraries/GD32F4xx_Firmware_Library/CMSIS/GD/GD32F4xx/Source/GCC/startup_gd32f4xx.o
 .debug_aranges
                0x00001b28       0x38 ./libraries/GD32F4xx_Firmware_Library/CMSIS/GD/GD32F4xx/Source/system_gd32f4xx.o
 .debug_aranges
                0x00001b60       0x48 ./board/board.o
 .debug_aranges
                0x00001ba8       0x28 ./applications/app_adc.o
 .debug_aranges
                0x00001bd0       0x40 ./applications/app_gui.o
 .debug_aranges
                0x00001c10       0x80 ./applications/app_pulse_sensor.o
 .debug_aranges
                0x00001c90       0xd0 ./applications/app_tftlcd_drv.o
 .debug_aranges
                0x00001d60       0x20 ./applications/main.o

.debug_pubnames
 *(.debug_pubnames)

.debug_info     0x00000000    0x1f861
 *(.debug_info .gnu.linkonce.wi.*)
 .debug_info    0x00000000      0x4cc ./rt-thread/src/clock.o
 .debug_info    0x000004cc      0x566 ./rt-thread/src/components.o
 .debug_info    0x00000a32      0x93c ./rt-thread/src/device.o
 .debug_info    0x0000136e      0x6ae ./rt-thread/src/idle.o
 .debug_info    0x00001a1c     0x1d64 ./rt-thread/src/ipc.o
 .debug_info    0x00003780      0x1f2 ./rt-thread/src/irq.o
 .debug_info    0x00003972     0x187d ./rt-thread/src/kservice.o
 .debug_info    0x000051ef      0x665 ./rt-thread/src/mem.o
 .debug_info    0x00005854      0x8ba ./rt-thread/src/object.o
 .debug_info    0x0000610e      0x892 ./rt-thread/src/scheduler.o
 .debug_info    0x000069a0      0xc5b ./rt-thread/src/thread.o
 .debug_info    0x000075fb      0x99d ./rt-thread/src/timer.o
 .debug_info    0x00007f98       0xa7 ./rt-thread/libcpu/arm/cortex-m4/context_gcc.o
 .debug_info    0x0000803f      0x452 ./rt-thread/libcpu/arm/cortex-m4/cpuport.o
 .debug_info    0x00008491     0x170f ./rt-thread/components/libc/compilers/newlib/syscalls.o
 .debug_info    0x00009ba0     0x1840 ./rt-thread/components/finsh/cmd.o
 .debug_info    0x0000b3e0      0x62c ./rt-thread/components/finsh/msh.o
 .debug_info    0x0000ba0c      0x16f ./rt-thread/components/finsh/msh_parse.o
 .debug_info    0x0000bb7b      0xd6d ./rt-thread/components/finsh/shell.o
 .debug_info    0x0000c8e8     0x12f3 ./rt-thread/components/drivers/serial/serial.o
 .debug_info    0x0000dbdb      0xd70 ./rt-thread/components/drivers/misc/pin.o
 .debug_info    0x0000e94b      0x5f8 ./rt-thread/components/drivers/ipc/completion.o
 .debug_info    0x0000ef43      0x9a9 ./rt-thread/components/drivers/ipc/dataqueue.o
 .debug_info    0x0000f8ec      0xc25 ./rt-thread/components/drivers/ipc/workqueue.o
 .debug_info    0x00010511      0xe87 ./rt-thread/components/drivers/i2c/i2c-bit-ops.o
 .debug_info    0x00011398      0xaf0 ./rt-thread/components/drivers/i2c/i2c_core.o
 .debug_info    0x00011e88      0xac2 ./rt-thread/components/drivers/i2c/i2c_dev.o
 .debug_info    0x0001294a     0x11e1 ./libraries/gd32_drivers/drv_gpio.o
 .debug_info    0x00013b2b      0xc84 ./libraries/gd32_drivers/drv_soft_i2c.o
 .debug_info    0x000147af     0x1400 ./libraries/gd32_drivers/drv_usart.o
 .debug_info    0x00015baf      0xd54 ./libraries/GD32F4xx_Firmware_Library/GD32F4xx_standard_peripheral/Source/gd32f4xx_adc.o
 .debug_info    0x00016903      0x408 ./libraries/GD32F4xx_Firmware_Library/GD32F4xx_standard_peripheral/Source/gd32f4xx_exti.o
 .debug_info    0x00016d0b      0x6c4 ./libraries/GD32F4xx_Firmware_Library/GD32F4xx_standard_peripheral/Source/gd32f4xx_gpio.o
 .debug_info    0x000173cf      0x5d1 ./libraries/GD32F4xx_Firmware_Library/GD32F4xx_standard_peripheral/Source/gd32f4xx_misc.o
 .debug_info    0x000179a0     0x1357 ./libraries/GD32F4xx_Firmware_Library/GD32F4xx_standard_peripheral/Source/gd32f4xx_rcu.o
 .debug_info    0x00018cf7      0xc0e ./libraries/GD32F4xx_Firmware_Library/GD32F4xx_standard_peripheral/Source/gd32f4xx_spi.o
 .debug_info    0x00019905      0x433 ./libraries/GD32F4xx_Firmware_Library/GD32F4xx_standard_peripheral/Source/gd32f4xx_syscfg.o
 .debug_info    0x00019d38     0x1597 ./libraries/GD32F4xx_Firmware_Library/GD32F4xx_standard_peripheral/Source/gd32f4xx_timer.o
 .debug_info    0x0001b2cf     0x1095 ./libraries/GD32F4xx_Firmware_Library/GD32F4xx_standard_peripheral/Source/gd32f4xx_usart.o
 .debug_info    0x0001c364       0xca ./libraries/GD32F4xx_Firmware_Library/CMSIS/GD/GD32F4xx/Source/GCC/startup_gd32f4xx.o
 .debug_info    0x0001c42e      0x427 ./libraries/GD32F4xx_Firmware_Library/CMSIS/GD/GD32F4xx/Source/system_gd32f4xx.o
 .debug_info    0x0001c855      0x75e ./board/board.o
 .debug_info    0x0001cfb3      0x345 ./applications/app_adc.o
 .debug_info    0x0001d2f8      0x589 ./applications/app_gui.o
 .debug_info    0x0001d881      0xf81 ./applications/app_pulse_sensor.o
 .debug_info    0x0001e802      0xca0 ./applications/app_tftlcd_drv.o
 .debug_info    0x0001f4a2      0x3bf ./applications/main.o

.debug_abbrev   0x00000000     0x5009
 *(.debug_abbrev)
 .debug_abbrev  0x00000000      0x164 ./rt-thread/src/clock.o
 .debug_abbrev  0x00000164      0x166 ./rt-thread/src/components.o
 .debug_abbrev  0x000002ca      0x177 ./rt-thread/src/device.o
 .debug_abbrev  0x00000441      0x1b2 ./rt-thread/src/idle.o
 .debug_abbrev  0x000005f3      0x1d2 ./rt-thread/src/ipc.o
 .debug_abbrev  0x000007c5       0xde ./rt-thread/src/irq.o
 .debug_abbrev  0x000008a3      0x32c ./rt-thread/src/kservice.o
 .debug_abbrev  0x00000bcf      0x1c3 ./rt-thread/src/mem.o
 .debug_abbrev  0x00000d92      0x1e2 ./rt-thread/src/object.o
 .debug_abbrev  0x00000f74      0x227 ./rt-thread/src/scheduler.o
 .debug_abbrev  0x0000119b      0x1e3 ./rt-thread/src/thread.o
 .debug_abbrev  0x0000137e      0x22f ./rt-thread/src/timer.o
 .debug_abbrev  0x000015ad       0x14 ./rt-thread/libcpu/arm/cortex-m4/context_gcc.o
 .debug_abbrev  0x000015c1      0x1d6 ./rt-thread/libcpu/arm/cortex-m4/cpuport.o
 .debug_abbrev  0x00001797      0x2ac ./rt-thread/components/libc/compilers/newlib/syscalls.o
 .debug_abbrev  0x00001a43      0x270 ./rt-thread/components/finsh/cmd.o
 .debug_abbrev  0x00001cb3      0x1f7 ./rt-thread/components/finsh/msh.o
 .debug_abbrev  0x00001eaa       0xae ./rt-thread/components/finsh/msh_parse.o
 .debug_abbrev  0x00001f58      0x2d0 ./rt-thread/components/finsh/shell.o
 .debug_abbrev  0x00002228      0x22e ./rt-thread/components/drivers/serial/serial.o
 .debug_abbrev  0x00002456      0x22e ./rt-thread/components/drivers/misc/pin.o
 .debug_abbrev  0x00002684      0x182 ./rt-thread/components/drivers/ipc/completion.o
 .debug_abbrev  0x00002806      0x201 ./rt-thread/components/drivers/ipc/dataqueue.o
 .debug_abbrev  0x00002a07      0x242 ./rt-thread/components/drivers/ipc/workqueue.o
 .debug_abbrev  0x00002c49      0x1fd ./rt-thread/components/drivers/i2c/i2c-bit-ops.o
 .debug_abbrev  0x00002e46      0x18d ./rt-thread/components/drivers/i2c/i2c_core.o
 .debug_abbrev  0x00002fd3      0x182 ./rt-thread/components/drivers/i2c/i2c_dev.o
 .debug_abbrev  0x00003155      0x2c1 ./libraries/gd32_drivers/drv_gpio.o
 .debug_abbrev  0x00003416      0x1f5 ./libraries/gd32_drivers/drv_soft_i2c.o
 .debug_abbrev  0x0000360b      0x2b8 ./libraries/gd32_drivers/drv_usart.o
 .debug_abbrev  0x000038c3      0x15e ./libraries/GD32F4xx_Firmware_Library/GD32F4xx_standard_peripheral/Source/gd32f4xx_adc.o
 .debug_abbrev  0x00003a21      0x10c ./libraries/GD32F4xx_Firmware_Library/GD32F4xx_standard_peripheral/Source/gd32f4xx_exti.o
 .debug_abbrev  0x00003b2d      0x16a ./libraries/GD32F4xx_Firmware_Library/GD32F4xx_standard_peripheral/Source/gd32f4xx_gpio.o
 .debug_abbrev  0x00003c97      0x128 ./libraries/GD32F4xx_Firmware_Library/GD32F4xx_standard_peripheral/Source/gd32f4xx_misc.o
 .debug_abbrev  0x00003dbf      0x193 ./libraries/GD32F4xx_Firmware_Library/GD32F4xx_standard_peripheral/Source/gd32f4xx_rcu.o
 .debug_abbrev  0x00003f52      0x180 ./libraries/GD32F4xx_Firmware_Library/GD32F4xx_standard_peripheral/Source/gd32f4xx_spi.o
 .debug_abbrev  0x000040d2      0x101 ./libraries/GD32F4xx_Firmware_Library/GD32F4xx_standard_peripheral/Source/gd32f4xx_syscfg.o
 .debug_abbrev  0x000041d3      0x17c ./libraries/GD32F4xx_Firmware_Library/GD32F4xx_standard_peripheral/Source/gd32f4xx_timer.o
 .debug_abbrev  0x0000434f      0x173 ./libraries/GD32F4xx_Firmware_Library/GD32F4xx_standard_peripheral/Source/gd32f4xx_usart.o
 .debug_abbrev  0x000044c2       0x12 ./libraries/GD32F4xx_Firmware_Library/CMSIS/GD/GD32F4xx/Source/GCC/startup_gd32f4xx.o
 .debug_abbrev  0x000044d4      0x165 ./libraries/GD32F4xx_Firmware_Library/CMSIS/GD/GD32F4xx/Source/system_gd32f4xx.o
 .debug_abbrev  0x00004639      0x173 ./board/board.o
 .debug_abbrev  0x000047ac       0xb5 ./applications/app_adc.o
 .debug_abbrev  0x00004861      0x1bc ./applications/app_gui.o
 .debug_abbrev  0x00004a1d      0x2df ./applications/app_pulse_sensor.o
 .debug_abbrev  0x00004cfc      0x1f2 ./applications/app_tftlcd_drv.o
 .debug_abbrev  0x00004eee      0x11b ./applications/main.o

.debug_line     0x00000000     0xf5e9
 *(.debug_line)
 .debug_line    0x00000000      0x252 ./rt-thread/src/clock.o
 .debug_line    0x00000252      0x2c3 ./rt-thread/src/components.o
 .debug_line    0x00000515      0x469 ./rt-thread/src/device.o
 .debug_line    0x0000097e      0x3cc ./rt-thread/src/idle.o
 .debug_line    0x00000d4a      0xebb ./rt-thread/src/ipc.o
 .debug_line    0x00001c05      0x23b ./rt-thread/src/irq.o
 .debug_line    0x00001e40      0x948 ./rt-thread/src/kservice.o
 .debug_line    0x00002788      0x468 ./rt-thread/src/mem.o
 .debug_line    0x00002bf0      0x510 ./rt-thread/src/object.o
 .debug_line    0x00003100      0x3de ./rt-thread/src/scheduler.o
 .debug_line    0x000034de      0x534 ./rt-thread/src/thread.o
 .debug_line    0x00003a12      0x586 ./rt-thread/src/timer.o
 .debug_line    0x00003f98       0xdb ./rt-thread/libcpu/arm/cortex-m4/context_gcc.o
 .debug_line    0x00004073      0x2fc ./rt-thread/libcpu/arm/cortex-m4/cpuport.o
 .debug_line    0x0000436f      0x587 ./rt-thread/components/libc/compilers/newlib/syscalls.o
 .debug_line    0x000048f6      0x69e ./rt-thread/components/finsh/cmd.o
 .debug_line    0x00004f94      0x37f ./rt-thread/components/finsh/msh.o
 .debug_line    0x00005313      0x167 ./rt-thread/components/finsh/msh_parse.o
 .debug_line    0x0000547a      0x5a1 ./rt-thread/components/finsh/shell.o
 .debug_line    0x00005a1b      0x802 ./rt-thread/components/drivers/serial/serial.o
 .debug_line    0x0000621d      0x5d0 ./rt-thread/components/drivers/misc/pin.o
 .debug_line    0x000067ed      0x352 ./rt-thread/components/drivers/ipc/completion.o
 .debug_line    0x00006b3f      0x549 ./rt-thread/components/drivers/ipc/dataqueue.o
 .debug_line    0x00007088      0x56d ./rt-thread/components/drivers/ipc/workqueue.o
 .debug_line    0x000075f5      0x584 ./rt-thread/components/drivers/i2c/i2c-bit-ops.o
 .debug_line    0x00007b79      0x3c7 ./rt-thread/components/drivers/i2c/i2c_core.o
 .debug_line    0x00007f40      0x3a4 ./rt-thread/components/drivers/i2c/i2c_dev.o
 .debug_line    0x000082e4      0x71b ./libraries/gd32_drivers/drv_gpio.o
 .debug_line    0x000089ff      0x51e ./libraries/gd32_drivers/drv_soft_i2c.o
 .debug_line    0x00008f1d      0x657 ./libraries/gd32_drivers/drv_usart.o
 .debug_line    0x00009574      0x7f8 ./libraries/GD32F4xx_Firmware_Library/GD32F4xx_standard_peripheral/Source/gd32f4xx_adc.o
 .debug_line    0x00009d6c      0x467 ./libraries/GD32F4xx_Firmware_Library/GD32F4xx_standard_peripheral/Source/gd32f4xx_exti.o
 .debug_line    0x0000a1d3      0x513 ./libraries/GD32F4xx_Firmware_Library/GD32F4xx_standard_peripheral/Source/gd32f4xx_gpio.o
 .debug_line    0x0000a6e6      0x2df ./libraries/GD32F4xx_Firmware_Library/GD32F4xx_standard_peripheral/Source/gd32f4xx_misc.o
 .debug_line    0x0000a9c5      0x859 ./libraries/GD32F4xx_Firmware_Library/GD32F4xx_standard_peripheral/Source/gd32f4xx_rcu.o
 .debug_line    0x0000b21e      0x6e7 ./libraries/GD32F4xx_Firmware_Library/GD32F4xx_standard_peripheral/Source/gd32f4xx_spi.o
 .debug_line    0x0000b905      0x411 ./libraries/GD32F4xx_Firmware_Library/GD32F4xx_standard_peripheral/Source/gd32f4xx_syscfg.o
 .debug_line    0x0000bd16      0xac4 ./libraries/GD32F4xx_Firmware_Library/GD32F4xx_standard_peripheral/Source/gd32f4xx_timer.o
 .debug_line    0x0000c7da      0x7fc ./libraries/GD32F4xx_Firmware_Library/GD32F4xx_standard_peripheral/Source/gd32f4xx_usart.o
 .debug_line    0x0000cfd6       0xbb ./libraries/GD32F4xx_Firmware_Library/CMSIS/GD/GD32F4xx/Source/GCC/startup_gd32f4xx.o
 .debug_line    0x0000d091      0x399 ./libraries/GD32F4xx_Firmware_Library/CMSIS/GD/GD32F4xx/Source/system_gd32f4xx.o
 .debug_line    0x0000d42a      0x36e ./board/board.o
 .debug_line    0x0000d798      0x35b ./applications/app_adc.o
 .debug_line    0x0000daf3      0x681 ./applications/app_gui.o
 .debug_line    0x0000e174      0x8af ./applications/app_pulse_sensor.o
 .debug_line    0x0000ea23      0x7ce ./applications/app_tftlcd_drv.o
 .debug_line    0x0000f1f1      0x3f8 ./applications/main.o

.debug_frame    0x00000000     0x8068
 *(.debug_frame)
 .debug_frame   0x00000000       0xe4 ./rt-thread/src/clock.o
 .debug_frame   0x000000e4      0x158 ./rt-thread/src/components.o
 .debug_frame   0x0000023c      0x1ec ./rt-thread/src/device.o
 .debug_frame   0x00000428      0x180 ./rt-thread/src/idle.o
 .debug_frame   0x000005a8      0x6f0 ./rt-thread/src/ipc.o
 .debug_frame   0x00000c98       0xcc ./rt-thread/src/irq.o
 .debug_frame   0x00000d64      0x754 ./rt-thread/src/kservice.o
 .debug_frame   0x000014b8       0xec ./rt-thread/src/mem.o
 .debug_frame   0x000015a4      0x294 ./rt-thread/src/object.o
 .debug_frame   0x00001838      0x28c ./rt-thread/src/scheduler.o
 .debug_frame   0x00001ac4      0x360 ./rt-thread/src/thread.o
 .debug_frame   0x00001e24      0x2f4 ./rt-thread/src/timer.o
 .debug_frame   0x00002118      0x130 ./rt-thread/libcpu/arm/cortex-m4/cpuport.o
 .debug_frame   0x00002248      0x3f8 ./rt-thread/components/libc/compilers/newlib/syscalls.o
 .debug_frame   0x00002640      0x2d0 ./rt-thread/components/finsh/cmd.o
 .debug_frame   0x00002910      0x158 ./rt-thread/components/finsh/msh.o
